:020000040800F2
:10000000000001209D670208D1410008D541000889
:10001000D9410008DD410008E1410008000000006E
:10002000000000000000000000000000513A02083B
:10003000E541000800000000E13A0208253B020803
:10004000E5670208E5670208E5670208E567020858
:10005000E5670208E5670208E5670208E567020848
:10006000E5670208E5670208E5670208E567020838
:10007000E9410008F5410008E5670208E567020864
:10008000E5670208E5670208E5670208E567020818
:10009000E5670208E5670208E5670208E567020808
:1000A000E567020801420008E5670208E567020803
:1000B0000D420008E5670208E5670208E5670208E7
:1000C000E5670208E5670208E567020819420008CB
:1000D000E56702082542000831420008E56702088A
:1000E000E5670208E5670208E5670208E5670208B8
:1000F000E5670208E5670208E5670208E5670208A8
:10010000E5670208E5670208E5670208E567020897
:10011000E5670208E5670208E5670208E567020887
:10012000E5670208E5670208E5670208E567020877
:1001300000000000000000000000000000000000BF
:1001400000000000000000000000000000000000AF
:10015000000000000000000000000000000000009F
:10016000000000000000000000000000000000008F
:10017000000000000000000000000000000000007F
:10018000000000000000000000000000000000006F
:10019000000000000000000000000000000000005F
:1001A000000000000000000000000000000000004F
:1001B000000000000000000000000000000000003F
:1001C000000000000000000000000000000000002F
:1001D000000000000000000000000000000000001F
:0401E0005FF8E0F1F3
:1001F00010B5054C237833B9044B13B10448AFF361
:1002000000800123237010BD380C00200000000086
:1002100078D2020808B5034B1BB103490348AFF37A
:10022000008008BD000000003C0C002078D20208CD
:1002300053B94AB9002908BF00281CBF4FF0FF314D
:100240004FF0FF3000F076B9ADF1080C6DE904CE47
:1002500000F006F8DDF804E0DDE9022304B07047A1
:100260002DE9F047089E0D4604468846002B4DD1E7
:100270008A42944668D9B2FA82F252B101FA02F384
:10028000C2F1200120FA01F10CFA02FC41EA030854
:1002900094404FEA1C41B8FBF1F71FFA8CFE01FBBA
:1002A000178807FB0EF0230C43EA084398420AD94B
:1002B0001CEB030307F1FF3580F01E81984240F2EA
:1002C0001B81023F63441B1AB3FBF1F001FB1033A7
:1002D00000FB0EFEA4B244EA0344A6450AD91CEB77
:1002E000040400F1FF3380F00981A64540F2068145
:1002F000644402380021A4EB0E0440EA07401EB11A
:100300000023D440C6E90043BDE8F0878B4208D9FA
:10031000002E00F0EE800021C6E900050846BDE889
:10032000F087B3FA83F100294AD1AB4202D382426B
:1003300000F2FC80841A65EB030301209846002E2E
:10034000E2D0C6E90048DFE702B9FFDEB2FA82F286
:10035000002A40F09180A1EB0C0001214FEA1C47DC
:100360001FFA8CFEB0FBF7F307FB1300250C45EAE0
:1003700000450EFB03F0A84208D91CEB050503F16C
:10038000FF3802D2A84200F2CE8043462D1AB5FBB8
:10039000F7F007FB10550EFB00FEA4B244EA05443B
:1003A000A64508D91CEB040400F1FF3502D2A6458E
:1003B00000F2B6802846A4EB0E0440EA03409EE714
:1003C000C1F120078B4022FA07FC4CEA030C25FA06
:1003D00007FA4FEA1C49BAFBF9F820FA07F309FBC0
:1003E00018AA8D401FFA8CFE1D4300FA01F308FB8A
:1003F0000EF02C0C44EA0A44A04202FA01F20BD996
:100400001CEB040408F1FF3A80F08880A04240F21F
:100410008580A8F102086444241AB4FBF9F009FBB2
:10042000104400FB0EFEADB245EA0444A64508D9CF
:100430001CEB040400F1FF356CD2A6456AD90238E2
:10044000644440EA0840A0FB0295A4EB0E04AC42D1
:10045000C846AE4656D353D0002E69D0B3EB08023F
:1004600064EB0E0422FA01F304FA07F71F43CC40B1
:10047000C6E90074002147E70CFA02FCC2F1200132
:1004800025FA01F34FEA1C4720FA01F195400D438C
:10049000B3FBF7F107FB11331FFA8CFE280C40EA7F
:1004A000034001FB0EF3834204FA02F408D91CEB6B
:1004B000000001F1FF382FD283422DD90239604468
:1004C000C01AB0FBF7F307FB1300ADB245EA0045D5
:1004D00003FB0EF0A84208D91CEB050503F1FF3819
:1004E00016D2A84214D9023B6544281A43EA0141B6
:1004F00038E73146304607E72F46E4E61846F9E686
:100500004B45A9D2B9EB020865EB0C0E0138A3E705
:100510004346EAE7284694E74146D1E7D0467BE7E1
:100520006444023847E7023B65442FE7084606E784
:100530003146E9E6704700BF844641EA000313F004
:10054000030349D1403A23D30B6803604B684360EF
:100550008B688360CB68C3600B6903614B6943613F
:100560008B698361CB69C3610B6A03624B6A436227
:100570008B6A8362CB6AC3620B6B03634B6B43630F
:100580008B6B8363CB6BC36340304031403ADBD22B
:1005900030320BD30B6803604B6843608B68836019
:1005A000CB68C36010301031103AF3D20C3205D34F
:1005B00051F8043B40F8043B043AF9D2043208D025
:1005C000D2071CBF11F8013B00F8013B01D30B8897
:1005D00003806046704700BF082A13D38B07B1D051
:1005E00010F00303AED0C3F10403D21ADB071CBF23
:1005F00011F8013B00F8013BA4D331F8023B20F88D
:10060000023B9FE7043AD9D3013A11F8013B00F8C5
:10061000013BF9D20B7803704B7843708B78837071
:100620006046704780EA010C1CF0030F37D110F0D0
:10063000030C20F0030021F0030150F8042B08BF45
:1006400051F8043B0ED08CF0030C6FF07F434FEA5F
:10065000CC0C23FA0CFC51F8043B42EA0C0243EAAE
:100660000C0300BFA2F1013C9A4201BF2CEA020C2C
:100670001CF0803F50F8042B51F8043BF2D04FEAB5
:1006800002604FEA1222012828BFB0EB036F08BFB7
:100690001B0AF4D003F0FF03000EC01A704710F0DD
:1006A000030F0AD010F8012B11F8013B012A28BFD3
:1006B0009A42F4D0A2EB030070474DF8045D50F865
:1006C000042B01F0030521F0030151F8043B022D36
:1006D00026D04DD822F07F45B5EB132FA2F1013C77
:1006E0002CEA020C0DD11CF0803C08BF51F8043BF1
:1006F0000AD185EA0205B5EB036F0CD150F8042B43
:10070000E8E74FEA13235BE03CF07F4C54D10B78D1
:100710004FEA126554E04FEA126503F0FF034FE021
:100720004FEA0245A2F1013C4FEA15452CEA020CC2
:10073000B5EB134F18D11CF0803C08BF51F8043BB7
:1007400007D185EA0205B5EB034F09D150F8042B18
:10075000E6E75FEA0C4C2FD10B884FEA12452FE0F9
:100760004FEA03434FEA12454FEA134328E000BF24
:1007700002F0FF05B5EB136FA2F1013C2CEA020C6D
:100780000DD11CF0803C08BF51F8043B0AD185EA2A
:100790000205B5EB032F0AD150F8042BE8E74FEA26
:1007A00013630DE012F0FF0F06D051F8043B4FEA3F
:1007B000122523F07F4303E04FF0000020BC704778
:1007C00005F0FF0203F0FF00012828BF904204BF9C
:1007D0002D0A1B0AF4D0A2EB000020BC704700BF1A
:1007E00081F0004102E000BF83F0004330B54FEAE2
:1007F00041044FEA430594EA050F08BF90EA020F4F
:100800001FBF54EA000C55EA020C7FEA645C7FEAE1
:10081000655C00F0E2804FEA5454D4EB5555B8BF04
:100820006D420CDD2C4480EA020281EA030382EA75
:10083000000083EA010180EA020281EA0303362D07
:1008400088BF30BD11F0004F4FEA01314FF4801CDA
:100850004CEA113102D0404261EB410113F0004FEC
:100860004FEA03334CEA133302D0524263EB4303A3
:1008700094EA050F00F0A780A4F10104D5F1200E41
:100880000DDB02FA0EFC22FA05F2801841F100019C
:1008900003FA0EF2801843FA05F359410EE0A5F170
:1008A00020050EF1200E012A03FA0EFC28BF4CF0A1
:1008B000020C43FA05F3C01851EBE37101F0004557
:1008C00007D54FF0000EDCF1000C7EEB00006EEB64
:1008D0000101B1F5801F1BD3B1F5001F0CD34908EE
:1008E0005FEA30004FEA3C0C04F101044FEA445245
:1008F00012F5800F80F09A80BCF1004F08BF5FEACC
:10090000500C50F1000041EB045141EA050130BDAB
:100910005FEA4C0C404141EB0101013C28BFB1F5BD
:10092000801FE9D291F0000F04BF01460020B1FA08
:1009300081F308BF2033A3F10B03B3F120020CDADB
:100940000C3208DD02F1140CC2F10C0201FA0CF0B9
:1009500021FA02F10CE002F11402D8BFC2F1200C1E
:1009600001FA02F120FA0CFCDCBF41EA0C019040D4
:10097000E41AA2BF01EB0451294330BD6FEA04041D
:100980001F3C1CDA0C340EDC04F11404C4F1200208
:1009900020FA04F001FA02F340EA030021FA04F31A
:1009A00045EA030130BDC4F10C04C4F1200220FA71
:1009B00002F001FA04F340EA0300294630BD21FAAF
:1009C00004F0294630BD94F0000F83F4801306BF75
:1009D00081F480110134013D4EE77FEA645C18BF69
:1009E0007FEA655C29D094EA050F08BF90EA020F00
:1009F00005D054EA000C04BF1946104630BD91EAF8
:100A0000030F1EBF0021002030BD5FEA545C05D1FA
:100A10004000494128BF41F0004130BD14F5800439
:100A20003CBF01F5801130BD01F0004545F0FE41AD
:100A300041F470014FF0000030BD7FEA645C1ABFE2
:100A4000194610467FEA655C1CBF0B46024650EA19
:100A5000013406BF52EA033591EA030F41F4002145
:100A600030BD00BF90F0000F04BF0021704730B5CB
:100A70004FF4806404F132044FF000054FF00001A0
:100A800050E700BF90F0000F04BF0021704730B561
:100A90004FF4806404F1320410F0004548BF404236
:100AA0004FF000013EE700BF42004FEAE2014FEA8B
:100AB00031014FEA02701FBF12F07F4393F07F4F66
:100AC00081F06051704732F07F4208BF704793F069
:100AD0007F4F04BF41F40021704730B54FF460747C
:100AE00001F0004521F000411CE700BF50EA01027F
:100AF00008BF704730B54FF000050AE050EA010228
:100B000008BF704730B511F0004502D5404261EB97
:100B100041014FF4806404F132045FEA915C3FF4D8
:100B2000D8AE4FF003025FEADC0C18BF03325FEA75
:100B3000DC0C18BF033202EBDC02C2F1200300FA26
:100B400003FC20FA02F001FA03FE40EA0E0021FA4B
:100B500002F11444BDE600BF70B54FF0FF0C4CF439
:100B6000E06C1CEA11541DBF1CEA135594EA0C0FEB
:100B700095EA0C0F00F0DEF82C4481EA030621EA26
:100B80004C5123EA4C5350EA013518BF52EA033561
:100B900041F4801143F4801338D0A0FB02CE4FF013
:100BA0000005E1FB02E506F00042E0FB03E54FF043
:100BB0000006E1FB03569CF0000F18BF4EF0010E3B
:100BC000A4F1FF04B6F5007F64F5407404D25FEA37
:100BD0004E0E6D4146EB060642EAC62141EA5551EA
:100BE0004FEAC52040EA5E504FEACE2EB4F1FD0C2C
:100BF00088BFBCF5E06F1ED8BEF1004F08BF5FEAAA
:100C0000500E50F1000041EB045170BD06F000465B
:100C100046EA010140EA020081EA0301B4EB5C0408
:100C2000C2BFD4EB0C0541EA045170BD41F4801100
:100C30004FF0000E013C00F3AB8014F1360FDEBF25
:100C4000002001F0004170BDC4F10004203C35DA01
:100C50000C341BDC04F11404C4F1200500FA05F384
:100C600020FA04F001FA05F240EA020001F0004225
:100C700021F0004110EBD37021FA04F642EB06019B
:100C80005EEA430E08BF20EAD37070BDC4F10C04C5
:100C9000C4F1200500FA04F320FA05F001FA04F289
:100CA00040EA020001F0004110EBD37041F1000175
:100CB0005EEA430E08BF20EAD37070BDC4F1200580
:100CC00000FA05F24EEA020E20FA04F301FA05F2E8
:100CD00043EA020321FA04F001F0004121FA04F290
:100CE00020EA020000EBD3705EEA430E08BF20EA60
:100CF000D37070BD94F0000F0FD101F0004640009A
:100D000041EB010111F4801F08BF013CF7D041EA1B
:100D1000060195F0000F18BF704703F0004652001F
:100D200043EB030313F4801F08BF013DF7D043EAF0
:100D30000603704794EA0C0F0CEA135518BF95EAA6
:100D40000C0F0CD050EA410618BF52EA4306D1D12D
:100D500081EA030101F000414FF0000070BD50EA4C
:100D6000410606BF1046194652EA430619D094EAD6
:100D70000C0F02D150EA013613D195EA0C0F05D1C0
:100D800052EA03361CBF104619460AD181EA030114
:100D900001F0004141F0FE4141F470014FF00000CC
:100DA00070BD41F0FE4141F4780170BD70B54FF067
:100DB000FF0C4CF4E06C1CEA11541DBF1CEA1355E7
:100DC00094EA0C0F95EA0C0F00F0A7F8A4EB0504C9
:100DD00081EA030E52EA03354FEA013100F08880C0
:100DE0004FEA03334FF0805545EA131343EA126389
:100DF0004FEA022245EA111545EA10654FEA00263E
:100E00000EF000419D4208BF964244F1FD0404F5F6
:100E1000407402D25B084FEA3202B61A65EB030552
:100E20005B084FEA32024FF480104FF4002CB6EB0F
:100E3000020E75EB030E22BFB61A754640EA0C008F
:100E40005B084FEA3202B6EB020E75EB030E22BFCF
:100E5000B61A754640EA5C005B084FEA3202B6EB10
:100E6000020E75EB030E22BFB61A754640EA9C00CF
:100E70005B084FEA3202B6EB020E75EB030E22BF9F
:100E8000B61A754640EADC0055EA060E18D04FEA5D
:100E9000051545EA16754FEA06164FEAC30343EAFD
:100EA00052734FEAC2025FEA1C1CC0D111F4801FCA
:100EB0000BD141EA00014FF000004FF0004CB6E7C3
:100EC00011F4801F04BF01430020B4F1FD0C88BF62
:100ED000BCF5E06F3FF6AFAEB5EB030C04BFB6EB6D
:100EE000020C5FEA500C50F1000041EB045170BD60
:100EF0000EF0004E4EEA113114EB5C04C2BFD4EB8D
:100F00000C0541EA045170BD41F480114FF0000E10
:100F1000013C90E645EA060E8DE60CEA135594EA8C
:100F20000C0F08BF95EA0C0F3FF43BAF94EA0C0F8F
:100F30000AD150EA01347FF434AF95EA0C0F7FF404
:100F400025AF104619462CE795EA0C0F06D152EA58
:100F500003353FF4FDAE1046194622E750EA41063C
:100F600018BF52EA43067FF4C5AE50EA41047FF44D
:100F70000DAF52EA43057FF4EBAE12E74FF0FF3CB2
:100F800006E000BF4FF0010C02E000BF4FF0010C83
:100F90004DF804CD4FEA410C7FEA6C5C4FEA430CFC
:100FA00018BF7FEA6C5C1BD001B050EA410C0CBF4B
:100FB00052EA430C91EA030F02BF90EA020F0020AD
:100FC000704710F1000F91EA030F58BF994208BF14
:100FD00090422CBFD8176FEAE37040F001007047D1
:100FE0004FEA410C7FEA6C5C02D150EA013C07D128
:100FF0004FEA430C7FEA6C5CD6D152EA033CD3D073
:101000005DF8040B704700BF8446104662468C466C
:101010001946634600E000BF01B5FFF7B7FF00289F
:1010200048BF10F1000F01BD4DF808EDFFF7F4FFC8
:101030000CBF012000205DF808FB00BF4DF808ED53
:10104000FFF7EAFF34BF012000205DF808FB00BF76
:101050004DF808EDFFF7E0FF94BF012000205DF898
:1010600008FB00BF4DF808EDFFF7CEFF94BF01204D
:1010700000205DF808FB00BF4DF808EDFFF7C4FF46
:1010800034BF012000205DF808FB00BF4FEA410C8F
:101090007FEA6C5C02D150EA013C0AD14FEA430C72
:1010A0007FEA6C5C02D152EA033C02D14FF00000AF
:1010B00070474FF0010070474FEA410212F50012ED
:1010C00015D211D56FF47873B3EB625212D94FEA8F
:1010D000C12343F0004343EA505311F0004F23FA79
:1010E00002F018BF404270474FF00000704750EACE
:1010F000013005D111F0004008BF6FF0004070478B
:101100004FF00000704700BF844600B583B0FF2356
:1011100001220DF1070104488DF807C004F08EFD8F
:1011200003B05DF804FB00BF6C14002008B5012279
:101130004FF48051044803F0CBFF012240210348C3
:1011400003F0C6FF002008BD000C01400010014064
:101150004FF0000C10B40A4C20816181A3816082A1
:10116000A182E281A4F810C02AB1B42A03D0A180E0
:10117000E08010BC7047A080E18010BC704700BFC9
:101180005C0C0020014B1860704700BF540C00201D
:10119000014B1860704700BF580C002030B5044662
:1011A00085B030B15A2804D0B42802D0B0F5877F7A
:1011B0000ED18C250C4A0320CDE901240B4B0C4A9F
:1011C0000C49009500F040FD0B4BDC8105B030BDB3
:1011D0008F240A4903200191044B054A05490094D4
:1011E00000F032FD05B030BD34D3020868D30208E8
:1011F000A8D20208E8D202085C0C00204CD30208F6
:1012000010B5FE4C01224021204603F061FF64200E
:1012100003F0A0F900224021204603F059FF64208A
:1012200003F098F901224021204603F051FF642089
:10123000A4F5806403F08EF9642003F08BF900229A
:101240004FF48051204603F043FF1120FFF75CFF6D
:10125000782003F07FF900224FF48051204603F0FC
:1012600037FFCF20FFF750FF01224FF48051204677
:1012700003F02EFF0020FFF747FF01224FF48051BB
:10128000204603F025FFC120FFF73EFF01224FF467
:101290008051204603F01CFF3020FFF735FF00226D
:1012A0004FF48051204603F013FFED20FFF72CFF91
:1012B00001224FF48051204603F00AFF6420FFF71B
:1012C00023FF01224FF48051204603F001FF032049
:1012D000FFF71AFF01224FF48051204603F0F8FE79
:1012E0001220FFF711FF01224FF48051204603F036
:1012F000EFFE8120FFF708FF00224FF480512046C7
:1013000003F0E6FEE820FFF7FFFE01224FF48051D4
:10131000204603F0DDFE8520FFF7F6FE01224FF4A4
:101320008051204603F0D4FE0020FFF7EDFE01229D
:101330004FF48051204603F0CBFE7920FFF7E4FE06
:1013400000224FF48051204603F0C2FECB20FFF76D
:10135000DBFE01224FF48051204603F0B9FE392014
:10136000FFF7D2FE01224FF48051204603F0B0FE79
:101370002C20FFF7C9FE01224FF48051204603F0D4
:10138000A7FE0020FFF7C0FE01224FF48051204647
:1013900003F09EFE3420FFF7B7FE01224FF4805188
:1013A000204603F095FE0220FFF7AEFE00224FF428
:1013B0008051204603F08CFEF720FFF7A5FE0122A6
:1013C0004FF48051204603F083FE2020FFF79CFE5F
:1013D00000224FF48051204603F07AFEEA20FFF706
:1013E00093FE01224FF48051204603F071FE00204D
:1013F000FFF78AFE01224FF48051204603F068FE79
:101400000020FFF781FE00224FF48051204603F0B8
:101410005FFEC020FFF778FE01224FF48051204686
:1014200003F056FE1D20FFF76FFE00224FF480519F
:10143000204603F04DFEC120FFF766FE01224FF467
:101440008051204603F044FE1220FFF75DFE00228B
:101450004FF48051204603F03BFEC520FFF754FEB9
:1014600001224FF48051204603F032FE3320FFF773
:101470004BFE01224FF48051204603F029FE3F200D
:10148000FFF742FE00224FF48051204603F020FE79
:10149000C720FFF739FE01224FF48051204603F0A8
:1014A00017FE9220FFF730FE00224FF480512046B5
:1014B00003F00EFE3A20FFF727FE01224FF4805181
:1014C000204603F005FE5520FFF71EFE00224FF4D4
:1014D0008051204603F0FCFD3620FFF715FE012267
:1014E0004FF48051204603F0F3FD0820FFF70CFE77
:1014F00000224FF48051204603F0EAFDB120FFF7AF
:1015000003FE01224FF48051204603F0E1FD00204C
:10151000FFF7FAFD01224FF48051204603F0D8FD79
:101520001220FFF7F1FD00224FF48051204603F016
:10153000CFFDB620FFF7E8FD01224FF48051204691
:1015400003F0C6FD0A20FFF7DFFD01224FF48051B2
:10155000204603F0BDFDA220FFF7D6FD00224FF488
:101560008051204603F0B4FD4420FFF7CDFD012259
:101570004FF48051204603F0ABFD0220FFF7C4FD7D
:1015800000224FF48051204603F0A2FDF220FFF725
:10159000BBFD01224FF48051204603F099FD00204D
:1015A000FFF7B2FD00224FF48051204603F090FD7A
:1015B0002620FFF7A9FD01224FF48051204603F0B9
:1015C00087FD0120FFF7A0FD00224FF48051204647
:1015D00003F07EFDE020FFF797FD01224FF48051DC
:1015E000204603F075FD0F20FFF78EFD01224FF41A
:1015F0008051204603F06CFD02E000BF0010014066
:101600002220FFF781FD01224FF48051204603F094
:101610005FFD1C20FFF778FD01224FF4805120462A
:1016200003F056FD1B20FFF76FFD01224FF48051A0
:10163000204603F04DFD0820FFF766FD01224FF420
:101640008051204603F044FD0F20FFF75DFD01228D
:101650004FF48051204603F03BFD4820FFF754FD36
:1016600001224FF48051204603F032FDB820FFF7ED
:101670004BFD01224FF48051204603F029FD342018
:10168000FFF742FD01224FF48051204603F020FD78
:101690000520FFF739FD01224FF48051204603F069
:1016A00017FD0C20FFF730FD01224FF4805120463A
:1016B00003F00EFD0920FFF727FD01224FF48051B2
:1016C000204603F005FD0F20FFF71EFD01224FF419
:1016D0008051204603F0FCFC0720FFF715FD012296
:1016E0004FF48051204603F0F3FC0020FFF70CFD7F
:1016F00000224FF48051204603F0EAFCE120FFF77E
:1017000003FD01224FF48051204603F0E1FC00204C
:10171000FFF7FAFC01224FF48051204603F0D8FC79
:101720002320FFF7F1FC01224FF48051204603F003
:10173000CFFC2420FFF7E8FC01224FF48051204623
:1017400003F0C6FC0720FFF7DFFC01224FF48051B5
:10175000204603F0BDFC1020FFF7D6FC01224FF419
:101760008051204603F0B4FC0720FFF7CDFC012296
:101770004FF48051204603F0ABFC3820FFF7C4FC47
:1017800001224FF48051204603F0A2FC4720FFF7CE
:10179000BBFC01224FF48051204603F099FC4B2002
:1017A000FFF7B2FC01224FF48051204603F090FC79
:1017B0000A20FFF7A9FC01224FF48051204603F0D4
:1017C00087FC1320FFF7A0FC01224FF48051204634
:1017D00003F07EFC0620FFF797FC01224FF48051B6
:1017E000204603F075FC3020FFF78EFC01224FF4F9
:1017F0008051204603F06CFC3820FFF785FC012265
:101800004FF48051204603F063FC0F20FFF77CFC6F
:10181000204600224FF4805103F05AFCBDE81040EE
:101820002920FFF771BC00BF2DE9F041074616469D
:1018300088461D46354C00224FF48051204603F067
:1018400047FC2A20FFF760FC01224FF4805120461C
:1018500003F03EFC380AFFF757FC01224FF4805199
:10186000204603F035FCF8B2FFF74EFC013E0122A2
:101870004FF48051204603F02BFCC6F30720FFF7FE
:1018800043FC01224FF48051204603F021FCF0B2CA
:10189000FFF73AFC00224FF48051204603F018FC79
:1018A0002B20FFF731FC01224FF48051204603F03A
:1018B0000FFC4FEA1820FFF727FC01224FF480515C
:1018C000204603F005FC5FFA88F0FFF71DFC013DA0
:1018D00001224FF48051204603F0FAFBC5F30720A4
:1018E000FFF712FC01224FF48051204603F0F0FB79
:1018F000E8B2FFF709FC204600224FF4805103F0C4
:10190000E7FBBDE8F0412C20FFF7FEBB000C0140D7
:10191000F8B506460D46354C00224FF4805120465E
:1019200003F0D6FB2A20FFF7EFFB370A01224FF422
:101930008051204603F0CCFB3846FFF7E5FBF6B2BA
:1019400001224FF48051204603F0C2FB3046FFF7DE
:10195000DBFB01224FF48051204603F0B9FB3846EF
:10196000FFF7D2FB01224FF48051204603F0B0FB79
:101970003046FFF7C9FB00224FF48051204603F0A8
:10198000A7FB2B20FFF7C0FB2E0A01224FF480514A
:10199000204603F09DFB3046FFF7B6FBEDB2012277
:1019A0004FF48051204603F093FB2846FFF7ACFB31
:1019B00001224FF48051204603F08AFB3046FFF7A6
:1019C000A3FB01224FF48051204603F081FB2846FF
:1019D000FFF79AFB204600224FF4805103F078FB7A
:1019E000BDE8F8402C20FFF78FBB00BF000C014082
:1019F0000021F0222DE9F041154F05464FF4A07368
:101A000008469046FFF710FF01224FF480513846F8
:101A100003F05EFB2E0AEDB24FF4A07401224FF4E6
:101A20008051384603F054FB013C3046FFF76CFB15
:101A3000A4B22846FFF768FB002CEFD108F1FF386D
:101A40001FFA88F8B8F1000FE6D1BDE8F08100BFB9
:101A5000000C014010B51446FFF75AFF01224FF465
:101A60008051054803F034FB200AFFF74DFBE0B23C
:101A7000BDE81040FFF748BB000C01404FF03A0CA6
:101A80002DE9F0412A4B2B4E2B4D2C4C84B0CDF838
:101A900000C02A46214601930320334600F0D4F8C3
:101AA000FFF744FB3D230093254B2A4621460320A4
:101AB0000193334600F0C8F8FFF7A2FB4FF6FF7022
:101AC000FFF796FF412300931E4B2A4621460193C0
:101AD0000320334600F0B8F842234FF4A078F027F3
:101AE0000093194B2A462146CDE902780193032041
:101AF000334600F0A9F83846452741464FF6FF73B4
:101B00000022FFF725FB114833462A462146019063
:101B10000097032000F098F80D48FFF733FB0D48BD
:101B2000FFF736FB002004B0BDE8F041FFF736BBFD
:101B3000C0D3020850D4020878D30208E8D20208C1
:101B4000D8D30208F8D302080CD4020830D4020813
:101B5000F1190008551A00080020704784460A460B
:101B6000FF236146014892B205F0ECB8A0150020B1
:101B7000034B186818B14FF0FF3122F0F5BD7047E4
:101B800020B90020044B186820B100231A461946DA
:101B900022F04CBA704700BF20B9002010B502F007
:101BA000D3FC044C02460449204625F0DBFB2046CA
:101BB00010BD00BF740C002064D40208704700BF41
:101BC00000207047F8B51E4C94F8F03013B1002592
:101BD0002846F8BDFFF7C0FF05460028F8D10122CE
:101BE00094F8F43084F8F220FBB994F8F3301BBB7E
:101BF000002601210522134BA4F8F36003F1A50789
:101C000084F8F510227018461F22002125F0C2F931
:101C100003462133BB4203F8226C03F8026CF2D175
:101C20000123284684F8F030F8BD94F8F330002BF7
:101C3000DED1FFF7A7FFDBE7FFF79AFFD8E700BF8A
:101C4000840C0020B60C00202DE9F04F044691B022
:101C5000084606930D46904625F06AFC0023052CA5
:101C60000746CDE90C33CDE90E330A93ADF82C309D
:101C70000BD9DFF82CA0DAF80060002E00F00A8201
:101C80004FF40F7207490848B047084E96F8F130F4
:101C900013B13378A3420BD211B0BDE8F08F00BF6F
:101CA0007C0D002014D70208C0D40208840C002048
:101CB000284600F061FCA042EED32846711C25F0B6
:101CC00033FE0028E8D096F8F2301CAA0992002BC7
:101CD00040F0B882012386F8F33096F8F530002BF7
:101CE00040F09D829946BC4B0793052C40F2E2815F
:101CF000DFF8E8A2DAF80030002B00F0C082B84923
:101D000040F2DB22B74804F1360B984756F82B30E7
:101D1000D90700F1D581DAF80030002B00F0C0823D
:101D200040F2DB22AE49AF48984756F82B309B076C
:101D300017D5079B484603EB09012A4600F0BCFC77
:101D40000F2F814440F24B82079B484603EB090169
:101D5000A54A00F0B1FC052C814440F2C581DFF8B2
:101D60007CA2DAF80030002B00F048829C4D9D4F99
:101D700040F2DB2229463846984756F82B3013F0BC
:101D80001C0F00F08A80079B484603EB0901974A25
:101D900000F092FCDAF80030002B00F0F38240F201
:101DA000DB22294681443846984756F82B305A079B
:101DB00021D5FFF7F3FE079B024603EB09014846D6
:101DC00000F07AFCDAF800300246002B00F027839E
:101DD00029463846914440F2DB22984756F82B308A
:101DE00013F0180F0ED0079B484603EB09017E4AFB
:101DF00000F062FC8144052C40F2CF81DFF8DCA1C9
:101E0000784F774DDAF80030002B00F0CA8240F2AC
:101E1000DB2273497348984756F82B301B0740F173
:101E2000D881FFF7CBFE079B024603EB090148462A
:101E300000F042FCDAF800300246002B00F00D837F
:101E400068486749914440F2DB22984756F82B30A6
:101E5000D80600F1B681052C17D9DAF80050002D0C
:101E600000F0AE8240F2DB225D495E48A84756F89A
:101E70002B30D90609D5FFF7A3FE079B024603EBDB
:101E80000901484600F018FC8144079B484603EBD3
:101E90000901574A00F010FC8144052C40F22981C9
:101EA000DFF838A1DAF80030002B00F01B824C4D2F
:101EB0004C4F40F2DB2229463846984756F82B30E3
:101EC00013F0E00F00F0AC80079B484603EB0901DC
:101ED000484A00F0F1FBDAF80030002B00F04382B2
:101EE00040F2DB22294681443846984756F82B3089
:101EF0009B0634D5079B424603EB0901484600F098
:101F0000DBFBDAF800300246002B00F0B5823846E1
:101F10002946914440F2DB22984756F82B30580668
:101F200000F11882DAF80030002B00F0B482294664
:101F300040F2DB223846984756F82B3019060ED56A
:101F4000079B484603EB0901274A00F0B5FB814493
:101F5000052C40F2EF80DFF884A0224F204DDAF804
:101F60000030002B00F04C8240F2DB221C491D485F
:101F7000984756F82B301B0640F1FC8005211A9B30
:101F80001D4A0AA825F0ACF9079B0AAA03EB090130
:101F9000484600F091FBDAF800300246002B00F0D2
:101FA0004D820F490F48914440F2DB22984756F882
:101FB0002B305D0600F1D680052C29D9DAF80040D7
:101FC000002C00F00D8240F2DB2205490548A047B5
:101FD00056F82B3012E000BF800D00207C0D002051
:101FE00004D70208C0D4020804D5020808D50208A4
:101FF0000CD5020810D5020818D50208580607D5D6
:10200000079B484603EB0901069A00F055FB814403
:10201000079B484603EB0901BB4A00F04DFB814496
:102020000798C9F5806148441B9A099B27F082FAFA
:102030008144B9F57F7F80F00B8140F2FB3339EAB0
:10204000200928BF994696F8203053B10023079AFB
:10205000AE49AF4802F8093025F066FC002800F0D0
:10206000FA8096F8F530002B40F000810799A94AD4
:102070004944484600F020FB0146A5484944FFF783
:102080006DFD96F8F230002B40F0EA80002386F8D0
:10209000F33001E64FF40F749F49A04AA04B019220
:1020A000CDE9021330469F4A9F4904940094FFF7FC
:1020B000CBFDFEE704F1360B56F82B30DA070ED5D0
:1020C0009A4B484653F82420079B03EB090100F084
:1020D000F3FA052C814402D9DFF854A21BE656F826
:1020E0002B3098073FF525AE56F82B3013F01C0F18
:1020F00046D156F82B3013F0E00F91D0079B48469D
:1021000003EB09018B4A00F0D7FA56F82B308144D3
:102110009A060FD5079B484603EB0901424600F09B
:10212000CBFA56F82B3081445D0600F113811A0674
:102130003FF506AF56F82B3019067FF55FAF052146
:102140001A9B7D4A0AA825F0CBF8079B484603EB6B
:1021500009010AAA00F0B0FA56F82B3081445F0654
:102160007FF556AF079B484603EB0901734A00F021
:10217000A3FA8144052C7FF62BAFDFF8B4A11DE74D
:10218000079B484603EB09016D4A00F095FA56F8A3
:102190002B308144590700F1948056F82B301B07EF
:1021A0007FF565AEFFF70AFD079B024603EB0901C9
:1021B000484600F081FA56F82B308144DA067FF564
:1021C00064AE079B484603EB09015C4A00F074FAD1
:1021D0008144052C7FF64BAEDFF854A13DE620216B
:1021E000C7F10F020CA824F0D5FE079B484603EB6D
:1021F00009010CAA00F060FA8144A5E540F2DB2455
:10220000504A4649444D1846CDE9011513460392FC
:102210004549444A04940094FFF716FDFEE7DFF8B1
:10222000F0A0494A51460020CDF81CA000F044FA25
:10223000464B0AEB000153F82420814600F03CFA9B
:10224000814452E5FFF794FC012386F8F43044E51D
:1022500040F2FB39F7E696F8F230002B3FF416AF68
:10226000FFF790FC002386F8F43015E5079B4846FD
:1022700003EB0901364A00F01FFA8144F6E640F20A
:10228000DB24304A2549244D1846CDE90115134673
:1022900003922549234A04940094FFF7D5FCFEE7F6
:1022A00040F2DB24274A1D491B4D1846CDE9011594
:1022B000134603921C491B4A04940094FFF7C4FC84
:1022C000FEE7FFF76BFC079B024603EB090148465C
:1022D00000F0F2F956F82B30814413F0180F7FF418
:1022E00082AD5AE740F2DB24164A0C490A4D1846E3
:1022F000CDE90115134603920B490A4A0494009450
:10230000FFF7A2FCFEE700BF1CD50208A40C0020CA
:10231000800D0020F4D30208C0D40208DCD40208E7
:1023200014D7020868D40208B8D4020860D702089B
:102330007C0D002010D5020818D5020804D502082B
:1023400008D5020804D7020800D5020848D70208B9
:1023500020D50208079B484603EB0901554A00F0C7
:10236000ABF98144F4E540F2DB24534A1846CDE949
:1023700001272B46514A5249039504940094FFF7D4
:1023800063FCFEE740F2DB244B4A1846CDE9012707
:102390002B464A4A4A49039504940094FFF754FC9B
:1023A000FEE740F2DB24444918460191CDE902756D
:1023B000444B424A424904940094FFF745FCFEE72F
:1023C00040F2DB2440493C4A3E4B0192CDE90213E6
:1023D00028463A4A3A4904940094FFF735FCFEE750
:1023E00040F2DB253849344A364B0192CDE90213DD
:1023F0002046324A324904950095FFF725FCFEE756
:1024000040F2DB242C4918460191CDE902752D4B91
:102410002A4A2B4904940094FFF716FCFEE740F289
:10242000DB24254A1846CDE901272B46234A2449B7
:10243000039504940094FFF707FCFEE740F2DB24C9
:102440001D4918460191CDE902751E4B1B4A1C49D6
:1024500004940094FFF7F8FBFEE740F2DB241649F2
:1024600018460191CDE90275164B144A144904949B
:102470000094FFF7E9FBFEE740F2DB240E4A184622
:10248000CDE901272B460D4A0D490395049400948C
:10249000FFF7DAFBFEE740F2DB24074A1846CDE9F6
:1024A00001272B46054A0649039504940094FFF73B
:1024B000CBFBFEE714D50208DCD4020868D402087E
:1024C000B8D4020804D70208C0D4020830B50B4CB7
:1024D00085B094F8F0307BB1F4254FF0010C084A38
:1024E000084B0320CDE901320749084B084A009503
:1024F00084F8F1C0FFF7A8FB05B030BD840C0020C4
:1025000028D5020830D50208B8D40208F8D6020847
:1025100068D4020870B5052804460D4686B007D970
:102520000E4B1E6856B14FF49F720D490D48B047CF
:102530000D4B363443F8245006B070BD4FF49F74F1
:1025400008490A4A064B0192CDE902133046084A6F
:10255000084904940094FFF777FBFEE77C0D002008
:1025600038D70208C0D40208840C0020DCD402084A
:1025700068D40208B8D4020870B5054686B00028B1
:102580004CD0414C94F8F030002B54D094F8F260C9
:10259000002E3BD1012384F8F33094F8513033B14D
:1025A0001E222846394924F0F1FF002850D094F823
:1025B000723033B11E222846354924F0E7FF002847
:1025C00045D094F8933033B11E222846314924F087
:1025D000DDFF002851D094F8B43033B11E222846D4
:1025E0002D4924F0D3FF002849D094F8D53033B1D9
:1025F0001E222846294924F0C9FF002841D005257C
:10260000EEB9284684F8F36006B070BDFFF7B0FA63
:10261000012394F8F26084F8F430BEE7204B1B6885
:10262000E3B1194C4FF4EF721E491F48984794F8D4
:10263000F030002BAAD10525284606B070BDFFF763
:10264000A1FA0023284684F8F43006B070BD0120BA
:1026500000EB4010204490F83150D1E74FF4EF7474
:102660001149124A0F4B0192CDE90213104A114948
:1026700004940094FFF7E8FAFEE70220E8E703205D
:10268000E6E70420E4E700BF840C0020B60C00203D
:10269000D70C0020F80C0020190D00203A0D002066
:1026A0007C0D002020D7020858D50208DCD402088F
:1026B00068D40208B8D40208F0B505460C461646A0
:1026C00087B0C9B10EB33378002B3FD0B5F5806F1A
:1026D00028BF00200ED2C5F5806C711CA44401E017
:1026E000A44506D004F8013B084611F8013B002B35
:1026F000F6D1801B07B0F0BD184B1F68BFB12C226C
:1027000017491848B847002EDDD1144B1B68FBB998
:102710002D241549154A124B0192CDE9021330467A
:10272000134A144904940094FFF78EFAFEE72C2410
:102730000C490E4A0A4B0192CDE9021338460C4A65
:102740000C4904940094FFF77FFAFEE71846D1E79E
:102750002D220349044898473378FFDE7C0D002082
:10276000D8D70208D0D70208D4D70208DCD4020890
:1027700078D70208B8D4020838B50B88052B02D0E8
:102780000323184638BD0C4640F2CE71B0F8032042
:1027900052BA92B2531E9BB28B42F1D8002501234C
:1027A000B0F8011025800370238849BA01332380D3
:1027B00053071DBFD5080135EDB2C2F3C7054570FB
:1027C000238801310133238089B20023023023F0B2
:1027D0009FFF034620B9228818461544258038BD3E
:1027E000BDE8384000F0D0B90B88052B02D0032398
:1027F0001846704710B5047982B0ECB9C278531E00
:10280000DBB2FD2B18D90123A2F1FF0CBCFA8CFC22
:10281000B0F801101A4649BA19444FEA5C1C89B253
:1028200001A88DF805408DF804C023F071FF034620
:1028300030B9184602B010BD0323184602B010BDCF
:1028400000F0A2F90346F4E70B88052B18D910B560
:10285000B0F803300C465BBA9AB25B071CBFD308D2
:10286000013302F1FF3114BFDBB2C2F3C703B1F58C
:10287000F66F02D24179994205D00323184610BD64
:102880000323184670470123B0F80110063049BAF7
:10289000194489B223F03CFF034610B90522228077
:1028A000ECE7BDE8104000F06FB900BF38B50B8809
:1028B000052B02D00323184638BD0C4640F2CE71DA
:1028C000B0F8032052BA92B2531E9BB28B42F1D899
:1028D00000250223B0F8011025800370238849BA2F
:1028E0000133238053071DBFD5080135EDB2C2F374
:1028F000C7054570238801310133238089B2023036
:1029000023F04AFF034620B9228818461544258043
:1029100038BDBDE8384000F037B900BF08B50B88B6
:10292000052B02D00323184608BD0123B0F801107F
:102930001A4649BA1944033089B223F0E7FE034628
:102940000028F0D0BDE8084000F01EB90B88052B28
:1029500010D9B0F8032052BA92B2531E772B09D87F
:1029600010B553000C464179DBB2994205D00323E0
:10297000184610BD0323184670470123B0F8011014
:10298000063049BA194489B223F0C0FE034610B993
:1029900005222280ECE7BDE8104000F0F5B800BF4A
:1029A0000B88052B02D003231846704770B50379B6
:1029B00084465A1E7C2A9DB223D80C464FEA430E09
:1029C00003260023B0F8011023808CF800602688CD
:1029D00049BA013626808CF801E0B4F800C0013114
:1029E0000CF1010C2A4689B20230A4F800C023F091
:1029F0008DFE034640B92288184602EB450222802C
:102A000070BD0323184670BDBDE8704000F0BCB82F
:102A1000F8B50B88092B14D9B0F80360044676BAD0
:102A2000B6B2731E7C2B0AD8B0F8072052BA92B205
:102A3000531E782B03D8437AB3EB420F03D0032005
:102A4000F8BD0020F8BD0D46B0F80510B0F80170D3
:102A500049BA0131012389B20A3023F057FE18B177
:102A6000BDE8F84000F090B81722288022702A882C
:102A700079BA013277002A8067700346A01C2C883F
:102A800001310134324689B22C8023F03FFE002808
:102A9000E6D12B881F442F80F8BD00BF38B50B88C6
:102AA000052B02D00323184638BDB0F8032052BAD4
:102AB00092B2531E7B2BF5D80C4600250423B0F8A8
:102AC0000110258003702388550001332380457051
:102AD000238849BA01330131238089B2023023F0BF
:102AE000B3FD034620B9228818461544258038BD19
:102AF000BDE8384000F048B838B50D46054B0649EA
:102B00001C88013022460134FDF716FD00202C8080
:102B100038BD00BFA0110020801100204FF0010C33
:102B20000CFA02FC0CF1FF3CCA0810B51FFA8CFC31
:102B3000A1EBC20402F1010E01F0070103FA01F159
:102B40000CFA04FC835C10F80E4043EA042323EAE9
:102B50000C030B431BB2C3F30721835400F80E1080
:102B600010BD00BF01239340CA0802F1010C10F808
:102B70000CC0805C01F0070140EA0C20013B0841D9
:102B80001840C0B2704700BF07289ABF014B185CBD
:102B900004207047E4D7020870B501F1FF3E5FFAE8
:102BA0008EFEBEF1F60F8C469DF8105006D81146E9
:102BB0001A46174B044683F800C010B10224204681
:102BC00070BD2B46134E144D60462E60134D144EAF
:102BD0002E60144D144E2E60144D154E2E60154D62
:102BE0002C60154C154D2560154C164D2560164C66
:102BF000164D256000F05EF904460028DFD100F094
:102C0000B9FA18B10122124B1A70D8E70324D6E79B
:102C1000C5110020052F0008B0110020B4110020BC
:102C2000292F0008A8110020A92F0008A4110020B6
:102C3000452F0008AC110020B811002051300008C9
:102C4000BC110020D1300008C01100203D31000827
:102C50000000002010B5064C2378012B01D006207F
:102C600010BD044B1B68984700231846237010BD05
:102C700000000020B0110020F0B5764B83B01C7826
:102C8000002C40F09A800DF1070000F087FA01282F
:102C900002D0204603B0F0BD9DF80730012B00F0B4
:102CA0009080022BF5D16C4D6C4AD5F800C06C4F6A
:102CB0009CF800306B4E11783B703070002900F0AA
:102CC00097808B4200F0A880117A002900F0908054
:102CD0008B425BD0117C002900F08A808B4200F08F
:102CE0009D80117E002900F083808B4200F0988047
:102CF00092F8201000297BD08B4200F08B8092F854
:102D00002810002974D08B4200F08C8092F830108B
:102D100000296DD08B4200F0878092F8381000298E
:102D200066D08B4200F0828092F8401000295FD07C
:102D30008B427DD092F84810002959D08B4279D02F
:102D400092F85010002953D08B4275D092F8581049
:102D500000294DD08B4271D092F86010002947D0E5
:102D60008B426DD092F86810002941D08B4269D017
:102D700092F8701000293BD08B4265D092F8781001
:102D8000002935D08B4208BF0F2031D102EBC002A1
:102D90005368604634499847344B30701B78002B99
:102DA0003FF477AF002851D12F4A3148314B128878
:102DB0001B682968007898476BE70624204603B013
:102DC000F0BD2A4D2C4B2846274A1B6822499847BC
:102DD00000287FF45EAF264A2B7812789A4202D000
:102DE000002B7FF456AF022000F0CCF9002450E70E
:102DF0001E4A1278002A3FF44CAF01211A4A63F0B0
:102E00007F0311808CF80030138829685E1C1680BF
:102E1000C854CAE70420B9E72046B7E70220B5E75F
:102E20000320B3E70520B1E70620AFE70720ADE7B1
:102E30000820ABE70920A9E70A20A7E70B20A5E7B0
:102E40000C20A3E70D20A1E70E209FE73B78D5F8E3
:102E500000C0D2E700000020C811002004000020BC
:102E6000C4110020A2110020CE110020CC1100209E
:102E7000C5110020A8110020A411002099B1FF2243
:102E800000EB010C114630B4084D094C10F8013B21
:102E90005340EA5C604582EA0102E15CF6D130BC55
:102EA00042EA012070474FF6FF707047ECD70208E6
:102EB000ECD8020870B50D4614461E4620F0DAFD27
:102EC000334608222846214600F09CF9012804D008
:102ED000032420F0F1FD204670BDB4F5964F0DD8C7
:102EE00007486400B0FBF4F4A0B200F0AFF9012889
:102EF000EED1002420F0E0FD204670BD2320F4E751
:102F0000A07F170008B520F0B5FD0021054B01207A
:102F1000197000F059F900F0ABF9BDE8084020F055
:102F2000CBBD00BFD011002008B520F0A3FD0021CB
:102F3000084600F049F900F0A3F9BDE8084020F088
:102F4000BBBD00BF2DE9F843DFF8548007460D46AE
:102F5000164620F08FFDB8F800309BB2032B05D841
:102F6000052420F0A9FD2046BDE8F883B8F800103C
:102F7000DFF8309089B24846FFF780FF044600280A
:102F8000EED14B4613F8012B3A70B8F80020033A03
:102F900032802B6020F090FD2046BDE8F88300BF12
:102FA000D8120020D81100202DE9F04106460D4628
:102FB000144620F05FFD214B1B78012B05D0052422
:102FC00020F07AFD2046BDE8F081DFF87480DFB2A2
:102FD000A8F8007005F8016CB8F80020194B2244DD
:102FE00092B2A8F80020B8F80010681E89B21860E4
:102FF000FFF744FF034600200446B8F80020124EB5
:1030000092B2511CDDB289B2A8F80010B554B8F8DC
:103010000020DFF838C092B2551CC3F30723ADB2CD
:10302000A8F800503946B3548CF8007000F0CCF882
:1030300020F042FD2046BDE8F08100BFD011002005
:10304000DA120020D4110020D8110020D111002064
:1030500010B582B00DF1070000F0E4F8194A1378BA
:10306000032B0CD8DFE803F0090E020916490B8880
:103070009BB2FF2B1CD90323137000F0F9F800203A
:1030800002B010BD00234FF0020C0F499DF807E07D
:103090000B800B880D4C9BB2581C80B2088004F842
:1030A00003E082F800C000F0E3F8002002B010BD99
:1030B0000B889DF807409BB204485A1C92B20A80C4
:1030C000C454DAE7D0110020D8120020D811002013
:1030D000F8B5174D2B7803F0FF04BBB1012C12D1CA
:1030E000144F3E88B6B2BEB10024134D2B68187839
:1030F00000F08AF83B882A68013B01329BB22046E7
:103100002A603B80F8BD00242046F8BD21460120FE
:1031100000F05AF82046F8BD032000F033F80446CA
:103120003146012000F050F82E702046F8BD00BF57
:10313000D1110020DA120020D411002038B50C4D36
:103140002B7803F0FF0013B1022809D1012000F011
:1031500019F8044600F094F8012320462B7038BD7E
:1031600000F08EF80024012320462B7038BD00BFEC
:10317000D01100200022024B01201A70704700BFBE
:10318000DD1200200123034A03491370087018461A
:10319000704700BFDD120020DC120020084A1378BF
:1031A0005BB10021012310B4064C117094F800C0EB
:1031B00080F800C010BC184670471846704700BF22
:1031C000DD120020DC12002010B50C4660B1012297
:1031D0000A490B4803F072FE5CB1094B1A68D368C8
:1031E00043F04003D36010BD054803F029FF002CD5
:1031F000F3D1BDE81040024803F0D6BEDF12002034
:10320000581500200120704708B5034603490122E4
:1032100003480B7003F038FE012008BDDE120020C9
:1032200058150020844608B500230649012291F86C
:1032300000E005488CF800E00B7003F03FFE012031
:1032400008BD00BFDF12002058150020322310B443
:103250006FF00101002400FB03F3044A0120D36056
:1032600012685462116110BCD362704710150020BF
:103270000022024803685A6203F068B81015002063
:10328000014803F0BFB800BF10150020002370B53F
:103290008AB001ACCDE90633CDE90833C4E9013386
:1032A00005930193A381A0F164030646062B7ED803
:1032B000DFE803F0A77DB4B804A304005D4D0B78EC
:1032C0002A4605F5807C117999421BD11046517B25
:1032D0008DF804308DF81110D2F80510CDF80910D2
:1032E00050F8051B4FEA112E40688DF805108DF837
:1032F00006E04FEA114E090E8DF807E08DF8081030
:10330000CDF80D0010329445DDD19DF804202979C7
:1033100095F8E400994208BF1A46297D994208BFF2
:103320001A4695F82410994208BF1A4695F83410A9
:10333000994208BF1A4695F84410994208BF1A46A8
:1033400095F85410994208BF1A4695F864109942AE
:1033500008BF1A4695F87410994208BF1A4695F8A6
:103360008410994208BF1A4695F89410994208BFF4
:103370001A4695F8A410994208BF1A4695F8B41059
:10338000994208BF1A4695F8C410994208BF1A46D8
:1033900095F8D410994208BF1A46984208BF1A46B9
:1033A00095F8F410994218BF13468DF804308DF843
:1033B00017605A231426204D8DF815602A788DF851
:1033C00014308DF816200DF1180C94E80F00ACE8BD
:1033D00007000DEB0600ACF800300DF1260100F0FF
:1033E000C3FB2878FF230130287032460DEB06011D
:1033F000124803F0A7FC0AB070BD00220B780D4DF7
:1034000085E700230A78CDF805308DF80420CDF843
:103410000930CDF80D308DF81130C8E72046FDF7A2
:103420008BF8C4E700230A680393CDE90123ADF8C4
:103430001030BCE7D4000020E1130020A0150020CC
:1034400000232DE9F04FAE4CADB007A904F12C00DC
:10345000ADF81C3000F088FBE28FBDF81C309A42BA
:1034600002D02DB0BDE8F08F94F82F30643B062BCE
:10347000F7D8DFE813F03D0139014F01DB008B0085
:103480000D00070001226A209E49FFF7FFFEE8E7D2
:103490009D4D94F830302A799A4200F0AC812A7D13
:1034A00094F830309A4200F0FD8195F8242094F889
:1034B00030309A4200F0628295F8342094F830302F
:1034C0009A4200F04E8295F8442094F830309A42A7
:1034D00000F03A8295F8542094F830309A4200F087
:1034E000268295F8642094F830309A4200F01282D7
:1034F00095F8742094F830309A4200F0FE8195F8E7
:10350000842094F830309A4200F0E88195F89420B5
:1035100094F830309A4200F0D28195F8A42094F8C3
:1035200030309A4200F0AF8195F8B42094F83030F2
:103530009A4200F0998195F8C42094F830309A426C
:1035400000F0838195F8D42094F830309A4200F04E
:103550006D8195F8E42094F830309A4200F057815C
:1035600095F8F42094F830309A427FF47AAFD4F88A
:103570003130D5F8F0209A4218BFC5F8F03001225A
:10358000624994F82F00FFF781FE6AE75E4D6B7B7E
:10359000980700F122826B7F990700F1A08295F8CD
:1035A0002D309A0700F1948295F83D309B0700F189
:1035B000888295F84D309F0700F17C8295F85D3048
:1035C0009E0700F1708295F86D30980700F16482D3
:1035D00095F87D30990700F1588295F88D309A075B
:1035E00000F14C8295F89D309B0700F1118295F80F
:1035F000AD309F0700F1058295F8BD309E0700F1C0
:10360000F98195F8CD30980700F1ED8195F8DD301E
:10361000990700F1C78195F8ED309A0700F1BB8159
:1036200095F8FD309B077FF51CAFA8E7364D6A7F04
:103630006B7B970795F82D20C3F3400348BF0133F8
:10364000960795F83D2048BF0133940795F84D2023
:1036500048BF0133900795F85D2048BF01339107BB
:1036600095F86D2048BF0133920795F87D2048BF3B
:103670000133970795F88D2048BF0133960795F8D9
:103680009D2048BF0133940795F8AD2048BF013312
:10369000900795F8BD2048BF0133910795F8CD20DC
:1036A00048BF0133920795F8DD2048BF01339707E3
:1036B00095F8ED2048BF0133960795F8FD2048BFE7
:1036C000013394074FF0000448BF01330422672000
:1036D0000CA98DF830308DF831408DF832408DF8DE
:1036E0003340FFF7D3FDBCE60022094B1A70B8E661
:1036F0000122074964200A70FFF7C8FDB1E600BF48
:1037000084000020B4000020D4000020C801002064
:10371000E0130020C24BC349C34A0CAECDE90021DF
:103720000293C24AC24BC349304623F01BFE3046C7
:1037300023F0FEFE0022C04BCDE90822A3FB003996
:103740000A924FEA990AADF82C20C9F3870900289C
:1037500000F02F810AEB4A030AEB83034FEA4A0188
:10376000C51A059100F0C2810C2840F2E981B346E8
:1037700090460DF12107DBF8002046463A60DBF861
:10378000042094F82F007A60DBF8082008A9BA60BA
:103790009BF80C200BF10D0B3A7308F101025FFA54
:1037A00082F80E228DF82080FFF770FDC145E2D12E
:1037B000B31C63F07F03DBB2DDF814B08DF820306A
:1037C000D3440AEB8B0A0AF1B0030DEB030A5AF853
:1037D000803C94F82F00CDF821305AF87C3C08A9A1
:1037E0007B605AF8783CEAB2BB601AF8743C3B73D1
:1037F000FFF74CFD35E6D4F831302A689A4200D004
:103800002B60012269208D49FFF740FD47E6D4F87F
:103810003130D5F8E0209A4201D0C5F8E0300122DD
:10382000874994F82F00FFF731FD99E6D4F831303D
:10383000D5F8D0209A4201D0C5F8D0300122814974
:1038400094F82F00FFF722FD83E6D4F83130D5F845
:10385000C0209A4201D0C5F8C03001227A4994F8BC
:103860002F00FFF713FD6DE6D4F83130D5F8B02006
:103870009A4201D0C5F8B0300122744994F82F0063
:10388000FFF704FD57E6D4F83130D5F8A0209A426E
:1038900001D0C5F8A03001226D4994F82F00FFF740
:1038A000F5FC41E6D4F831302A699A4200D02B6108
:1038B0000122684994F82F00FFF7E8FCF5E5D4F8F9
:1038C0003130D5F890209A4201D0C5F890300122CD
:1038D000614994F82F00FFF7D9FC1EE6D4F8313087
:1038E000D5F880209A4201D0C5F8803001225B498A
:1038F00094F82F00FFF7CAFC08E6D4F831302A6F9D
:103900009A4200D02B670122554994F82F00FFF707
:10391000BDFCF4E5D4F831302A6E9A4200D02B6613
:103920000122504994F82F00FFF7B0FCE0E5D4F8ED
:1039300031302A6D9A4200D02B6501224A4994F811
:103940002F00FFF7A3FCCCE5D4F831302A6C9A4263
:1039500000D02B640122454994F82F00FFF796FC14
:10396000B8E5D4F831302A6B9A4200D02B6301229B
:103970003F4994F82F00FFF789FCA4E5D4F83130D3
:103980002A6A9A4200D02B6201223A4994F82F0009
:10399000FFF77CFC90E50122294994F82F00FFF7FE
:1039A00075FC3DE60122274994F82F00FFF76EFCD5
:1039B00031E68125304B08A918689A889B79CDF8A3
:1039C0002100ADF8252094F82F000E228DF8273025
:1039D0008DF82050FFF75AFC43E501226820291D8D
:1039E000FFF754FCD7E50122174994F82F00FFF7A1
:1039F0004DFC0BE60122154994F82F00FFF746FC19
:103A0000FFE50122124994F82F00FFF73FFCF3E590
:103A10000122114994F82F00FFF738FCE7E500BFB9
:103A200044DA020850DA02085CDA020808DA02080E
:103A3000ECD9020828DA02084FECC44ED800002066
:103A4000B8010020A8010020980100208801002072
:103A500078010020E80000206801002058010020C3
:103A60004801002038010020280100201801002012
:103A700008010020F80000206CDA02080122324917
:103A800094F82F00FFF702FCACE501222F4994F8CF
:103A90002F00FFF7FBFBA0E501222D4994F82F0032
:103AA000FFF7F4FB94E501222A4994F82F00FFF771
:103AB000EDFB88E50122284994F82F00FFF7E6FB8B
:103AC0007CE50122254994F82F00FFF7DFFB70E524
:103AD0000122234994F82F00FFF7D8FB64E5012267
:103AE000204994F82F00FFF7D1FB58E50C287FF60A
:103AF000B8AC2B460AF1FF3A0DF121079A450CBFED
:103B00006FF07F01002103EB430203EB82025D1C97
:103B1000B318B25894F82F003A605A687A609A68DD
:103B20001B7BBA603B730E2241EA050308A98DF89E
:103B30002030FFF7ABFBEAB291452B46DED890E48C
:103B400081230DF1210737E65801002048010020AC
:103B50003801002028010020180100200801002061
:103B6000F8000020E80000200022431E00F1110CA4
:103B700013F8010F9C450244FAD1130A0A704B70E6
:103B8000704700BF2DE9F8430446007840BB01238D
:103B900023706369A7681344BB42154603D9002309
:103BA0002370BDE8F883D4E90330834203D303EBE9
:103BB00002094F4517D360681844FCF7BDFCD4E9EF
:103BC00002132B44B3FBF1F601FB16336269207834
:103BD0002A446261E3600028E1D10120BDE8F88356
:103BE0000020BDE8F8830E466068A7EB0308424654
:103BF0001844FCF7A1FC6068A9EB070206EB08017A
:103C0000FCF79AFCDBE700BF2DE9F04F90F800903D
:103C10008DB0B9F1000F7DD1012342690746132A07
:103C2000CDE90799CDE909990092CDF82C90037060
:103C30005BD9016907ABD7E9010A53445B1A01F16B
:103C400014040293CAF100034E46CDF814909B462B
:103C50009146049101904518A4EB0A08039711E0DE
:103C6000AE469EF8003006F115025A2B05F101050B
:103C700006F1010308F101081CD0914504F101048B
:103C80004ED31E465445A4F11403E9D99A4532D2C5
:103C90000DF11C0E774605EB0B0C55F80B00DCF80C
:103CA0000410DCF80820DCF80C300FC7DCF810003A
:103CB0003860D6E7009B4FF00109143B9E1BB4FB14
:103CC000FAF3039FDEF80400DEF80810DEF80C209B
:103CD0000AFB1344DEF800303863FB627963BA6391
:103CE000DEF810303C61FB637E61002348463B7088
:103CF0000DB0BDE8F08F2946C8F1140207A8FCF703
:103D00001BFCDDE901134246981BFCF715FC0DF185
:103D10001C0EA6E74FF0000948460DB0BDE8F08F35
:103D20000099DDE903721A44CB1A7B61B2FBFAF306
:103D30000AFB1322DDF814903A61D6E70F4B00B569
:103D4000586983B040F0010058615B69002203F0BC
:103D50000103052101930C20019B00F02BFC0C209A
:103D600000F072FC0D200022052100F023FC0D2044
:103D700003B05DF804EB00F067BC00BF0010024028
:103D80002DE9F04300268BB0CDE90666CDE9086643
:103D9000464B03279E69464C46F040069E619E694D
:103DA000444D06F040060196019E9E69204646F06D
:103DB00010069E619E69012206F010060296029E80
:103DC0009E69582146F004069E619E694FF00108E5
:103DD00006F004060396039E9E694FF0030946F021
:103DE00008069E619E6906F008060496049E9E6978
:103DF00046F020069E614FF6FF769B6903F0200394
:103E00000593059B01F064F9012228464FF4805187
:103E100001F05EF906A92848CDE9066700F06CFFBD
:103E20004FF6A7720323204606A9CDE9062300F02A
:103E300063FF18220123204606A9CDE90623CDE918
:103E4000088900F059FF49F61312032306A91B48FD
:103E5000CDE9062300F050FF4EF6FF7203232846FB
:103E600006A9CDE9062300F047FF4FF48052012355
:103E7000284606A9CDE90623CDE9088900F03CFFD4
:103E800006A90F480225CDE9066700F035FF40225C
:103E900001232046012406A9CDE90845CDE90623E2
:103EA00000F02AFF0BB0BDE8F08300BF0010024015
:103EB00000100140000C01400018014000080140C2
:103EC0000014014000B583B001904FF6FF7301224A
:103ED00001A9034802F036FF019803B05DF804FB26
:103EE000A015002000230122D0B5012090B04FF48E
:103EF00080310224CDE90B33CDE90133CDE9033321
:103F0000089300930A9209934FF480324FF4E01320
:103F1000CDE9060106A8CDE90E230D9401F0F2F8D3
:103F200008B172B6FEE703460F260227002204936B
:103F30004FF4806321466846CDE90067CDE902234E
:103F400001F058FB08B172B6FEE710B0D0BD00BF5B
:103F500008B500F0DBFAFFF7C5FFFFF711FFFFF729
:103F6000EDFE00F021FA00F03BF800F0C9F900F096
:103F700037FA22F065F822F087F822F087FA044C2D
:103F8000204623F0B3F84FF47A7000F0E3FAF7E735
:103F900074DA02080D4A0368934207D00C4A12688B
:103FA0009A4200D070470B4B1B68184710B5044667
:103FB00000F0BEFA064A236812689A4200D010BD8B
:103FC000044BBDE810401B68184700BF002C01409F
:103FD00010150020C011002072B6FEE7704700BF28
:103FE00038B5082100234FF482754FF400740A227B
:103FF0000A48C0E90153C0E90333C0E90534C0E908
:104000000713C0E90933064BC262036001F01EFDCD
:1040100000B938BDBDE83840FFF7DEBF6C140020A2
:104020000030014070B50024334B026886B09A42DC
:10403000CDE90244CDE9044401D006B070BD03F5DA
:1040400060439A69054642F480529A619A692B4806
:1040500002F480520092009A9A69294E42F00402BA
:104060009A619B69A02203F0040301930199032143
:104070000223059102A9CDE9022300F03DFE402272
:1040800000231E4802A9CDE90223049400F034FE67
:10409000102280231B493046C6E90444C6E9064481
:1040A0003160B4607260F36000F0E2FAE8B90023B6
:1040B0008022154C15492046AE64C4E90133C4E999
:1040C0000323C4E9053375622160E36100F0D0FA8F
:1040D00070B9002205212320EC64656200F06AFAC1
:1040E000232000F0B1FA06B070BDFFF775FFDEE7E0
:1040F000FFF772FFEDE700BF00300140000801400C
:104100002814002030000240E41300201C0002406C
:104110000E4B82B09A690E4942F001029A619A6987
:1041200002F001020092009ADA6942F08052DA61EC
:10413000DB6903F080530193019B4B6823F0E0633C
:1041400043F000734B6002B0704700BF00100240A4
:104150000000014030B5014689B00022192000F06E
:1041600029FA192000F070FA154B01A99A6903A8E1
:1041700042F400629A619B6940F2E73503F4006300
:104180000293029B01F076FB01F064FB00220346E0
:104190000C4C0D49C4E90352A260A1FB03230B4858
:1041A0009B0C2060013B2046636001F0F3FF10B1DF
:1041B000012009B030BD204602F0C8F809B030BD7A
:1041C00000100240C414002083DE1B43002C014079
:1041D000FEE700BFFEE700BFFEE700BFFEE700BF4F
:1041E000FEE700BF704700BF014800F02FBC00BFD2
:1041F000E4130020014800F029BC00BF281400206F
:10420000014802F083BB00BFC4140020014802F043
:104210007DBB00BF10150020014801F027BF00BF83
:104220006C140020014802F0DDBF00BF58150020CB
:10423000014802F0D7BF00BFA01500200120704741
:1042400008B522F0D1FA162203464FF0FF301A606B
:1042500008BD00BF08B522F0C7FA16230360FEE7C9
:1042600070B5161E07DD0C468D19AFF3008004F8FB
:10427000010BA542F9D1304670BD00BF70B5161EC6
:1042800007DD0C468D1914F8010BFFF71BFEAC423D
:10429000F9D1304670BD00BF0C4A08B5034610681E
:1042A00028B1694603448B4208D8136008BD084909
:1042B00008461160694603448B42F6D922F094FA0D
:1042C0000C2203464FF0FF301A6008BD0C15002089
:1042D00080B900204FF0FF30704700BF4FF400530B
:1042E00000204B60704700BF0120704700207047DE
:1042F0004FF00062014B9A60704700BF00ED00E094
:1043000010B500234FF0804447213122164886B073
:10431000C0E90113C0E90323CDE90333046002932C
:10432000009383610593019301F034FF90B94FF43A
:1043300080530D4802A9029302F0A6F888B9002222
:10434000002369460848CDE9002302F089FB20B923
:1043500006B010BDFFF740FEE9E7FFF73DFE06B0EF
:1043600010BDFFF739FEEAE7101500200368B3F12E
:10437000804F00D0704703F50433D96900B541F090
:104380000101D961DB6983B003F0010301931C20B3
:1043900000220521019B00F00DF91C2003B05DF8FF
:1043A00004EB00F051B900BF00234FF4E1310C22BF
:1043B00010B50948094CC0E90113C0E90333C0E94D
:1043C00005230460C36102F03BFC00B910BDBDE8E9
:1043D0001040FFF701BE00BF581500200038014013
:1043E00000234FF4E1310C2210B50948094CC0E913
:1043F0000113C0E90333C0E905230460C36102F07F
:104400001FFC00B910BDBDE81040FFF7E5BD00BFBF
:10441000A015002000440040D0B50024374A0368AE
:1044200088B09342CDE90444CDE9064404D0344A2F
:10443000934233D008B0D0BD324B4FF400769A6926
:10444000022742F480429A619A6904A902F48042E8
:104450000092009A9A692C4842F004029A619B6982
:10446000CDE9046703F0040301930323019A079342
:1044700000F042FC00234FF4806204A92248CDE9F9
:104480000423069400F038FC22460521252000F084
:1044900091F8252000F0D8F808B0D0BD194B0426BB
:1044A000DA69022742F40032DA61DA6904A902F417
:1044B00000320292029A9A69134842F004029A6109
:1044C0009B69CDE9046703F0040303930323039A74
:1044D000079300F011FC0023082204A90A48CDE943
:1044E0000423069400F008FC22460521262000F053
:1044F00061F8262000F0A8F808B0D0BD00380140CF
:10450000004400400010024000080140074A08B57E
:104510001368032043F01003136000F02DF800200F
:10452000FFF718FEFFF7F4FD002008BD0020024051
:10453000034A044B11681B780B441360704700BF9B
:10454000E8150020D8010020014B1868704700BF13
:10455000E815002038B50446FFF7F6FF631C054652
:1045600002D0044B1B781C44FFF7EEFF401BA04217
:10457000FAD338BDD8010020C31E042B10B5044661
:104580000ED84FF6FF01094A2302D46803F4E06312
:104590000C40234343F0BF6343F40033D36010BDAA
:1045A00091210348FFF71AFDEBE700BF00ED00E0A3
:1045B00094DA02080F2A70B5164605460C4637D81D
:1045C0000F2C30D81D4BDB68C3F30223C3F1070067
:1045D000042803F1040228BF0420062A18D94FF04A
:1045E000FF32033B9A4026EA02064FF0FF3181403A
:1045F00024EA01049C40002D44EA06040BDB24015C
:1046000005F16045E4B205F5614585F8004370BDEC
:1046100000263346E9E70A4B05F00F052401E4B212
:104620002B441C7670BDAA210648FFF7D7FCC9E7CA
:10463000A9210448FFF7D2FCC2E700BF00ED00E06B
:10464000FCEC00E094DA0208002808DB012300F00B
:104650001F01054A40098B4042F820307047BD21B8
:104660000248FFF7BBBC00BF00E100E094DA02089B
:10467000002800F0B98003685C4A70B59342044694
:1046800025D01432934222D0143293421FD01432D8
:1046900093421CD01432934219D01432934216D054
:1046A0001432934213D002F5627293420FD0143247
:1046B00093420CD01432934209D01432934206D064
:1046C0001432934203D099214948FFF787FC63686D
:1046D00033F010025ED1A36833F0400365D1E36884
:1046E00033F0800369D1236933F4807202D0B3F5CB
:1046F000007F67D1636933F4806202D0B3F5006F45
:1047000069D1A36933F0200303D09F213848FFF714
:1047100065FCE06930F4405304D03548A021FFF730
:104720005DFCE0692168334B99422AD9324A334B08
:104730000A44A3FB0232324B120992004FF0020EE0
:1047400000254FF0010CE3632264D4E901321343E6
:10475000E26884F821E013432269666913430A681A
:104760003343A66922F47F5222F0300233431343CD
:1047700003430B60A56384F8205084F821C02846C9
:1047800070BD204A1D4B0A44A3FB023212091E4B86
:104790009200D3E7B3F5804F9DD09A211448FFF7DC
:1047A0001DFCA36833F0400399D09B211048FFF70C
:1047B00015FCE36833F0800395D09C210C48FFF78B
:1047C0000DFC90E79D210A48FFF708FC636933F46C
:1047D000806296D092E79E210548FFF7FFFBA36910
:1047E00033F0200395D090E7012070470800024085
:1047F000F0DA020807040240F8FBFDBFCDCCCCCCB8
:1048000000040240F8FFFDBF000002402DE9F04126
:104810004FF6FE751E46013BAB42044688461746DE
:1048200036D894F82030012B3BD0012194F8213068
:1048300084F820108B42DAB205D0002384F82030AF
:104840000220BDE8F081022384F82130002325688E
:10485000A363236C9A402B6823F001032B60E36B66
:104860005A6063686E60102BE36A0BBFAF60C5F8D7
:104870000880C5F80C80EF60B3B12B6843F00E03DD
:104880002B602B68002043F001032B60BDE8F08112
:104890004FF4B7710948FFF7A1FB94F82030012BC2
:1048A000C3D10220BDE8F0812B6823F004032B6004
:1048B0002B6843F00A032B60E3E700BFF0DA02083D
:1048C00090F821200346022A06D00421002201206C
:1048D000996383F82020704700B54FF0010E4FF028
:1048E000000C0268116821F00E011160116821F0BE
:1048F00001011160D0E90F120EFA02F24A6083F84A
:1049000021E083F820C060465DF804FB90F8212088
:104910000346022A03D0042201209A6370470268EA
:1049200010B51168454821F00E01116011688242EE
:1049300021F001011160424924D98A4258D0143132
:104940008A4261D014318A4260D014318A4256D0F2
:1049500014318A4263D014318A4266D082426AD0CE
:1049600001F567718A4243D014318A424CD0143128
:104970008A424BD014318A4214BF4FF480324FF434
:10498000805236E08A4222D014318A423AD0143121
:104990008A423ED014318A422ED014318A423BD012
:1049A00014318A423ED0824242D001F567718A4278
:1049B0000DD014318A4225D014318A4229D01431C5
:1049C0008A4214BF4FF480324FF4805200E001223B
:1049D0001C494A60012100245A6B83F8211083F896
:1049E00020401AB118469047204610BD104610BD11
:1049F000012215494A60EDE74FF48052E8E74FF491
:104A00008052F6E71022E3E71022F2E74FF48072BB
:104A1000EFE74FF48072DBE74FF48032D8E74FF4D2
:104A20008032E6E74FF48012D2E74FF48012E0E7DD
:104A30004FF08072CCE74FF08072DAE780000240DE
:104A4000080002400000024000040240042270B44A
:104A5000C66B016C346803688A4022421D6843D0EB
:104A60006A0741D51A68910603D41A6822F0040235
:104A70001A609C4A9C49934240F293808B4200F01A
:104A8000F18014318B4200F0F58014318B4200F03C
:104A9000E48014318B4200F0F88014318B4200F036
:104AA000008114318B4200F00581934200F00E81A9
:104AB00002F56272934200F0D5801432934200F006
:104AC000D9801432934200F0C8801432934214BF4C
:104AD0004FF480234FF48043844A5360C36A002B11
:104AE00040F0B28070BC704702228A4022423FD020
:104AF000AA073DD51A68910606D401211A6822F04A
:104B00000A021A6080F82110764A774993426FD9D9
:104B10008B4200F0A98014318B4200F0998014314F
:104B20008B4200F0A98014318B4200F0B180143127
:104B30008B4200F0BC8014318B4200F0C480934261
:104B400000F0CD8002F56272934200F08D80143245
:104B500093427DD01432934200F08E8014329342FF
:104B600014BF4FF400324FF40052604B5A6064E0BF
:104B700008228A402242B5D02A07B3D51A680024F9
:104B800022F00E021A600123026B03FA01F1716038
:104B9000836380F8204080F82130002AA2D070BCC6
:104BA00010478B425CD014318B4261D014318B4260
:104BB00050D014318B4265D014318B426ED01431F9
:104BC0008B427AD0934200F08480494A934247D086
:104BD000143293424CD0143293423BD0143293425D
:104BE00014BF4FF480234FF48043424A536075E76B
:104BF0008B423BD014318B4228D014318B423ED0B3
:104C000014318B4247D014318B424DD014318B423A
:104C100056D0934260D0364A934227D01432934202
:104C200014D0143293422AD01432934214BF4FF45A
:104C300000324FF400522F4B5A600022836A80F8F2
:104C40002020002B3FF44EAF70BC18472022F2E723
:104C500020228AE74FF48063C7E74FF480633BE785
:104C60000423C2E7042337E702227EE70222E2E7B9
:104C70004023BAE740232FE74FF4007275E74FF463
:104C80000072D8E74FF48043AFE74FF4804323E747
:104C90004FF4005269E74FF40052CCE74FF4802301
:104CA000A3E74FF4802317E74FF40032C3E74FF434
:104CB00000325AE74FF480030EE74FF4800394E785
:104CC0004FF40012B7E74FF400124EE74FF0806345
:104CD00002E74FF0806388E74FF00072ABE74FF0D8
:104CE000007242E7800002400800024000040240D7
:104CF00008040240000002402DE9F04FB24B064686
:104D000098420F4683B01BD003F58063984217D0BA
:104D100003F58063984213D003F5806398420FD067
:104D200003F5806398420BD003F58063984207D067
:104D300003F58063984203D0BD21A448FFF74EF9E4
:104D400039688BB223B10B0C1B04002B00F02A81B5
:104D5000BE219E48FFF742F97B68012B1AD9A3F1C7
:104D60001102012A16D99A1E012A13D9984923F44F
:104D700000128A420ED001F580118B420AD0A1F5B3
:104D800070218A4206D0934A934203D0BF218F48B4
:104D9000FFF724F93968002900F0DD804FF0000AA0
:104DA000894B5546DFF830B2DFF830928C4A04E088
:104DB000013531FA05F000F0CE800124AC4034EA30
:104DC000010004EA0108F3D19E421AD0964218D09D
:104DD00084498E4215D001F580618E4211D001F5D3
:104DE00080618E420DD001F580618E4209D001F5BF
:104DF00080618E4205D0CD217448FFF7EFF8784AE4
:104E0000714B7968122900F2A980122923D8DFE8B2
:104E100011F0B2000101FA001F012200220022005D
:104E20002200220022002200220022002200220072
:104E300022002200F300D300A0F58010814200F090
:104E40009A8000F57020814200F09580A0F58010D6
:104E5000814200F09080B8F1FF0F00F29780344655
:104E60004FEA850E0F2021680AFA0EFC00FA0EFEAA
:104E700021EA0E0141EA0C0121607968CC0040F181
:104E80008F80DBF8184005F0030C44F00104CBF8E8
:104E90001840DBF818404FEA8C0C04F00104019430
:104EA000019C25F0030404F1804404F58034D4F817
:104EB00008E000FA0CF09E422EEA00001DD0964257
:104EC00000F0BF80DFF81CE1764500F0B380DFF82A
:104ED00018E1764500F0D080DFF810E1764500F06B
:104EE000EA80DFF80CE176450CBF4FF0050E4FF07D
:104EF000060E0EFA0CFC40EA0C00A060D9F808007F
:104F0000CC024CBF40EA080020EA0800C9F80800BB
:104F1000D9F80C008C024CBF40EA080020EA0800D7
:104F2000C9F80C00D9F804008C034CBF40EA080013
:104F300020EA0800C9F8040011F4803FD9F80010F5
:104F40002AD041EA0801C9F800103968013531FA60
:104F500005F07FF432AF03B0BDE8F08F1D48814209
:104F600009D07FF669AF2348814204D000F5803034
:104F700081427FF470AFB968022973D800296AD1E1
:104F8000B8F1FF0F4FF0040A7FF669AF4FEA850EC4
:104F9000AEF1200E341D65E721EA0801C9F80010C2
:104FA000396805E77B68012B7FF6F8AEA3F11102A3
:104FB000012A3FF6D8AEEDE6F968481E022872D8FD
:104FC00001F10C0A47E700BF000801404CDB020872
:104FD00000001110000022100010024000040140E7
:104FE000000C014000100140001401400018014075
:104FF000001C014000003110F968481E02284AD800
:1050000001F1040A27E7F968481E02283BD801F19C
:10501000080A20E7D7F80CA00AF1FF3102297FF631
:105020001AAFD5212748FEF7D9FFD7F80CA0264B99
:10503000264A10E74FF0020E0EFA0CFC40EA0C0074
:105040005BE74FF0010E0EFA0CFC40EA0C0054E74F
:105050004FF0000AFFE601294FF0080A0CBF346147
:105060007461F8E6F7211748FEF7B8FFB968174AE8
:10507000154B002984D0EEE74FF0030E0EFA0CFC1E
:1050800040EA0C0039E7E3210E48FEF7A7FFF96874
:105090000E4A0D4BBBE7DC210A48FEF79FFFF9687B
:1050A0000A4A094BACE7EA210648FEF797FFF96880
:1050B000064A054B84E74FF0040E0EFA0CFC40EA5A
:1050C0000C001AE74CDB020800080140000C01400C
:1050D00070B506460C46154661B1012D03D805B9D9
:1050E0002404346170BD40F2D5110548FEF776FF07
:1050F000346170BD4FF4EA710148FEF76FFFECE7D1
:105100004CDB0208002800F05A822DE9F0410368C8
:10511000044682B0002B00F084801E0700F0C58199
:10512000DD0734D5636833F4803203D0B3F5A02FA4
:1051300040F09D819F4A536803F00C03042B1DD05F
:10514000536803F00C03082B15D06368B3F5803F58
:1051500000F07A81002B00F0AF81B3F5A02F00F0B2
:105160000882944B1A6822F480321A601A6822F47A
:1051700080221A606DE15368D803E6D58D4B1B6819
:10518000990303D56368002B00F0778123689F079C
:105190001ED52369012B00F2198163691F2B00F2D0
:1051A0001E81844B5A6812F00C0F40F0DE80814B58
:1051B0001B689D0703D52369012B40F05E817D4A62
:1051C0006169136823F0F80343EAC103136023689D
:1051D0001A0726D5A369012B00F21881002B00F0D5
:1051E00004810122744B734EC3F88024FFF7ACF99D
:1051F000054605E0FFF7A8F9401B022800F251819F
:10520000736A9B07F6D56D4B6D4A1B68A2FB03239F
:105210005B0A019300BF019B5A1E0192002BF9D13A
:1052200023685D073FD5E368012B06D9052B04D021
:1052300040F20F216348FEF7D1FE5E4BDA69D000E1
:1052400040F1ED800025604E3368D90540F11981A9
:10525000E368012B0FD0002B00F04481052B554B48
:105260001A6A00F0938122F001021A621A6A22F08F
:1052700004021A6204E04F4A136A43F00103136206
:10528000FFF762F941F2883806464A4F05E0FFF71A
:105290005BF9801B404500F204813B6A9B07F6D511
:1052A000002D40F06081E069022800F2C3800028F0
:1052B00057D0404D6B6803F00C03082B00F043817E
:1052C000022840F06B81236A33F4803304D040F22B
:1052D000B6213C48FEF782FE636A33F4402223F491
:1052E000802110D0B2F5801F0DD0B2F5001F0AD07A
:1052F000B1F5401F07D0B3F5601F04D040F2B721CD
:105300003048FEF76BFE00222B4B2A4E1A66FFF741
:105310001BF9054605E0FFF717F9401B022800F2CC
:10532000C08033689901F6D4226AB2F5803F00F05C
:10533000488101201F4D616A6B6823F474130B438D
:105340001D4913436B600866FFF7FEF8044605E04D
:10535000FFF7FAF8001B022800F2A3802B689A01DD
:10536000F6D5002002B0BDE8F0815A6802F00C02C8
:10537000082A00F0E3802369002B00F0CE80012290
:105380000D4B0C4E1A60FFF7DFF8054605E0FFF7FE
:10539000DBF8401B022800F2848033689807F6D5BA
:1053A0003368626923F0F80343EAC2033360236879
:1053B0000EE700BF0010024000004242D40100206E
:1053C000D34D6210A8DB02080070004040F29F112C
:1053D0008548FEF703FE63691F2B7FF6E2AE4FF4AC
:1053E000D0718148FEF7FAFDDBE6804A804EC2F8B4
:1053F0008034FFF7A9F8054604E0FFF7A5F8401B45
:1054000002284ED8736A9F07F7D409E74FF4F0716A
:105410007548FEF7E3FDA369002BE6D0E1E6DA6903
:10542000012542F08052DA61DB6903F0805300937A
:10543000009B08E76C4840F2AD21FEF7CFFDE06924
:1054400000287FF436AF8CE7694A136843F4803351
:105450001360FFF779F8664E054604E0FFF774F82D
:10546000401B64281DD833689A03F7D58EE640F2B6
:105470006B115D48FEF7B2FD5CE6012002B0BDE8AD
:10548000F081336843F480733360FFF75DF80746BB
:105490003368DA053FF5DCAEFFF756F8C01B642829
:1054A000F6D9032002B0BDE8F08140F265114E4804
:1054B000FEF794FD236833E64D4D2B6823F48033CB
:1054C0002B602B6823F480232B60FFF73DF8064602
:1054D00004E0FFF739F8801B6428E2D82B689B03AF
:1054E000F7D453E6424E41F28838336A23F0010381
:1054F0003362336A23F004033362FFF725F807466B
:1055000004E0FFF721F8C01B4045CAD8336A98076A
:10551000F7D4002D3FF4C7AE25E0344A344E136073
:10552000FFF712F8054604E0FFF70EF8401B0228CB
:10553000B7D833689907F7D4236849E65B68DE0378
:105540003FF519AF33E601283FF40CAF6B68226AD0
:1055500003F48031914290D1606A03F47013181AF9
:1055600018BF0120FEE6224AD36923F08053D3619D
:1055700099E603F18043A3F53C331A6842F4802294
:105580001A601A6842F480321A6062E742F004023C
:105590001A621A6A42F001021A6271E60022134B83
:1055A0001A66FEF7D1FF044605E0FEF7CDFF001BAB
:1055B00002283FF676AF2B689B01F6D4D1E6012096
:1055C0007047A16831F4003306D040F2CD2106487F
:1055D000FEF704FDA168226A0548436823F40033FE
:1055E0000B434360A5E600BFA8DB0208000042426F
:1055F00000100240002800F0F68003682DE9F04119
:105600001B0704460D4600F0D380022D00F2CA802D
:105610007E4A136803F00703AB420CD2136823F0F1
:1056200007032B431360136803F00703AB4202D058
:105630000120BDE8F08123689F072CD55E0704D5C3
:1056400073494A6842F4E0624A60180704D5704919
:105650004A6842F460524A60A16831F0800214D076
:1056600021F02002902A10D021F04002A02A0CD074
:1056700021F01002C02A08D0F02906D040F25D3196
:105680006448FEF7ABFCA16823686148426822F0D9
:10569000F0020A434260D90726D56368022B00F264
:1056A000A8805B4A012B126800F09F80022B00F05B
:1056B00096809607BCD5564E41F28838726822F023
:1056C000030213437360FEF73FFF074605E0FEF752
:1056D0003BFFC01B404500F293807368626803F093
:1056E0000C03B3EB820FF2D1484A136803F00703AF
:1056F000AB4209D9136823F007032B4313601368E7
:1057000003F00703AB4293D12368580718D5E1682B
:1057100031F480620ED021F40072B2F5A06F09D08E
:10572000B1F5C06F06D040F2A2313A48FEF756FC00
:10573000E16823683648426822F4E0620A43426026
:10574000190718D5226932F480630DD022F4007352
:10575000B3F5A06F08D0B2F5C06F05D040F2A93103
:105760002C48FEF73BFC226929494B6823F460531F
:1057700043EAC2034B6026494A6802F00C03082B37
:105780001CD0254B224A254852682549C2F30312F2
:10579000805C244AC34008681360FEF7DBFC0020ED
:1057A000BDE8F08140F237311A48FEF717FC2FE7C9
:1057B00040F236311748FEF711FC26E71A48C2F3CB
:1057C0008343D203C35C1DD513484A6800FB03F32F
:1057D0001649C2F340428A5CB3FBF2F3D2E7970169
:1057E0003FF569AF24E70120704792033FF563AFAF
:1057F0001EE74FF459710748FEF7F0FB636850E766
:10580000032016E70A4A02FB03F3BBE7002002402D
:1058100000100240A8DB020800127A007CDA0208BD
:10582000DC010020D401002004DC020814DC0208A2
:1058300000093D00044B054A5B680549C3F3022398
:10584000CB5C1068D840704700100240D4010020A3
:105850008CDA0208044B054A5B680549C3F3C2238E
:10586000CB5C1068D840704700100240D401002083
:105870008CDA020838B504460D46D0B105B30F22C4
:10588000124B22605A68124902F0030262605A68A1
:1058900002F0F002A2605A6802F4E062E2605B6823
:1058A000DB0803F4E06323610B6803F007032B605C
:1058B00038BD40F221510748FEF790FB002DDED1A4
:1058C00040F222510348FEF789FBD8E7001002405E
:1058D00000200240A8DB02082DE9F0411D461646D3
:1058E00082B00C460746FEF72FFE35442D1AFEF710
:1058F0002BFE8046264B1B68C3F3CB3305FB03F31B
:105900000193731C396807D18B6834EA0303FBD019
:10591000002002B0BDE8F0818B6834EA0303F7D1C0
:10592000FEF712FEA0EB0803AB4207D2019B002B4F
:10593000019B08BF0025013B0193E2E7D7E9003155
:105940005A68B1F5827F22F0E0025A6014D0BA6A38
:10595000B2F5005F07D001220023032087F8512011
:1059600087F85030D5E71A6822F400521A601A6896
:1059700042F400521A60EEE7BA68B2F5004F02D066
:10598000B2F5806FE3D11A6822F040021A60DEE7B8
:10599000D401002070B50C4682B00646FEF7D4FD57
:1059A0006434241AFEF7D0FD274B32681B68C3F31A
:1059B000CB3304FB03F3019393681A0627D50546FE
:1059C0000AE0019A019B3168013B01938B68002A30
:1059D00008BF00241B061AD5FEF7B6FD431BA342E1
:1059E000EFD3D6E900315A68B1F5827F22F0E002A8
:1059F0005A6018D0B26AB2F5005F0BD001220023C2
:105A0000032086F8512086F8503002B070BD002087
:105A100002B070BD1A6822F400521A601A6842F48B
:105A200000521A60EAE7B268B2F5004F02D0B2F550
:105A3000806FDFD11A6822F040021A60B26AB2F5B4
:105A4000005FDBD1E6E700BFD4010020002800F0B2
:105A5000E080F8B5774A0368044693420CD0A2F57B
:105A60007842934208D002F58062934204D04FF40A
:105A7000AB717148FEF7B2FA63683BB1B3F5827F50
:105A800004D040F257116C48FEF7A8FAA36833F42B
:105A9000806273D1E36833F400637BD1A36933F48C
:105AA000007203D0B3F5802F40F0A880E36933F093
:105AB000180306D0202B04D040F25B115E48FEF79D
:105AC0008DFA236A33F080036AD1636A002B6FD1A9
:105AD000236933F0020340F08B806369012B04D902
