:020000040801F1
:10000000000001201D4A0108B9180108BB180108A9
:10001000BD180108BF180108C11801080000000040
:10002000000000000000000000000000654A010818
:10003000C318010800000000654A0108654A01086C
:10004000654A0108654A0108654A0108654A0108D0
:10005000654A0108654A0108654A0108654A0108C0
:10006000654A0108654A0108654A0108654A0108B0
:10007000C5180108D5180108654A0108654A010834
:10008000654A0108654A0108654A0108654A010890
:10009000654A0108654A0108654A0108654A010880
:1000A000654A0108E5180108654A0108654A010822
:1000B000F5180108654A0108654A0108654A010802
:1000C000654A0108654A0108654A010805190108E1
:1000D000654A01081519010825190108654A010832
:1000E000654A0108654A0108654A0108654A010830
:1000F000654A0108654A0108654A0108654A010820
:10010000654A0108654A0108654A0108654A01080F
:10011000654A0108654A0108654A0108654A0108FF
:10012000654A0108654A0108654A0108654A0108EF
:1001300000000000000000000000000000000000BF
:1001400000000000000000000000000000000000AF
:10015000000000000000000000000000000000009F
:10016000000000000000000000000000000000008F
:10017000000000000000000000000000000000007F
:10018000000000000000000000000000000000006F
:10019000000000000000000000000000000000005F
:1001A000000000000000000000000000000000004F
:1001B000000000000000000000000000000000003F
:1001C000000000000000000000000000000000002F
:1001D000000000000000000000000000000000001F
:0401E0005FF8E0F1F3
:1001E80010B5054C237833B9044B13B10448AFF369
:1001F80000800123237010BD680A00200000000061
:10020800C4AB010808B5034B1BB103490348AFF35E
:10021800008008BD000000006C0A0020C4AB010883
:1002280053B94AB9002908BF00281CBF4FF0FF3155
:100238004FF0FF3000F076B9ADF1080C6DE904CE4F
:1002480000F006F8DDF804E0DDE9022304B07047A9
:100258002DE9F047089E0D4604468846002B4DD1EF
:100268008A42944668D9B2FA82F252B101FA02F38C
:10027800C2F1200120FA01F10CFA02FC41EA03085C
:1002880094404FEA1C41B8FBF1F71FFA8CFE01FBC2
:10029800178807FB0EF0230C43EA084398420AD953
:1002A8001CEB030307F1FF3580F01E81984240F2F2
:1002B8001B81023F63441B1AB3FBF1F001FB1033AF
:1002C80000FB0EFEA4B244EA0344A6450AD91CEB7F
:1002D800040400F1FF3380F00981A64540F206814D
:1002E800644402380021A4EB0E0440EA07401EB122
:1002F8000023D440C6E90043BDE8F0878B4208D903
:10030800002E00F0EE800021C6E900050846BDE891
:10031800F087B3FA83F100294AD1AB4202D3824273
:1003280000F2FC80841A65EB030301209846002E36
:10033800E2D0C6E90048DFE702B9FFDEB2FA82F28E
:10034800002A40F09180A1EB0C0001214FEA1C47E4
:100358001FFA8CFEB0FBF7F307FB1300250C45EAE8
:1003680000450EFB03F0A84208D91CEB050503F174
:10037800FF3802D2A84200F2CE8043462D1AB5FBC0
:10038800F7F007FB10550EFB00FEA4B244EA054443
:10039800A64508D91CEB040400F1FF3502D2A64596
:1003A80000F2B6802846A4EB0E0440EA03409EE71C
:1003B800C1F120078B4022FA07FC4CEA030C25FA0E
:1003C80007FA4FEA1C49BAFBF9F820FA07F309FBC8
:1003D80018AA8D401FFA8CFE1D4300FA01F308FB92
:1003E8000EF02C0C44EA0A44A04202FA01F20BD99E
:1003F8001CEB040408F1FF3A80F08880A04240F228
:100408008580A8F102086444241AB4FBF9F009FBBA
:10041800104400FB0EFEADB245EA0444A64508D9D7
:100428001CEB040400F1FF356CD2A6456AD90238EA
:10043800644440EA0840A0FB0295A4EB0E04AC42D9
:10044800C846AE4656D353D0002E69D0B3EB080247
:1004580064EB0E0422FA01F304FA07F71F43CC40B9
:10046800C6E90074002147E70CFA02FCC2F120013A
:1004780025FA01F34FEA1C4720FA01F195400D4394
:10048800B3FBF7F107FB11331FFA8CFE280C40EA87
:10049800034001FB0EF3834204FA02F408D91CEB73
:1004A800000001F1FF382FD283422DD90239604470
:1004B800C01AB0FBF7F307FB1300ADB245EA0045DD
:1004C80003FB0EF0A84208D91CEB050503F1FF3821
:1004D80016D2A84214D9023B6544281A43EA0141BE
:1004E80038E73146304607E72F46E4E61846F9E68E
:1004F8004B45A9D2B9EB020865EB0C0E0138A3E70E
:100508004346EAE7284694E74146D1E7D0467BE7E9
:100518006444023847E7023B65442FE7084606E78C
:100528003146E9E6704700BF844641EA000313F00C
:10053800030349D1403A23D30B6803604B684360F7
:100548008B688360CB68C3600B6903614B69436147
:100558008B698361CB69C3610B6A03624B6A43622F
:100568008B6A8362CB6AC3620B6B03634B6B436317
:100578008B6B8363CB6BC36340304031403ADBD233
:1005880030320BD30B6803604B6843608B68836021
:10059800CB68C36010301031103AF3D20C3205D357
:1005A80051F8043B40F8043B043AF9D2043208D02D
:1005B800D2071CBF11F8013B00F8013B01D30B889F
:1005C80003806046704700BF082A13D38B07B1D059
:1005D80010F00303AED0C3F10403D21ADB071CBF2B
:1005E80011F8013B00F8013BA4D331F8023B20F895
:1005F800023B9FE7043AD9D3013A11F8013B00F8CE
:10060800013BF9D20B7803704B7843708B78837079
:100618006046704781F0004102E000BF83F000436C
:1006280030B54FEA41044FEA430594EA050F08BF85
:1006380090EA020F1FBF54EA000C55EA020C7FEA49
:10064800645C7FEA655C00F0E2804FEA5454D4EBC6
:100658005555B8BF6D420CDD2C4480EA020281EA90
:10066800030382EA000083EA010180EA020281EAC8
:100678000303362D88BF30BD11F0004F4FEA01311A
:100688004FF4801C4CEA113102D0404261EB410129
:1006980013F0004F4FEA03334CEA133302D05242AF
:1006A80063EB430394EA050F00F0A780A4F101046B
:1006B800D5F1200E0DDB02FA0EFC22FA05F28018A5
:1006C80041F1000103FA0EF2801843FA05F359418B
:1006D8000EE0A5F120050EF1200E012A03FA0EFC0A
:1006E80028BF4CF0020C43FA05F3C01851EBE37134
:1006F80001F0004507D54FF0000EDCF1000C7EEB51
:1007080000006EEB0101B1F5801F1BD3B1F5001F8E
:100718000CD349085FEA30004FEA3C0C04F10104AD
:100728004FEA445212F5800F80F09A80BCF1004FD6
:1007380008BF5FEA500C50F1000041EB045141EA58
:10074800050130BD5FEA4C0C404141EB0101013C21
:1007580028BFB1F5801FE9D291F0000F04BF014610
:100768000020B1FA81F308BF2033A3F10B03B3F1E2
:1007780020020CDA0C3208DD02F1140CC2F10C0272
:1007880001FA0CF021FA02F10CE002F11402D8BFD0
:10079800C2F1200C01FA02F120FA0CFCDCBF41EA9C
:1007A8000C019040E41AA2BF01EB0451294330BD6B
:1007B8006FEA04041F3C1CDA0C340EDC04F1140448
:1007C800C4F1200220FA04F001FA02F340EA03001F
:1007D80021FA04F345EA030130BDC4F10C04C4F165
:1007E800200220FA02F001FA04F340EA0300294645
:1007F80030BD21FA04F0294630BD94F0000F83F48F
:10080800801306BF81F480110134013D4EE77FEA71
:10081800645C18BF7FEA655C29D094EA050F08BFBD
:1008280090EA020F05D054EA000C04BF194610469E
:1008380030BD91EA030F1EBF0021002030BD5FEAE2
:10084800545C05D14000494128BF41F0004130BD0A
:1008580014F580043CBF01F5801130BD01F000455E
:1008680045F0FE4141F470014FF0000030BD7FEAD1
:10087800645C1ABF194610467FEA655C1CBF0B46CC
:10088800024650EA013406BF52EA033591EA030FE3
:1008980041F4002130BD00BF90F0000F04BF0021DB
:1008A800704730B54FF4806404F132044FF000050E
:1008B8004FF0000150E700BF90F0000F04BF002187
:1008C800704730B54FF4806404F1320410F00045ED
:1008D80048BF40424FF000013EE700BF42004FEAE8
:1008E800E2014FEA31014FEA02701FBF12F07F4365
:1008F80093F07F4F81F06051704732F07F4208BF1C
:10090800704793F07F4F04BF41F40021704730B522
:100918004FF4607401F0004521F000411CE700BF6E
:1009280050EA010208BF704730B54FF000050AE0F1
:1009380050EA010208BF704730B511F0004502D5F2
:10094800404261EB41014FF4806404F132045FEAF4
:10095800915C3FF4D8AE4FF003025FEADC0C18BF9D
:1009680003325FEADC0C18BF033202EBDC02C2F18F
:10097800200300FA03FC20FA02F001FA03FE40EA21
:100988000E0021FA02F11444BDE600BF70B54FF025
:10099800FF0C4CF4E06C1CEA11541DBF1CEA135503
:1009A80094EA0C0F95EA0C0F00F0DEF82C4481EA6B
:1009B800030621EA4C5123EA4C5350EA013518BF8B
:1009C80052EA033541F4801143F4801338D0A0FB78
:1009D80002CE4FF00005E1FB02E506F00042E0FB25
:1009E80003E54FF00006E1FB03569CF0000F18BF2B
:1009F8004EF0010EA4F1FF04B6F5007F64F54074D3
:100A080004D25FEA4E0E6D4146EB060642EAC62165
:100A180041EA55514FEAC52040EA5E504FEACE2ED2
:100A2800B4F1FD0C88BFBCF5E06F1ED8BEF1004FD5
:100A380008BF5FEA500E50F1000041EB045170BD51
:100A480006F0004646EA010140EA020081EA030195
:100A5800B4EB5C04C2BFD4EB0C0541EA045170BD91
:100A680041F480114FF0000E013C00F3AB8014F10B
:100A7800360FDEBF002001F0004170BDC4F1000454
:100A8800203C35DA0C341BDC04F11404C4F12005D5
:100A980000FA05F320FA04F001FA05F240EA020030
:100AA80001F0004221F0004110EBD37021FA04F666
:100AB80042EB06015EEA430E08BF20EAD37070BD20
:100AC800C4F10C04C4F1200500FA04F320FA05F07F
:100AD80001FA04F240EA020001F0004110EBD37081
:100AE80041F100015EEA430E08BF20EAD37070BDF1
:100AF800C4F1200500FA05F24EEA020E20FA04F3CA
:100B080001FA05F243EA020321FA04F001F0004178
:100B180021FA04F220EA020000EBD3705EEA430EE9
:100B280008BF20EAD37070BD94F0000F0FD101F018
:100B38000046400041EB010111F4801F08BF013C51
:100B4800F7D041EA060195F0000F18BF704703F08F
:100B58000046520043EB030313F4801F08BF013D16
:100B6800F7D043EA0603704794EA0C0F0CEA1355D2
:100B780018BF95EA0C0F0CD050EA410618BF52EA8C
:100B88004306D1D181EA030101F000414FF0000092
:100B980070BD50EA410606BF1046194652EA4306A0
:100BA80019D094EA0C0F02D150EA013613D195EA14
:100BB8000C0F05D152EA03361CBF104619460AD15C
:100BC80081EA030101F0004141F0FE4141F4700166
:100BD8004FF0000070BD41F0FE4141F4780170BD56
:100BE80070B54FF0FF0C4CF4E06C1CEA11541DBFBB
:100BF8001CEA135594EA0C0F95EA0C0F00F0A7F8BD
:100C0800A4EB050481EA030E52EA03354FEA0131E9
:100C180000F088804FEA03334FF0805545EA1313FC
:100C280043EA12634FEA022245EA111545EA1065C4
:100C38004FEA00260EF000419D4208BF964244F15B
:100C4800FD0404F5407402D25B084FEA3202B61A7A
:100C580065EB03055B084FEA32024FF480104FF44E
:100C6800002CB6EB020E75EB030E22BFB61A7546C2
:100C780040EA0C005B084FEA3202B6EB020E75EB55
:100C8800030E22BFB61A754640EA5C005B084FEABD
:100C98003202B6EB020E75EB030E22BFB61A75468A
:100CA80040EA9C005B084FEA3202B6EB020E75EB95
:100CB800030E22BFB61A754640EADC0055EA060E56
:100CC80018D04FEA051545EA16754FEA06164FEA99
:100CD800C30343EA52734FEAC2025FEA1C1CC0D145
:100CE80011F4801F0BD141EA00014FF000004FF0D2
:100CF800004CB6E711F4801F04BF01430020B4F193
:100D0800FD0C88BFBCF5E06F3FF6AFAEB5EB030C4A
:100D180004BFB6EB020C5FEA500C50F1000041EB47
:100D2800045170BD0EF0004E4EEA113114EB5C0414
:100D3800C2BFD4EB0C0541EA045170BD41F48011E7
:100D48004FF0000E013C90E645EA060E8DE60CEAEF
:100D5800135594EA0C0F08BF95EA0C0F3FF43BAF0C
:100D680094EA0C0F0AD150EA01347FF434AF95EAC3
:100D78000C0F7FF425AF104619462CE795EA0C0FA7
:100D880006D152EA03353FF4FDAE1046194622E774
:100D980050EA410618BF52EA43067FF4C5AE50EA4E
:100DA80041047FF40DAF52EA43057FF4EBAE12E73E
:100DB8004FF0FF3C06E000BF4FF0010C02E000BF1F
:100DC8004FF0010C4DF804CD4FEA410C7FEA6C5C02
:100DD8004FEA430C18BF7FEA6C5C1BD001B050EAA5
:100DE800410C0CBF52EA430C91EA030F02BF90EA90
:100DF800020F0020704710F1000F91EA030F58BF4F
:100E0800994208BF90422CBFD8176FEAE37040F0B0
:100E1800010070474FEA410C7FEA6C5C02D150EA4E
:100E2800013C07D14FEA430C7FEA6C5CD6D152EA09
:100E3800033CD3D05DF8040B704700BF84461046CE
:100E480062468C461946634600E000BF01B5FFF7CD
:100E5800B7FF002848BF10F1000F01BD4DF808ED9D
:100E6800FFF7F4FF0CBF012000205DF808FB00BF6E
:100E78004DF808EDFFF7EAFF34BF012000205DF8C8
:100E880008FB00BF4DF808EDFFF7E0FF94BF012015
:100E980000205DF808FB00BF4DF808EDFFF7CEFF16
:100EA80094BF012000205DF808FB00BF4DF808ED55
:100EB800FFF7C4FF34BF012000205DF808FB00BF26
:100EC8004FEA410C7FEA6C5C02D150EA013C0AD13E
:100ED8004FEA430C7FEA6C5C02D152EA033C02D130
:100EE8004FF0000070474FF0010070474FEA410291
:100EF80012F5001215D211D56FF47873B3EB625264
:100F080012D94FEAC12343F0004343EA505311F08A
:100F1800004F23FA02F018BF404270474FF000001C
:100F2800704750EA013005D111F0004008BF6FF05A
:100F3800004070474FF00000704700BFC2788378C8
:100F48001B0443EA0263427843EA02230078184309
:100F580070470870030A4B70030C8B70000EC87042
:100F68007047000008B50A46FF230146014803F010
:100F78005DFA08BD0C0E0020F0B58BB006460D4694
:100F8800002305930693079308930993019302930B
:100F98000393ADF81030A0F16403062B11D8DFE8F5
:100FA80003F0041032375E6E5E002B788DF8043043
:100FB8000023CDF80530CDF80930CDF80D308DF887
:100FC80011305A238DF8143014258DF815502D4FF3
:100FD8003B788DF816308DF8176006AC01AB0FCB57
:100FE80007C423800DF126010DEB050000F0C5F9BB
:100FF8003B7801333B702A4629460DEB0500FFF785
:10100800B1FF0BB0F0BD294601A8FFF78DFAD8E76C
:101018002B680193002302930393ADF81030D0E7B7
:101028000134E4B2052C2AD82001174B03EB04172E
:1010380039792A789142F3D18DF804207A7B8DF89A
:1010480011200DF105011858FFF783FFD7F8052087
:10105800D7F80930CDF80920CDF80D30E0E70024A5
:10106800E0E70133DBB2052BABD8074A02EB0312EA
:1010780011792A789142F4D18DF80420F1E7002300
:10108800F1E700BF4C0C00205000002008B50023F9
:101098001A4601E00133DBB2052B15D84FEA031ECF
:1010A8000C4901EB031090F80DC01CF0040FF1D0AF
:1010B80090F804C0084800F832C051F80E1000EB50
:1010C800C20041600132E5E7D2000349034803F05A
:1010D80027FC08BD500000209C0A002000F80308E7
:1010E8002DE9F04387B00023ADF81430964C05A9DC
:1010F80004F12C0000F041F9022205A904F13E0098
:1011080003F0B8FF98B994F82F00A0F16403062BF8
:101118000DD8DFE813F007000F001B00C900EC0032
:1011280012011401894901220A70FFF725FF07B04F
:10113800BDE8F083FFF7AAFF0021844B19700A4627
:10114800814B93F82F00FFF717FFF0E7804804F072
:101158001BF9804EA6FB0036B708C6F3870607EBD7
:10116800470407EB8404041BE4B2002301930293B1
:101178000393ADF8103020B10025002C7ED0002458
:1011880036E081238DF80430734B1868CDF80500DC
:101198009A889B79ADF809208DF80B300E2201A9A9
:1011A800694B93F82F00FFF7E7FE0125E5E76B1C75
:1011B800DDB203F07F038DF8043004EB440304EB45
:1011C80083036349CA18C85851689368CDF8050065
:1011D800CDF80910CDF80D30137B8DF811300E22A3
:1011E80001A9594B93F82F00FFF7C6FE0134E4B26A
:1011F800B442DCD3013565F07F058DF80450FFB2A9
:1012080007EB470307EB8307514AD319D0595968AD
:101218009A68CDF80500CDF80910CDF80D201B7B94
:101228008DF811300E2201A9474B93F82F00FFF7D4
:10123800A3FE7CE76FF07F026B1CDDB203F07F0337
:1012480013438DF8043004EB440304EB8303404953
:10125800CA18C85851689368CDF80500CDF8091028
:10126800CDF80D30137B8DF811300E2201A9364BC5
:1012780093F82F00FFF780FE0134E4B2B442BFF4C4
:1012880056AFFBB2013B9C42D4D00022D4E70133D5
:10129800DBB2052B0BD8314A02EB0312527B12F05A
:1012A800020FF4D00130F2E700231846F1E701A954
:1012B800FFF74FFE04220DEB0201234B93F82F009A
:1012C800FFF75AFE33E70134E4B2052C3FF62FAF9F
:1012D800224901EB04114B7B13F0020FF3D00122DA
:1012E8000431194B93F82F00FFF746FEEBE7002473
:1012F800EBE70122311D144B93F82F00FFF73CFE5A
:101308000134E4B2052C3FF612AF4FEA0418134D2E
:1013180005EB041637790C4B93F830309F42EFD128
:1013280055F808900E48FFF709FE8145E1D045F8C9
:1013380008000C4B0122DA55DBE70024E2E7012222
:101348000949FFF719FEF2E600000020900A002084
:10135800CC0B00204FECC44EE0AB0108500000203D
:1013680031000020940A00203000002003788B42CE
:1013780000D0017070470078704700231A4604E0D7
:1013880010F803C062440133DBB2112BF8D90023F3
:1013980005E0D80022FA00F0C8540133DBB2012B73
:1013A800F7D970472DE9F04104460F461546FFF777
:1013B800E2FF18B100263046BDE8F081064601215B
:1013C8002046FFF7D3FF63692B44A268934218D8DD
:1013D800E36821698B422AD359198A4216D3606877
:1013E8002A4639461844FFF79FF8E3682B44A26859
:1013F800B3FBF2F102FB1133E36063692B446361D1
:10140800012600212046FFF7B1FFD4E7A2EB03082D
:101418009A1A56196068424639461844FFF784F804
:10142800324607EB08016068FFF77EF8DDE7606881
:101438002A4639461844FFF777F8D6E700B583B04F
:101448000E4B5A6942F001025A615B6903F00103CD
:101458000193019B002205210C2000F00BFC0C20BD
:1014680000F04EFC002205210D2000F003FC0D20A9
:1014780000F046FC03B05DF804FB00BF001002401A
:101488002DE9F0418AB00023069307930893099346
:1014980003F1804303F504339A6942F040029A61EC
:1014A8009A6902F040020192019A9A6942F0100288
:1014B8009A619A6902F010020292029A9A6942F0BD
:1014C80004029A619A6902F004020392039A9A69E3
:1014D80042F008029A619A6902F008020492049A9A
:1014E8009A6942F020029A619B6903F020030593F0
:1014F800059B2C4E01225821304601F009FB2A4F4A
:1015080001224FF48051384601F002FB4FF6FF7874
:10151800CDF818800324079406A9244801F020F97F
:101528004FF6A7730693079406A9304601F018F9F9
:101538001823069301250795089509940DEB0301D7
:10154800304601F00DF949F613130693079406A9DE
:10155800174801F005F94EF6FF730693079406A99C
:10156800384601F0FDF84FF4805306930795089527
:10157800099406A9384601F0F3F8CDF818800794C5
:1015880006A90C4801F0ECF8402306930795089546
:101598000223099306A9304601F0E2F80AB0BDE833
:1015A800F08100BF00100140000C0140001801400C
:1015B800000801400014014000B583B001904FF6C7
:1015C800FF73012201A9034802F030FF019803B01C
:1015D8005DF804FB0C0E002010B504460268084BA9
:1015E8009A4205D02268074B1B689A4203D010BD67
:1015F80000F010FBF6E7044B1B689847F7E700BFBD
:10160800002C01407C0D00208C0A002072B6FEE7F9
:1016180000B591B02822002106A803F0DBFD0023C5
:1016280001930293039304930593012206924FF4C6
:10163800803307930A9202220D920E934FF4E0131F
:101648000F9306A801F096FA80B90F23019302219F
:101658000291002303934FF480620492059301A83A
:1016680001F056FD20B911B05DF804FBFFF7CEFF7D
:10167800FFF7CCFF08B500F0BBFAFFF7C9FFFFF78B
:10168800FFFEFFF7DBFE00F005FA00F01BF800F0A4
:10169800ADF900F019FA084803F05CFE002304E0F5
:1016A80000BF00BF00BF00BF0133FE2BF8D90348BD
:1016B80003F050FEFBE700BFE8AB010838AC0108B7
:1016C8007047000008B50E480E4B03604FF4827354
:1016D800436000238360C360036143614FF4007279
:1016E80082610822C2610362436283620A23C36281
:1016F80001F07AFE00B908BDFFF788FFFBE700BFDD
:10170800D80C00200030014070B586B00023029349
:101718000393049305930268304B9A4201D006B0B4
:1017280070BD044603F560439A6942F480529A6199
:101738009A6902F480520092009A9A6942F004026F
:101748009A619B6903F004030193019BA023029310
:101758000223039303230593214E02A9304600F088
:10176800FFFF4023029300250395049502A9304604
:1017780000F0F6FF1B481C4B036010234360856094
:101788008023C360056145618561C56100F0D0FAB9
:10179800E8B9144BA3645C621448154B036000233A
:1017A800436083608022C260036143618361C361D7
:1017B80000F0BEFA70B90D4BE3645C6200220521AB
:1017C800232000F057FA232000F09AFAA7E7FFF742
:1017D8001DFFDEE7FFF71AFFEDE700BF003001400D
:1017E80000080140940C002030000240500C0020FA
:1017F8001C00024082B00E4B9A6942F001029A61C5
:101808009A6902F001020092009ADA6942F0805265
:10181800DA61DB6903F080530193019B054A536841
:1018280023F0E06343F00073536002B0704700BFD9
:10183800001002400000014000B589B001460022B6
:10184800192000F017FA192000F05AFA144B9A6977
:1018580042F400629A619B6903F400630193019B5F
:1018680002A903A801F08EFD01F07CFD0D4BA3FB3E
:1018780000239B0C013B0C480C4A026040F2E73203
:10188800C260436000230361836002F0E9F818B185
:10189800012009B05DF804FB034801F06FFFF8E789
:1018A8000010024083DE1B43300D0020002C014055
:1018B800FEE7FEE7FEE7FEE7FEE7704708B50248E9
:1018C80000F0DCFB08BD00BF500C002008B5024842
:1018D80000F0D4FB08BD00BF940C002008B50248F6
:1018E80001F0B4FF08BD00BF300D002008B5024864
:1018F80001F0ACFF08BD00BF7C0D002008B5024810
:1019080001F082FE08BD00BFD80C002008B50248CF
:1019180002F074FE08BD00BFC40D002008B50248DF
:1019280002F06CFE08BD00BF0C0E002001207047BD
:1019380008B503F0B5F8162303604FF0FF3008BD73
:1019480008B54FF0FF31FFF7F3FFFEE770B50C461F
:101958001646002506E0AFF30080214601F8010B8A
:1019680001350C46B542F6DB304670BD70B50C4605
:101978001646002504E014F8010BFFF71DFE01359B
:10198800B542F8DB304670BD08B503460B4A12680D
:1019980042B10A4A106803446A46934206D8074A85
:1019A800136008BD054A06491160F2E703F078F8AC
:1019B8000C2303604FF0FF30F3E700BF780D0020E1
:1019C800280F00204FF0FF3070474FF400534B6052
:1019D800002070470120704700207047014B024AE1
:1019E8009A60704700ED00E00000010800B587B07C
:1019F80000230293039304930593009301931548DE
:101A08004FF0804202604722426083603122C26008
:101A18000361836102F024F890B94FF48053029374
:101A280002A90C4802F0B4F868B9002300930193A6
:101A38006946084802F0D8FA40B907B05DF804FBD7
:101A4800FFF7E4FDE9E7FFF7E1FDEEE7FFF7DEFD6D
:101A5800F3E700BF7C0D00200368B3F1804F00D08E
:101A6800704700B583B003F50433DA6942F0010228
:101A7800DA61DB6903F001030193019B0022052170
:101A88001C2000F0F7F81C2000F03AF903B05DF8CC
:101A980004FB000008B50A480A4B03604FF4E13321
:101AA800436000238360C36003610C224261836149
:101AB800C36102F03DFC00B908BDFFF7A7FDFBE7D5
:101AC800C40D00200038014008B50A480A4B0360DD
:101AD8004FF4E133436000238360C36003610C2249
:101AE80042618361C36102F023FC00B908BDFFF7BE
:101AF8008DFDFBE70C0E00200044004030B589B096
:101B0800002304930593069307930368344A93428A
:101B180004D0344A934233D009B030BD324B9A696D
:101B280042F480429A619A6902F480420092009AD3
:101B38009A6942F004029A619B6903F004030193D5
:101B4800019B4FF400730493022305930323079327
:101B5800264D04A9284600F003FE4FF48063049341
:101B680000240594069404A9284600F0F9FD2246AD
:101B78000521252000F07EF8252000F0C1F8CBE7EC
:101B8800194BDA6942F40032DA61DA6902F4003298
:101B98000292029A9A6942F004029A619B6903F0E0
:101BA80004030393039B0423049302230593032351
:101BB80007930E4D04A9284600F0D2FD082304938C
:101BC80000240594069404A9284600F0C9FD22467D
:101BD8000521262000F04EF8262000F091F89BE71A
:101BE8000038014000440040001002400008014055
:101BF80008B5074A136843F010031360032000F088
:101C08001BF80020FFF718FEFFF7F4FD002008BDC1
:101C180000200240034A1168034B1B780B441360F1
:101C2800704700BF540E0020B4000020014B186814
:101C3800704700BF540E002010B50446C31E042B85
:101C48000FD80A4AD36823F4E0631B041B0C240250
:101C580004F4E064234343F0BF6343F40033D360E8
:101C680010BD91210248FFF72BFDEAE700ED00E0E7
:101C780058AC010870B505460C4616460F2A25D8FB
:101C88000F2C28D81B4BDB68C3F30223C3F10701D1
:101C9800042928BF04211A1D062A21D9033B4FF025
:101CA800FF3202FA01F124EA01049C4002FA03F32C
:101CB80026EA03063443002D14DB2401E4B205F1BF
:101CC800604505F5614585F8004370BDA9210A48BE
:101CD800FFF7F6FCD4E7AA210748FFF7F1FCD1E7A4
:101CE8000023DCE705F00F052401E4B2034B5C5543
:101CF800EBE700BF00ED00E058AC010814ED00E090
:101D080010B5041E0ADB002C07DB04F01F0264096F
:101D180001239340044A42F8243010BDBD210348F2
:101D2800FFF7CEFCEFE700BF00E100E058AC010888
:101D3800002800F0B78010B5044603685A4A934259
:101D480025D01432934222D0143293421FD0143239
:101D580093421CD01432934219D01432934216D0B5
:101D68001432934213D002F5627293420FD01432A8
:101D780093420CD01432934209D01432934206D0C5
:101D88001432934203D099214848FFF799FC6368BD
:101D980023B1102B02D0B3F5804F55D1A368402B47
:101DA80001D0002B55D1E368802B01D0002B55D1F1
:101DB80023692BB1B3F5807F02D0B3F5007F52D1F0
:101DC80063692BB1B3F5806F02D0B3F5006F4FD1C3
:101DD800A3690BB1202B50D1E36943B1B3F5805F00
:101DE80005D0B3F5005F02D0B3F5405F4AD1216852
:101DF8002F4B99424BD82F4B0B442F4AA2FB03235E
:101E08001B099B0023642D4BE363022384F82130D4
:101E18000A6822F47F5222F030026368A068034304
:101E2800E06803432069034360690343A0690343EF
:101E3800E069034313430B600020A063012384F887
:101E4800213084F8200010BD9A211848FFF738FC8B
:101E5800A4E79B211548FFF733FCA4E79C2113480E
:101E6800FFF72EFCA4E79D211048FFF729FCA7E700
:101E78009E210E48FFF724FCAAE79F210B48FFF795
:101E88001FFCA9E7A0210948FFF71AFCAFE70C4B94
:101E98000B44094AA2FB03231B099B002364094B3B
:101EA800E363B2E70120704708000240ACAC0108C8
:101EB80007040240F8FFFDBFCDCCCCCC00000240A7
:101EC800F8FBFDBF0004024090F82130DBB2022B82
:101ED80006D004238363002380F820300120704754
:101EE8000268136823F00E0313600268136823F076
:101EF80001031360036CC16B012202FA03F34B6008
:101F080080F82120002380F8203018467047000010
:101F180008B590F82130DBB2022B03D00423836389
:101F2800012008BD0268136823F00E0313600268DD
:101F3800136823F00103136003684C4A93424ED997
:101F4800783A934224D01432934230D014329342D8
:101F58002FD0143293422FD0143293422FD0143200
:101F680093422FD0143293422FD002F562729342DB
:101F78002ED0143293422DD0143293422CD01432E6
:101F8800934202D04FF4803203E04FF4805200E0D5
:101F98000122374B5A60012380F82130002380F852
:101FA8002030436B002B5ED098470020B9E7102201
:101FB800EFE74FF48072ECE74FF48052E9E74FF413
:101FC8008032E6E74FF48012E3E74FF08072E0E7F3
:101FD8000122DEE71022DCE74FF48072D9E7254AB8
:101FE800934224D01432934225D01432934224D001
:101FF8001432934224D01432934224D014329342A0
:1020080024D01432934224D002F56272934223D032
:102018001432934222D01432934221D01432934284
:1020280002D04FF4803203E04FF4805200E00122E6
:10203800114B5A60AFE71022FAE74FF48072F7E7C6
:102048004FF48052F4E74FF48032F1E74FF48012F6
:10205800EEE74FF08072EBE70122E9E71022E7E7AD
:102068004FF48072E4E700205BE700BF8000024085
:1020780000040240080002400000024038B5C36B6B
:102088001A6804682568016C04238B40134200F029
:102098009B8015F0040F00F09780236813F0200F41
:1020A80003D1236823F00403236003689A4A934208
:1020B80046D9783A934224D01432934228D0143225
:1020C800934227D01432934227D01432934227D018
:1020D8001432934227D01432934227D002F5627209
:1020E800934226D01432934225D01432934224D0FE
:1020F8001432934202D04FF4802203E04FF480421E
:1021080000E00422854B5A60C36A03B1984738BD82
:102118004022F7E74FF48062F4E74FF48042F1E79A
:102128004FF48022EEE74FF48002EBE74FF0806235
:10213800E8E70422E6E74022E4E74FF48062E1E7BB
:10214800774A934224D01432934225D014329342D2
:1021580024D01432934224D01432934224D014321F
:10216800934224D01432934224D002F562729342EF
:1021780023D01432934222D01432934221D0143205
:10218800934202D04FF4802203E04FF4804200E0F3
:102198000422644B5A60B7E74022FAE74FF48062A2
:1021A800F7E74FF48042F4E74FF48022F1E74FF469
:1021B8008002EEE74FF08062EBE70422E9E7402275
:1021C800E7E74FF48062E4E702238B40134200F014
:1021D800AB8015F0020F00F0A780236813F0200FE2
:1021E80006D1236823F00A032360012380F82130F5
:1021F8000368494A93424BD9783A934224D014321F
:1022080093422DD0143293422CD0143293422CD0C6
:10221800143293422CD0143293422CD0143293426D
:102228002CD002F5627293422BD0143293422AD0FA
:102238001432934229D01432934202D04FF4003220
:1022480003E04FF4005200E00222344B5A600023AE
:1022580080F82030836A002B3FF459AF984756E73F
:102268002022F2E74FF40072EFE74FF40052ECE758
:102278004FF40032E9E74FF40012E6E74FF000723E
:10228800E3E70222E1E72022DFE74FF40072DCE710
:10229800234A934224D01432934225D014329342D5
:1022A80024D01432934224D01432934224D01432CE
:1022B800934224D01432934224D002F5627293429E
:1022C80023D01432934222D01432934221D01432B4
:1022D800934202D04FF4003203E04FF4005200E082
:1022E8000222104B5A60B2E72022FAE74FF400723C
:1022F800F7E74FF40052F4E74FF40032F1E74FF4F8
:102308000012EEE74FF00072EBE70222E9E7202225
:10231800E7E74FF40072E4E780000240000402405F
:102328000800024000000240082303FA01F11142AC
:102338003FF4EDAE15F0080F3FF4E9AE236823F043
:102348000E032360026CC16B012303FA02F24A6098
:10235800836380F82130002380F82030036B002B42
:102368003FF4D5AE9847D2E6044B0022DA61044A1E
:10237800136943F00103136101807047580E002070
:1023880000200240194BDB6813F0100305D0184AEF
:10239800D36943F00203D3611023144AD26812F0C0
:1023A800040F06D01249CA6942F00102CA6143F01B
:1023B80004030E4AD26912F0010F09D00C49CA6908
:1023C80042F00402CA610949CA6922F00102CA61DD
:1023D80040F20112934202D0044AD3607047034A84
:1023E800D36923F00103D361704700BF0020024086
:1023F800580E00200A4B1B6913F0800F0BD0084BB6
:10240800084A5A6002F188325A601B6913F0800F3B
:1024180003D100207047002070470120704700BF9B
:102428000020024023016745034A136943F08003F3
:1024380013610020704700BF0020024038B50446F1
:10244800FFF7F4FB0546164BDB6813F0010F0AD0C3
:10245800B4F1FF3FF7D024B1FFF7E8FB401BA042DF
:10246800F1D903201BE00E4BDB6813F0200F02D0DC
:102478000B4B2022DA600A4BDB6813F0100F0BD1EC
:10248800074BDB6913F0010F06D1054BDB6813F02E
:10249800040F01D1002002E0FFF774FF012038BDCE
:1024A800002002402DE9F8431E46354B1B7E012BC8
:1024B80064D004460F469046314B01221A76431EDB
:1024C800022B42D8B7F1006F0BD32E4BB3F8E03094
:1024D800B3F5007F3ED0B3F5C07F3FD02A4B9F4273
:1024E80003D9B1212948FFF7EBF84CF25030FFF738
:1024F800A5FF034600283BD1012C36D0022C31D051
:102508004FF004091C464C4532D22101C1F120028A
:10251800A1F1200328FA01F106FA02F2114326FA82
:1025280003F3194389B207EB4400FFF71DFF4CF290
:102538005030FFF783FF164B1D6925F001051D611B
:102548000346A8B90134E4B2DDE7B0210F48FFF72C
:10255800B7F8B7E70F4B9F42C3D8C6E70E4B9F4269
:10256800BFD8C2E74FF00209CCE74FF00109C9E72D
:10257800034A002111761846BDE8F8830223FAE7DA
:10258800580E002000F7FF1FFFFF0308FCAC0108EE
:1025980000200240FFFF0708FFFF050808B50128D3
:1025A8000CD1094B0022DA61084B1A6942F0040287
:1025B8001A611A6942F040021A6108BD4FF4157198
:1025C8000348FFF77DF8ECE7580E00200020024092
:1025D80050AD0108064B0022DA61064B1A6942F039
:1025E80002021A6158611A6942F040021A61704782
:1025F800580E002000200240524B1B7E012B00F099
:102608009E8070B504460E464E4B01221A7603682A
:102618000BB1022B4ED12368022B50D0A368B3F123
:10262800006F0BD3484AB2F8E020B2F5007F5BD0C8
:10263800B2F5C07F5CD0454A934203D9E7214448AC
:10264800FFF73EF8404BB3F8E030B3F5007F53D0C6
:10265800B3F5C07F5BD0A368E26803EBC223013BFC
:102668003A4A93428CBF00230123002B5AD04CF2E4
:102678005030FFF7E3FE00285BD14FF0FF333360A3
:10268800A5680121E268A36803EBC223AB4251D9D4
:102698002846FFF79FFF4CF25030FFF7CFFE2D4A38
:1026A800136923F002031361014600283FD105F5A1
:1026B8000065E7E7A6212648FFF702F8ABE74CF2EA
:1026C8005030FFF7BBFE08B1012133E00120FFF7CE
:1026D80065FF4CF25030FFF7B1FE01461D4A136901
:1026E80023F00403136125E01B4A9342A6D8A9E707
:1026F8001A4A9342A2D8A5E7A368E26803EBC2236B
:10270800013B154A93428CBF00230123ADE7A36820
:10271800E26803EBC223013B104A93428CBF0023BB
:102728000123A2E7E8210A48FEF7CAFF9FE73560C0
:1027380000E00121034B00221A76084670BD0221F1
:1027480008467047580E002000F7FF1FFFFF0308D8
:1027580050AD010800200240FFFF0708FFFF0508F1
:102768002DE9F04383B007460E46884B98421BD0AC
:1027780003F58063984217D003F58063984213D01D
:1027880003F5806398420FD003F5806398420BD01D
:1027980003F58063984207D003F58063984203D01D
:1027A800BD217B48FEF78CFF33689AB212B11B0C2F
:1027B8001B041BB1BE217648FEF782FF7368012B0C
:1027C8001ED9112B1CD0022B1AD0122B18D0714AEB
:1027D800934215D002F58012934211D002F580126F
:1027E80093420DD0A2F5F812934209D002F5801257
:1027F800934205D002F58012934201D0032B03D1F6
:102808004FF000094D46FDE0BF216148FEF758FF33
:10281800F6E7614A934210D007D9604A93420CD038
:1028280002F58032934208D01AE0A2F58012934252
:1028380003D002F5702293420ED1B368022B00F246
:102848008D80B368002B00F09580012B00F08B8001
:102858007C614FF0080903E0A2F580129342ECD0A6
:10286800B8F1FF0F00F289803846B8F1FF0F00F287
:102878008680AA0003680F21914023EA010309FA20
:1028880002F213430360736813F0805F00F0B980AD
:10289800434B9A6942F001029A619B6903F0010374
:1028A8000193019BAA08911C3E4B53F8210005F0A7
:1028B800030399000F238B4020EA0300334B9F4208
:1028C80072D003F580639F4200F0F68003F58063C1
:1028D8009F4200F0F38003F580639F4200F0F08090
:1028E80003F580639F4200F0ED8003F580639F420B
:1028F80049D0062359E0F368013B022B02D8D6F8E9
:102908000C90ADE7D5212248FEF7DAFEF7E7F36829
:10291800013B022B03D8F36803F10409A0E7DC218B
:102928001B48FEF7CDFEF6E7F368013B022B03D800
:10293800F36803F1080993E7E3211548FEF7C0FEA1
:10294800F6E7F368013B022B03D8F36803F10C099F
:1029580086E7EA210E48FEF7B3FEF6E7F7210C48B2
:10296800FEF7AEFE6DE73C614FF0080978E74FF0DF
:10297800000975E74FF0040972E7381D75E7A5F1FE
:102988000802920076E705230FE000BF0008014027
:10299800A8AD01080000111000002210000031103D
:1029A800001002400000014000238B400343023224
:1029B800534941F82230736813F4801F00F0848073
:1029C800504A936843EA08039360736813F4001F3E
:1029D80000F080804B4AD36843EA0803D3607368E9
:1029E80013F4003F7CD0474A536843EA0803536016
:1029F800736813F4803F79D0424A136843EA0803A6
:102A080013600135336833FA05F275D00124AC4000
:102A180003EA040834EA0303F3D13B4B9F421BD07B
:102A280003F580639F4217D003F580639F4213D05C
:102A380003F580639F420FD003F580639F420BD05C
:102A480003F580639F4207D003F580639F4203D05C
:102A5800CD212E48FEF734FE7368122B3FF6D9AE0F
:102A6800122B3FF6FDAE01A252F823F043280108CD
:102A7800FF28010831290108772901086928010878
:102A880069280108692801086928010869280108D6
:102A980069280108692801086928010869280108C6
:102AA80069280108692801086928010869280108B6
:102AB800172901084B290108012376E7022374E747
:102AC800032372E7042370E70E4A936823EA080396
:102AD80093607AE70B4AD36823EA0803D3607EE75A
:102AE800084A536823EA0803536081E7054A1368D4
:102AF80023EA0803136084E703B0BDE8F08300BF4E
:102B0800000001400004014000080140A8AD010890
:102B180070B5054614460E4621B1012C08D86CB193
:102B28002E6170BD4FF4EA710648FEF7C9FDF4E75F
:102B380040F2D5110348FEF7C3FDF0E736042E61D5
:102B4800EFE700BFA8AD010882B0084B1B68084A30
:102B5800A2FB03235B0A00FB03F3019300BF019B65
:102B68005A1E0192002BF9D102B07047B000002024
:102B7800D34D6210002800F0898270B582B00446F7
:102B8800036813B113F00F0F2AD0236813F0010F55
:102B980040D063682BB1B3F5803F02D0B3F5A02FC6
:102BA80024D19C4B5B6803F00C03042B29D0994B70
:102BB8005B6803F00C03082B1ED06368B3F5803FF5
:102BC80055D0002B69D103F1804303F504331A680B
:102BD80022F480321A601A6822F480221A604BE0CC
:102BE80040F265118C48FEF76BFDCEE740F26B11A1
:102BF8008948FEF765FDD4E7864B5B6813F4803F90
:102C0800DBD0844B1B6813F4003F03D06368002BB0
:102C180000F03E82236813F0020F00F089802369D8
:102C2800012B63D863691F2B66D87A4B5B6813F056
:102C38000C0F6CD0774B5B6803F00C03082B61D04A
:102C48002369002B00F09A80744B01221A60FEF76A
:102C5800EDFF05466F4B1B6813F0020F40F08580AF
:102C6800FEF7E4FF401B0228F4D9032015E2694A65
:102C7800136843F480331360636843B3FEF7D6FFE9
:102C88000546644B1B6813F4003FC3D1FEF7CEFF23
:102C9800401B6428F5D90320FFE1B3F5A02F09D024
:102CA8005C4B1A6822F480321A601A6822F4802277
:102CB8001A60E1E703F18043A3F53C331A6842F454
:102CC80080221A601A6842F480321A60D4E7FEF74C
:102CD800ADFF05464F4B1B6813F4003F9AD0FEF733
:102CE800A5FF401B6428F5D90320D6E140F29F11C7
:102CF8004948FEF7E5FC95E74FF4D0714648FEF7E2
:102D0800DFFC92E7434B5B6813F4803F98D1414B5B
:102D18001B6813F0020F03D02369012B40F0BA811E
:102D28003C4A136823F0F803616943EAC10313605E
:102D3800236813F0080F3CD0A369012B30D8A3698E
:102D4800002B6FD0354B0122C3F88024FEF76EFFAD
:102D58000546304B5B6A13F0020F27D1FEF766FF7A
:102D6800401B0228F5D9032097E12A4A136823F06B
:102D7800F803616943EAC1031360D9E7274B0022CE
:102D88001A60FEF753FF0546224B1B6813F0020F2B
:102D9800CED0FEF74BFF401B0228F5D903207CE17B
:102DA8004FF4F0711C48FEF78BFCC8E70120FFF7D1
:102DB800CBFE236813F0040F00F0A480E368012B16
:102DC80001D9052B41D1134BDB6913F0805F42D148
:102DD800104BDA6942F08052DA61DB6903F0805304
:102DE8000193019B01250E4B1B6813F4807F34D09F
:102DF800E368012B45D0002B5BD103F1804303F539
:102E080004331A6A22F001021A621A6A22F00402D2
:102E18001A623BE000100240FCAD0108000042428B
:102E280000700040A14B0022C3F88024FEF7FEFE8C
:102E380005469F4B5B6A13F0020FBAD0FEF7F6FE09
:102E4800401B0228F5D9032027E140F20F219948B9
:102E5800FEF736FCB7E70025C5E7974A136843F441
:102E680080731360FEF7E2FE0646934B1B6813F46B
:102E7800807FBDD1FEF7DAFE801B6428F5D90320D8
:102E88000BE18B4A136A43F001031362E36833B31F
:102E9800FEF7CCFE0646864B1B6A13F0020F2FD1B5
:102EA800FEF7C4FE801B41F288339842F3D9032011
:102EB800F3E0052B09D07E4B1A6A22F001021A6250
:102EC8001A6A22F004021A62E0E7794B1A6A42F0A1
:102ED80004021A621A6A42F001021A62D6E7FEF781
:102EE800A5FE0646724B1B6A13F0020F08D0FEF7C8
:102EF8009DFE801B41F288339842F3D90320CCE031
:102F0800002D53D1E369022B56D8E369002B00F05A
:102F1800C380674A526802F00C02082A00F0A680B3
:102F2800022B40F08F80236A13B1B3F5803F49D15B
:102F3800636A4BB3B3F5802F26D0B3F5002F23D0A7
:102F4800B3F5402F20D0B3F5801F1DD0B3F5A01FD7
:102F58001AD0B3F5C01F17D0B3F5E01F14D0B3F5DE
:102F6800001F11D0B3F5101F0ED0B3F5201F0BD0E2
:102F7800B3F5301F08D0B3F5401F05D0B3F5501F87
:102F880002D0B3F5601F23D1484B00221A66FEF722
:102F98004DFE0546464B1B6813F0007F1ED0FEF71A
:102FA80045FE401B0228F5D9032076E0404AD36944
:102FB80023F08053D361A5E740F2AD213D48FEF7E9
:102FC8007FFBA2E740F2B6213A48FEF779FBAFE76C
:102FD80040F2B7213748FEF773FBD5E7236AB3F50C
:102FE800803F1AD032494B6823F47413226A606A0E
:102FF800024313434B602D4B01221A66FEF716FE5F
:1030080004462B4B1B6813F0007F19D1FEF70EFE08
:10301800001B0228F5D903203FE0A36813B1B3F5DC
:10302800003F07D1224A536823F40033A1680B43B9
:103038005360D7E740F2CD211E48FEF741FBF1E788
:1030480000202AE0194B00221A66FEF7EFFD04461D
:10305800174B1B6813F0007F06D0FEF7E7FD001B37
:103068000228F5D9032018E0002016E0012B16D01D
:103078000F4B5B6803F48031226A914211D103F44B
:103088007013626A93420ED1002006E00120704757
:10309800012002E0012000E0002002B070BD012004
:1030A800FBE70120F9E70120F7E700BF00004242F3
:1030B80000100240FCAD0108007000400F4B5B6837
:1030C80003F00C02082A01D00D487047C3F383426D
:1030D8000C49885C13F4803F0BD0084B5B68C3F342
:1030E8004043094AD35C064A02FB00F0B0FBF3F008
:1030F8007047064B03FB00F0704700BF001002400A
:1031080000127A004CAE01085CAE010800093D00CF
:10311800002800F0FC8070B50D460446036813F0E3
:103128000F0F6DD0022D71D87D4B1B6803F007037C
:10313800AB420BD27A4A136823F007032B43136080
:10314800136803F00703AB4240F0E380236813F0F1
:10315800020F29D013F0040F04D0724A536843F4C5
:10316800E0635360236813F0080F04D06D4A536876
:1031780043F460535360A3687BB1802B0DD0902B30
:103188000BD0A02B09D0B02B07D0C02B05D0D02B4B
:1031980003D0E02B01D0F02B3ED1624A536823F0D4
:1031A800F003A1680B435360236813F0010F4DD05F
:1031B8006368022B36D86368012B39D0022B3ED0C6
:1031C800584A126812F0020F00F0A58055494A6863
:1031D80022F0030213434B60FEF728FD0646514BCD
:1031E8005B6803F00C036268B3EB820F2ED0FEF726
:1031F8001DFD801B41F288339842F0D9032079E005
:1032080040F236314848FEF75BFA8BE740F2373137
:103218004548FEF755FA87E740F25D314248FEF728
:103228004FFABAE74FF459713F48FEF749FAC2E737
:103238003C4A126812F4003FC8D101205AE0394ACA
:10324800126812F0007FC1D1012053E0344B1B6893
:1032580003F00703AB420AD9314A136823F0070386
:103268002B431360136803F00703AB4255D123685F
:1032780013F0040F14D0E3685BB1B3F5806F08D086
:10328800B3F5A06F05D0B3F5C06F02D0B3F5E06F0A
:1032980031D1244A536823F4E063E1680B43536057
:1032A800236813F0080F15D023695BB1B3F5806F5D
:1032B80008D0B3F5A06F05D0B3F5C06F02D0B3F551
:1032C800E06F1ED1174A536823F46053216943EA1B
:1032D800C1035360FFF7F2FE124B5B68C3F303139D
:1032E800124AD35CD840124B1860124B1868FEF78C
:1032F800A3FA002070BD40F2A2310B48FEF7E0F9B6
:10330800C7E740F2A9310848FEF7DAF9DAE7012001
:1033180070470120EEE70120ECE70120EAE700BF53
:103328000020024000100240FCAD010840AC01083A
:10333800B0000020B8000020014B1868704700BF9B
:10334800B000002008B5FFF7F7FF044B5B68C3F334
:103358000223034AD35CD84008BD00BF00100240D6
:1033680050AC010808B5FFF7E7FF044B5B68C3F3EF
:10337800C223034AD35CD84008BD00BF00100240F6
:1033880050AC010838B50D460446D0B1FDB10F2345
:103398002360124B5A6802F0030262605A6802F016
:1033A800F002A2605A6802F4E062E2605B68DB083F
:1033B80003F4E06323610A4B1B6803F007032B60E7
:1033C80038BD40F221510748FEF77AF9DEE740F2AE
:1033D80022510448FEF774F9D9E700BF00100240F3
:1033E80000200240FCAD0108002800F0048110B55F
:1033F80004460368814A93420CD0A2F5784293426E
:1034080008D002F58062934204D04FF4AB717C4837
:10341800FEF756F9636813B1B3F5827F3DD1A3680F
:103428002BB1B3F5806F02D0B3F5004F3BD1E36801
:10343800B3F5006F01D0002B3BD1A369B3F5007F32
:1034480003D013B1B3F5802F39D1E3696BB1082BE1
:103458000BD0102B09D0182B07D0202B05D0282BE8
:1034680003D0302B01D0382B2FD1236A0BB1802BFE
:1034780031D1636A002B34D1636A002B59D1236997
:103488000BB1022B33D16369012B36D86368B3F5CE
:10349800827F38D00023E3615EE040F2571158483C
:1034A800FEF70EF9BBE74FF4AC715548FEF708F983
:1034B800BDE740F259115248FEF702F9BDE74FF453
:1034C800AD714F48FEF7FCF8BFE740F25B114C487E
:1034D800FEF7F6F8C9E74FF4AE714948FEF7F0F881
:1034E800C7E740F25F114648FEF7EAF8C4E74FF431
:1034F800B1714348FEF7E4F8C5E740F2631140486C
:10350800FEF7DEF8C2E7E36933B3082B24D0102BAB
:1035180022D0182B20D0202B1ED0282B1CD0302BAB
:103528001AD0382B18D040F267113548FEF7C8F882
:1035380012E0E3696BB1082B0BD0102B09D0182BC4
:1035480007D0202B05D0282B03D0302B01D0382BC7
:1035580045D10023236163610023A36294F85130AD
:10356800002B42D0022384F851302268136823F0DC
:1035780040031360636803F48273A26802F4044290
:103588001343E26802F400621343226902F0020264
:103598001343626902F001021343A26902F4007244
:1035A8001343E26902F038021343226A02F08002F0
:1035B8001343A26A02F40052216813430B60638B21
:1035C800226803F0040353602268D36923F400637C
:1035D800D36100206065012384F8513010BD40F2AA
:1035E80071110748FEF76CF8B3E784F850302046AD
:1035F800FEF78AF8B6E70120704700BF00300140A7
:1036080060AE01087047000030B585B00446026816
:1036180051689368C3F3801013F0400F05D113F07D
:10362800010F02D011F0400F5AD113F0020F02D04F
:1036380011F0800F58D1C3F3401513F0200F01D1BA
:10364800002854D011F0200F51D078B194F851309F
:10365800DBB2032B4DD0636D43F004036365002395
:103668000193D368019393680193019B65B1636DDE
:1036780043F001036365002303939368039313687E
:1036880023F040031360039B636D002B2FD0226847
:10369800536823F0E0035360012384F8513011F09C
:1036A800030F2ED02268536823F003035360E36CA2
:1036B8004BB1164A5A63E06CFEF72AFC18B1636DE9
:1036C80043F040036365A36C8BB1104A5A63A06C46
:1036D800FEF71EFC58B1636D43F04003636506E0D6
:1036E800236C2046984702E0636C2046984705B053
:1036F80030BD00230293D368029393680293029B20
:10370800F5E72046FFF77EFFF1E700BF193701080C
:1037180008B5406A0023C387C386FFF773FF08BD57
:1037280010B4036A046A24F001040462846924F072
:10373800F00C4CEA021223F00A030B438261036285
:1037480010BC704710B4036A046A24F010040462C1
:10375800846924F4704C4CEA023223F0A00343EA53
:1037680001138261036210BC7047836823F0700301
:103778000B4343F0070383607047000010B504460D
:1037880003682E4A93421FD002F5006293421BD071
:10379800B3F1804F18D0A2F59832934214D002F5B5
:1037A8008062934210D002F5806293420CD002F5F9
:1037B8008062934208D002F58062934204D04FF4AD
:1037C800E8711F48FDF77CFF94F83D30DBB2012B10
:1037D8002FD1022384F83D302268D36843F00103D7
:1037E800D3602368154A934218D002F500629342C9
:1037F80014D0B3F1804F11D0A2F5983293420DD076
:1038080002F58062934209D002F58062934205D0A6
:103818001A6842F001021A6000200BE09A6802F070
:103828000702062A07D01A6842F001021A6000202F
:1038380000E0012010BD0020FCE700BF002C014083
:10384800B0AE0108704770477047704710B504461E
:1038580003681A6912F0020F11D0DA6812F0020F29
:103868000DD06FF002021A610123037703689B6988
:1038780013F0030F70D0FFF7E6FF002323772368C8
:103888001A6912F0040F12D0DA6812F0040F0ED081
:103898006FF004021A610223237723689B6913F4EB
:1038A800407F5FD02046FFF7CEFF002323772368B1
:1038B8001A6912F0080F12D0DA6812F0080F0ED049
:1038C8006FF008021A61042323772368DB6913F079
:1038D800030F4ED02046FFF7B6FF00232377236857
:1038E8001A6912F0100F12D0DA6812F0100F0ED009
:1038F8006FF010021A61082323772368DB6913F439
:10390800407F3DD02046FFF79EFF002323772368A2
:103918001A6912F0010F03D0DA6812F0010F36D1DC
:1039280023681A6912F0800F03D0DA6812F0800F4A
:1039380034D123681A6912F0400F03D0DA6812F004
:10394800400F32D123681A6912F0200F03D0DA68C9
:1039580012F0200F30D110BDFFF774FF2046FFF79B
:1039680073FF8AE72046FFF76DFF2046FFF76CFFDD
:103978009BE72046FFF766FF2046FFF765FFACE7A9
:103988002046FFF75FFF2046FFF75EFFBDE76FF0B9
:1039980001021A612046FDF71FFEC1E76FF08002A1
:1039A8001A61204600F0A5FBC3E76FF040021A61D8
:1039B8002046FFF74AFFC5E76FF020021A6120464C
:1039C80000F096FBC7E700000368244A904212D033
:1039D80002F5006290420ED0B0F1804F0BD0A2F5F4
:1039E8009832904207D002F58062904203D002F5E7
:1039F8008062904203D123F070034A681343174A48
:103A0800904212D002F5006290420ED0B0F1804F81
:103A18000BD0A2F59832904207D002F5806290420E
:103A280003D002F58062904203D123F44073CA6840
:103A3800134323F080034A69134303608B68C3620E
:103A48000B688362054B984203D003F500639842E4
:103A580001D10B690363012343617047002C0140C6
:103A6800002800F0828010B504460368404A93425B
:103A78001FD002F5006293421BD0B3F1804F18D0DB
:103A8800A2F59832934214D002F58062934210D086
:103A980002F5806293420CD002F58062934208D00E
:103AA80002F58062934204D040F213113148FDF7C9
:103AB80007FEA3683BB1102B05D0202B03D0402B69
:103AC80001D0602B33D123692BB1B3F5807F02D0AD
:103AD800B3F5007F31D1E368013B4FF6FE729342A4
:103AE80031D8A3690BB1802B33D194F83D30B3B3EF
:103AF800022384F83D30214651F8040BFFF764FF98
:103B0800012384F8463084F83E3084F83F3084F846
:103B1800403084F8413084F8423084F8433084F8E7
:103B2800443084F8453084F83D30002010BD4FF40F
:103B38008A711048FDF7C4FDC5E740F215110D481C
:103B4800FDF7BEFDC7E74FF48B710A48FDF7B8FDD6
:103B5800C7E740F217110748FDF7B2FDC5E784F83B
:103B68003C302046FDF778FFC2E70120704700BFD0
:103B7800002C0140B0AE010810B4846824F47F4CD6
:103B880042EA03220A4342EA0C02826010BC7047F0
:103B980038B590F83C30012B00F0208204460D46E1
:103BA800012380F83C30022380F83D300B68B3F5E0
:103BB800805F11D0702B0FD0B3F5005F0CD0402B75
:103BC8000AD0502B08D0602B06D02BB1102B03D075
:103BD800202B01D0302B46D12268936823F47F43F1
:103BE80023F0770393602B68602B00F0698176D807
:103BF800402B00F0A4813CD9502B6ED12368A24AF7
:103C0800934217D002F50062934213D0B3F1804F6C
:103C180010D0A2F5983293420CD002F580629342FC
:103C280008D002F58062934204D041F2FD419748E2
:103C3800FDF746FD6B68B3F5004F05D023B1022BA5
:103C480002D00A2B40F03081EB680F2B00F2328152
:103C5800EA6869682068FFF763FD50212068FFF76C
:103C680084FD00200BE041F2BE418848FDF728FDA5
:103C7800B2E7202B0DD009D9302B0AD0012001231F
:103C880084F83D30002384F83C3038BD0BB1102B4C
:103C980021D123687C4A934217D002F500629342EF
:103CA80013D0B3F1804F10D0A2F5983293420CD0C4
:103CB80002F58062934208D002F58062934204D0F4
:103CC80041F230517148FDF7FBFC29682068FFF785
:103CD8004CFD0020D3E70120D1E70120CFE7B3F561
:103CE800805F00F08A80B3F5005F42D12368664A9E
:103CF800934217D002F50062934213D0B3F1804F7C
:103D080010D0A2F5983293420CD002F5806293420B
:103D180008D002F58062934204D041F2E9415B4841
:103D2800FDF7CEFCAB684BB1B3F5805F06D0B3F5B9
:103D3800005F03D0B3F5405F40F09F806B68B3F538
:103D4800004F05D023B1022B02D00A2B40F0A080EF
:103D5800EB680F2B00F2A280EB686A68A9682068FC
:103D6800FFF70AFF2268936843F4804393600020BA
:103D780085E7702B3FD12368434A934217D002F559
:103D88000062934213D0B3F1804F10D0A2F598325D
:103D980093420CD002F58062934208D002F580620B
:103DA800934204D041F2D1413848FDF789FCAB6811
:103DB80043B1B3F5805F05D0B3F5005F02D0B3F52A
:103DC800405F48D16B68B3F5004F04D01BB1022B9C
:103DD80001D00A2B45D1EB680F2B48D8EB686A68ED
:103DE800A9682068FFF7C8FE2268936843F0770344
:103DF8009360002043E7012041E72368224A934269
:103E080000F0DC8002F50062934200F0D980B3F143
:103E1800804F00F0D780A2F59832934200F0D4800A
:103E280002F58062934200F0D18002F580629342ED
:103E380000F0CE8002F58062934200F0CB8002F55C
:103E48008062934200F0C88041F2CA410F48FDF7F2
:103E580037FC002013E741F2D4410C48FDF730FC51
:103E6800B0E741F2D5410948FDF72AFCB3E741F232
:103E7800D6410648FDF724FCB0E741F2EC4103487F
:103E8800FDF71EFC5AE700BF002C0140B0AE010848
:103E980041F2ED415248FDF713FC59E741F2EE417A
:103EA8004F48FDF70DFC57E74FF4A8514C48FDF774
:103EB80007FCC9E641F201514948FDF701FCC7E694
:103EC8002368484A934217D002F50062934213D000
:103ED800B3F1804F10D0A2F5983293420CD002F57E
:103EE8008062934208D002F58062934204D041F286
:103EF8000D513B48FDF7E4FB6B68B3F5004F04D068
:103F08001BB1022B01D00A2B0DD1EB680F2B10D857
:103F1800EA6869682068FFF715FC60212068FFF7E8
:103F280024FC0020ABE641F210512D48FDF7C8FBF8
:103F3800EBE741F211512A48FDF7C2FBE8E7236895
:103F4800284A934217D002F50062934213D0B3F186
:103F5800804F10D0A2F5983293420CD002F58062BF
:103F6800934208D002F58062934204D041F21D5179
:103F78001B48FDF7A5FB6B68B3F5004F04D01BB1D8
:103F8800022B01D00A2B0DD1EB680F2B10D8EA6851
:103F980069682068FFF7C4FB40212068FFF7E5FB4C
:103FA80000206CE64FF4A9510D48FDF789FBEBE7BB
:103FB80041F221510A48FDF783FBE8E700205EE65D
:103FC80000205CE600205AE6002058E6002056E66D
:103FD800002054E6002052E6002050E6022054E675
:103FE800B0AE0108002C014038B504460D46036800
:103FF8003D4A93421FD002F5006293421BD0B3F1B1
:10400800804F18D0A2F59832934214D002F58062FE
:10401800934210D002F5806293420CD002F5806280
:10402800934208D002F58062934204D040F2B47102
:104038002E48FDF745FB2B686BB1102B0BD0202BBE
:1040480009D0302B07D0402B05D0502B03D0602B44
:1040580001D0702B39D16B68802B01D0002B3AD15D
:1040680094F83C30012B3CD0012384F83C300223E7
:1040780084F83D3023685968986821F070012A68EF
:104088000A435A602368184A934212D002F5006224
:1040980093420ED0B3F1804F0BD0A2F598329342E1
:1040A80007D002F58062934203D002F58062934202
:1040B80004D120F080006A6810439860012384F8D6
:1040C8003D30002084F83C0038BD40F2B571074807
:1040D800FDF7F6FABFE740F2B6710448FDF7F0FACB
:1040E800BEE70220F0E700BF002C014000AF010846
:1040F80070477047026802F10C0353E8003F23F44D
:1041080090730C3242E800310029F3D1026802F1C1
:10411800140353E8003F23F00103143242E800314E
:104128000029F3D1036B012B05D0202380F84230FE
:10413800002303637047026802F10C0353E8003F51
:1041480023F010030C3242E800310029F3D1ECE7E8
:1041580090F84130DBB2212B01D0022070478368F0
:10416800B3F5805F17D0036A5A1C02621A78036895
:104178005A60C38C9BB2013B9BB2C3844BB90268A3
:10418800D36823F08003D3600268D36843F0400308
:10419800D360002070470369002BE4D1036A1B88B1
:1041A8000268C3F308035360036A02330362E0E75B
:1041B80010B504464268384B9A4257D8E36813B1A1
:1041C800B3F5005F58D123692BB1B3F5806F02D0E6
:1041D800B3F5C06F56D163694FF6F372134200D13D
:1041E80023B940F669612D48FDF76AFA2268136918
:1041F80023F44053E1680B431361A3682269134316
:1042080062691A432168CB6823F4B05323F00C0386
:104218001343CB602268536923F44073A1690B43AD
:10422800536122681E4B9A4232D0FFF78BF8024640
:1042380002EB820202EB820263689B00B2FBF3F29C
:104248001848A0FB02314909642303FB11231B0111
:104258003233A0FB03235B0903F0F00202EB0112E7
:1042680003F00F03216813448B6010BD40F66661AC
:104278000A48FDF725FAA1E740F667610748FDF708
:104288001FFAA0E740F668610448FDF719FAA2E7AB
:10429800FFF768F80246CBE720AA440054AF0108AC
:1042A800003801401F85EB512DE9F84305460F46BC
:1042B80016469946DDF820802C68246837EA0403FE
:1042C8000CBF4FF0010C4FF0000CB4452DD1B8F1E4
:1042D800FF3FF1D0B8F1000F05D0FDF7A7FCA0EB28
:1042E80009004045E8D92A6802F10C0353E8003F69
:1042F80023F4D0730C3242E800310029F3D12A6844
:1043080002F1140353E8003F23F00103143242E89A
:1043180000310029F3D1202385F8413085F8423057
:10432800002385F84030032000E00020BDE8F88332
:10433800002875D010B5044683690BB30368394A61
:1043480093420CD0A2F57442934208D002F58062E1
:10435800934204D04FF4B7713348FDF7B1F9A3691C
:104368003BB3B3F5807F24D0B3F5007F21D0B3F5FC
:10437800407F1ED040F26F112B48FDF7A1F918E0DD
:104388000368284A934214D0A2F57442934210D08D
:1043980002F5806293420CD002F58062934208D005
:1043A80002F58062934204D040F273111E48FDF773
:1043B80087F9A36813B1B3F5805F25D194F841302C
:1043C80043B3242384F841302268D36823F400538C
:1043D800D3602046FFF7ECFE2268136923F490436C
:1043E80013612268536923F02A0353612268D36852
:1043F80043F40053D36000206064202384F84130E4
:1044080084F84230606310BD40F275110648FDF72C
:1044180057F9D3E784F840302046FDF76FFBD0E723
:10442800012070470038014054AF01082DE9F041E0
:1044380082B01E4690F84130DBB2202B4BD10446A7
:104448000D46904600294AD00AB9012044E00023CD
:104458004364212380F84130FDF7E8FB0746A4F8C0
:104468002480A4F82680A368B3F5805F02D04FF0BB
:1044780000080FE02369FBB14FF000080AE038F8A4
:10448800023B2268C3F308035360E28C92B2013AFC
:1044980092B2E284E38C9BB28BB100963B46002239
:1044A80080212046FFF700FFD8B9002DE7D015F886
:1044B800012B23685A60E8E7A8460025EAE700963A
:1044C8003B46002240212046FFF7EEFE58B9202344
:1044D80084F8413000E0022002B0BDE8F0810120FC
:1044E800FAE70320F8E70320F6E708B50168CA6889
:1044F80022F04002CA60202280F8412000F07AFAB7
:10450800002008BD704708B5406A0023C385C384EE
:10451800FFF7F8FF08BD90F84230DBB2222B69D1D3
:104528008368B3F5805F4FD0826AB3F5805F04D0AB
:10453800002B56D10369002B53D103685B681370B5
:10454800836A01338362C38D9BB2013B9BB2C385EF
:10455800002B51D100B583B00268D36823F0200343
:10456800D3600268D36823F48073D3600268536908
:1045780023F001035361202380F842300023436372
:10458800036B012B33D100230363026802F10C0390
:1045980053E8003F23F010030C3242E800310029B1
:1045A800F3D103681A6812F0100F06D000220192A6
:1045B8001A6801925B680193019B818D00F0F0F904
:1045C800002003B05DF804FB0269002AACD1826ABE
:1045D80003685B68C3F308031380836A023383624A
:1045E800B1E703685B6803F07F031370A8E700F086
:1045F800F1F9E5E7022070470020704730B583B035
:10460800044602681368D068516913F00F0505D194
:1046180013F0200F02D010F0200F19D12DB111F096
:10462800010119D110F4907F16D1216B01297DD099
:1046380013F0800F03D010F0800F40F0188113F0B2
:10464800400F03D010F0400F40F0158103B030BD8B
:104658002046FFF760FFF9E713F0010F06D010F4CA
:10466800807F03D0626C42F00102626413F0040F91
:1046780004D019B1626C42F00202626413F0020FB6
:1046880004D019B1626C42F00402626413F0080F9E
:1046980007D010F0200F00D119B1626C42F0080267
:1046A8006264626C002AD1D013F0200F02D010F09F
:1046B800200F29D123685B6903F04003626C12F074
:1046C800080F00D163B32046FFF714FD23685B6928
:1046D80013F0400F20D0226802F1140353E8003F82
:1046E80023F04003143242E800310029F3D1E36B90
:1046F80073B1634A5A63E06BFDF70AFC0028A5D042
:10470800E06B436B9847A1E72046FFF704FFD1E72A
:104718002046FFF7F7FE99E72046FFF7F3FE95E7F7
:104728002046FFF7EFFE002363648FE713F0100FB6
:104738003FF47EAF10F0100F3FF47AAF00230193DF
:104748001368019353680193019B536913F0400F59
:1047580051D0E26B13685B689BB2002B3FF476AFD5
:10476800A18D99427FF672AFE3859369202B37D0EC
:10477800226802F10C0353E8003F23F480730C32E3
:1047880042E800310029F3D1226802F1140353E80A
:10479800003F23F00103143242E800310029F3D12D
:1047A800226802F1140353E8003F23F04003143257
:1047B80042E800310029F3D1202384F84230002355
:1047C8002363226802F10C0353E8003F23F010032F
:1047D8000C3242E800310029F3D1E06BFDF774FB9D
:1047E80002236363A18DE38D9BB2C91A89B2204667
:1047F80000F0D6F82AE7A18DE38D9BB2C91A89B2D9
:10480800E38D9BB2002B3FF421AF00293FF41EAF8C
:10481800226802F10C0353E8003F23F490730C3232
:1048280042E800300028F3D1226802F1140353E86B
:10483800003F23F00103143242E800300028F3D18E
:10484800202384F8423000232363226802F10C03FA
:1048580053E8003F23F010030C3242E800300028F0
:10486800F3D102236363204600F09AF8EEE620466F
:10487800FFF76EFCEAE62046FFF737FEE6E600BFE4
:104888000F45010881628285C28500234364222383
:1048980080F84230036923B10268D36843F4807317
:1048A800D3600268536943F0010353610268D36817
:1048B80043F02003D3600020704790F84230DBB209
:1048C800202B29D110B582B0044639B312B9012082
:1048D80002B010BD0123036300234363FFF7D2FF37
:1048E8000028F5D1236B012B01D00120F0E700232C
:1048F800019323681A6801925B680193019B2268FF
:1049080002F10C0353E8003F43F010030C3242E875
:1049180000310029F3D1DBE7022070470120D7E7F7
:10492800F0B587B000230293049001230593039305
:10493800B2F5006F10D806460F461546FDF75AFD2A
:1049480001A902A8FDF758FE0446FDF76DFD44B91C
:10495800FDF750FD00240AE00E4800F099FC07B06E
:10496800F0BD01990C4800F093FCF8E70134AC4223
:104978000DD237F81420002306EB44010120FDF77F
:1049880091FD0028F2D0054800F0E4FCE7E7FDF7C8
:104998004BFDE4E7A8AF0108CCAF0108E8AF010878
:1049A80038B50268084B1B689A4200D038BD0446E7
:1049B800064D0A4629460648FCF7F4FC64222946B7
:1049C8002046FFF77AFFF1E70C0E0020780E002052
:1049D8000000002008B50268044B1B689A4200D00A
:1049E80008BD034B1B689847FAE700BFC40D0020B9
:1049F800840A002008B50268044B1B689A4200D05C
:104A080008BD034B1B689847FAE700BFC40D002098
:104A1800880A0020FCF7E2FF0B480C490C4A0023E7
:104A280002E0D458C4500433C4188C42F9D3094A5C
:104A3800094C002301E013600432A242FBD300F0CA
:104A480049F8FCF717FE704700000020680A0020AC
:104A58000CB40108680A0020240F0020FEE70000BB
:104A6800144600B51A460A4B0D461B6885B0DE6829
:104A780003464CB107490191304607490294009515
:104A880000F014F803F064FA04490C46F3E700BF99
:104A9800BC000020F8AF010808B0010804B0010804
:104AA800014B1868704700BFBC0000200EB400B569
:104AB800074A82B003AB0146106853F8042B0193F0
:104AC80000F0D6FC02B05DF804EB03B0704700BFFD
:104AD800BC00002070B50D4E0D4D761BB61006D0EB
:104AE800002455F8043B01349847A642F9D1094EF1
:104AF800094D06F063F8761BB61006D0002455F869
:104B0800043B01349847A642F9D170BD00B40108AE
:104B180000B4010808B4010800B401082DE9F04FF9
:104B280001F10B05162D064683B025D8102900F291
:104B3800B88000F0A1FB102518224FF0020CB54FE9
:104B48003A445368A2F108018B4200F0B7805A68D2
:104B5800D96822F003021A449C683046E1608C60F0
:104B6800516803F1080441F00101516000F08AFB2B
:104B7800204603B0BDE8F08F35F0070500F19180BD
:104B8800A94200F28E8000F077FBB5F5FC7FC0F0FB
:104B980094816B0A00F08C80042B00F26A81AB09C7
:104BA80003F1390C03F138044FEACC00994F38442B
:104BB80043680838984206D10CE0002980F2268123
:104BC800DB68984206D05A6822F00302511B0F296D
:104BD800F3DDA4463C69DFF840E274457AD06268A8
:104BE80022F00302531B0F2B00F37681002BC7E939
:104BF80004EE80F26781B2F5007F80F0198101210F
:104C0800D30852090B4491407A6857F833000A4395
:104C180007EBC3010839A060E1607A6047F83340C8
:104C2800C46001214FEAAC039940914259D811421E
:104C380006D12CF0030C490011420CF1040CFAD0F7
:104C480007EBCC0948466446D0F80C80404508D1AB
:104C58001CE1002B80F22181D8F80C80404500F03F
:104C68001581D8F8042022F00302531B0F2BF0DD26
:104C780008EB050145F00105C8F804503046D8E9AD
:104C88000264F460A66043F00104C7E904114C60B3
:104C9800C1E902EE48F8023000F0F4FA08F108041D
:104CA80002E00C2300243360204603B0BDE8F08FF7
:104CB8004FF400704FF0400C3F2477E7D3689A42D6
:104CC80008BF0CF1020C7FF442AF3C69DFF848E101
:104CD800744584D101217A684FEAAC039940914226
:104CE800A5D9BC68636823F003094D4503D8A9EB2F
:104CF80005030F2B7ADCDFF824B1494BDBF80020E1
:104D08001B6801322B4404EB090A00F02F8103F5DC
:104D180080530F3323F47F6828F00F08414630464C
:104D280000F020FB411C024600F0EF80824500F2B3
:104D3800EA803C4B196841440846196000F04981F3
:104D4800DBF80010019301311BBFA2EB0A0A5044A3
:104D5800CBF80020186012F0070B00F01181CBF19E
:104D680008010A44CBF5805190440831A1EB0801B1
:104D7800C1F30B0A51463046009200F0F3FA421C88
:104D8800DDE9002300F04B81801A00EB0A0819685E
:104D980048F001005144BC42BA601960506000F00C
:104DA8002481B9F10F0F40F222814FF0050E60689F
:104DB800A9F10C0C2CF0070C00F0010040EA0C00E3
:104DC8006060BCF10F0F04EB0C00C0E901EE00F2CB
:104DD8002E8114465068144B1A688A4238BF1960ED
:104DE800124B1A688A4238BF196090E0621943F082
:104DF800010345F0010565603046BA600834536028
:104E080000F040FA204603B0BDE8F08FD9681A4494
:104E1800A2E600BFE8040020F0040020F00800200B
:104E28000C0F0020DC0E0020040F0020080F0020CB
:104E3800B2F5206F4FEA52235FD3142B00F2B180F2
:104E480003F15C01C9005B33781879580838884247
:104E580000F08F804B6823F00303934202D98968DE
:104E68008842F7D1C8687A68C4E902108460CC60C7
:104E7800D7E6142B59D9542B00F29B802B0B03F146
:104E88006F0C03F16E044FEACC008FE60134A307E0
:104E980000F108007FF4D8AE53E04446424453681A
:104EA800D8F80C1043F00103536054F8083F30461B
:104EB800D9608B6000F0E6F9F6E64FEAD50C05F10B
:104EC80008023CE622445368304643F0010353602D
:104ED80000F0D8F90834E7E6611945F00105656086
:104EE80043F00105C7E904113046C1E902EE4D60FF
:104EF800A35000F0C7F90834D6E6930903F1390145
:104F0800C9003833A0E7BC425ED0BC68606820F0B6
:104F180003084545A8EB050302D80F2B3FF766AFFA
:104F2800304600F0AFF90024BEE603F15C0C03F153
:104F38005B044FEACC0039E659F808394B4540F094
:104F480095801CF0030F0CF1FF3CF5D17B6823EA38
:104F580001037B60490099423FF6C3AE11B9C0E630
:104F6800490004341942FBD0A44669E603F110084D
:104F7800D4E601229B109A407B681A437A6073E753
:104F880002EB08014942C1F30B0A51463046009230
:104F980000F0E8F9431CDDE900237FF4F5AEDA46BA
:104FA800F5E6542B26D8130B03F16F01C9006E33B5
:104FB8004AE7B3F5AA7F26D8EB0B03F1780C03F187
:104FC80077044FEACC00F1E5294B18684044186093
:104FD800B6E6CAF30B0CBCF1000F7FF4B1AEBC68A7
:104FE800C84448F001006060F5E61446F3E6012382
:104FF800536095E7B3F5AA7F24D8D30B03F1780162
:10500800C900773320E740F25452934224D8AB0CBE
:1050180003F17D0C03F17C044FEACC00C6E5ABF14B
:10502800080BD8444FF0000AA8EB0208AFE604F1D9
:1050380008013046009304F0D7F9BC68009B60680B
:105048001968C8E640F254518B420BD8930C03F10F
:105058007D01C9007C33F7E64FF47E704FF07F0C7A
:105068007E24A3E54FF47E717E23EDE67B6871E72D
:10507800DC0E0020032A10B516D940EA010C1CF0FA
:10508800030F04460B4622D119462046D1F800E00A
:10509800D0F800C00433F44504F1040417D1043AED
:1050A800032A20461946EFD8541EA2B100F1FF3C4E
:1050B800013901E0C3180CD01CF801EF11F8012FD9
:1050C800A4EB0C039645F5D0AEEB020010BD541EC0
:1050D800ECE7184610BD104610BD00BF88420DD938
:1050E8008B1883420AD900EB020CBAB1624613F856
:1050F80001CD994202F801CDF9D170470F2A0ED897
:10510800034602F1FF3C4AB10CF1010C013B8C440F
:1051180011F8012B614503F8012FF9D1704740EAD6
:1051280001039B074FD1A2F1100370B501F1200CC8
:1051380023F00F0501F1100E00F11004AC441B0917
:105148005EF8105C0EF1100E44F8105C5EF81C5C02
:10515800103444F81C5C5EF8185C44F8185C5EF87F
:10516800145CE64544F8145CEAD1013312F00C0FE4
:1051780001EB031102F00F0400EB031327D08E4656
:10518800043C24F003064FEA940C1E441C1F5EF8EE
:10519800045B44F8045FB442F9D10CF1010402F055
:1051A800030203EB840301EB840102F1FF3C4AB1E3
:1051B8000CF1010C013B8C4411F8012B614503F8FB
:1051C800012FF9D170BD034602F1FF3C9CE722464E
:1051D800EBE700BF830730B548D0541E002A3FD004
:1051E8000346CAB201E0013C3AD303F8012B9D07FC
:1051F800F9D1032C2DD9CDB245EA05250F2C45EA66
:10520800054536D9A4F1100222F00F0C03F1200E47
:10521800E6444FEA121C03F1100242E9045542E940
:10522800025510327245F8D10CF1010214F00C0F3E
:1052380003EB021204F00F0C13D0ACF1040323F0BB
:1052480003030433134442F8045B9342FBD10CF08C
:1052580003042CB1CAB21C4403F8012B9C42FBD1B5
:1052680030BD64461346002CF4D1F9E703461446D2
:10527800BFE71A46A446E0E7014804F05FBB00BF59
:10528800140F0020014804F05BBB00BF140F00207E
:105298000FB400B5074A83B004AB106853F8042B69
:1052A8008168019300F0F2FF03B05DF804EB04B0ED
:1052B800704700BFBC00002030B5054689B00846DD
:1052C8000C4600F061F801210223214A0494069259
:1052D800AA6B04AC0590084401940791AC6802934A
:1052E800039022B3636E13F0010FB4F90C309AB235
:1052F80001D1980525D5910406D4626E43F4005374
:1053080022F40052A3816266284601AA214604F0CD
:105318006BF9636E002814BF4FF0FF350A25DA07D2
:1053280002D4A3899B0506D5284609B030BD284676
:1053380003F0DEFED6E7A06D04F002FB284609B0B4
:1053480030BDA06D04F0FAFAB4F90C309AB2D2E785
:105358003CB00108024B01461868FFF7ADBF00BF1B
:10536800BC000020002238B5064D044608462A60D5
:10537800FCF70AFB431C00D038BD2B68002BFBD080
:10538800236038BD200F002020F0030110F0030037
:10539800C0F1000051F8043B00F1040C4FEACC0CBA
:1053A8006FF000021CBF22FA0CF213434FF0010CFD
:1053B8004CEA0C2C4CEA0C4CA3EB0C0222EA03023C
:1053C80012EACC1204BF51F8043B0430F4D0C2F105
:1053D800000102EA0102B2FA82F2C2F11F0200EBF6
:1053E800D20070472DE9F84F4B6E90469C042DD59E
:1053F8009368126843B38B46064602F1080959E9D7
:10540800025A5FEA9A0715D00024043D01E0A7423A
:105418000ED05A46304655F8041F03F061FF431C6E
:1054280004F10104F3D10023C8E90133BDE8F88F82
:10543800D8F808302AF0030AA3EB0A03C8F80830A2
:1054480009F10809002BDAD10020ECE704F0CCF8C8
:105458000023C8E90133BDE8F88F00BF10B4946891
:1054680014B110BCFFF7BEBF2046546010BC704793
:105478002DE9F04FBDB01C461746CDE90530029125
:1054880018B1836B002B00F07782029A536EDE0707
:1054980040F18481B2F90C108AB2900408D441F426
:1054A800005202994B6E8A8123F4005392B24B66E4
:1054B800110740F1EC80029B1B69002B00F0E7808C
:1054C80002F01A030A2B00F0F08013AB10930023AC
:1054D800CDE91133CDE90933CDE90B330DF14C0991
:1054E80004933B78002B00F046813C4604E014F816
:1054F800013F002B00F02181252BF8D1E51B40F05E
:105508001E812378002B00F036814FF00003002520
:105518004FF0FF3B4FF02B088DF83B306378039535
:10552800671C0137A3F120025A2A00F24681DFE8FE
:1055380012F0A102440144019D02440144014401C6
:105548007C02440144016A00530244012902AF026B
:105558004401AB025B005B005B005B005B005B002F
:105568005B005B005B0044014401440144014401C9
:1055780044014401440144011302780044014401F8
:1055880044014401440144014401440144014401EB
:10559800D100440144014401F7014401410244019E
:1055A80044012105440144014401440144014401EA
:1055B800440144014401440113027A0044014401B6
:1055C800440137027A00740044012D024401690243
:1055D800D300570274004401F701720041054401E9
:1055E80044014305440172000021A3F1300217F879
:1055F800013B01EB810102EB4101A3F13002092AD1
:10560800F5D903918EE7059B53F8042B002A0392E2
:105618000593C0F2B4813B7883E73B7845F02005D9
:105628007FE745F01005AC06059E40F16B81073613
:1056380026F007063246736852F8086B98460592BA
:10564800002BC0F24984BBF1FF3F00F0318556EAD8
:10565800080325F0800A00F025840A2E78F100035B
:1056680080F0E1840123554630368DF8EF600193D0
:105678000DF1EF04DDF804809DF83B30D845B8BF44
:10568800D846002B00F0A88008F10108A4E0029D8C
:105698000698294602F0E8FB002840F09485AA897C
:1056A80002F01A030A2B7FF410AF0299B1F90E30F9
:1056B800002BFFF60AAF4B6EDE0702D4950540F1CA
:1056C800628523463A46029906983DB0BDE8F04FF8
:1056D80000F09ABD45F0100515F0200800F0038190
:1056E800059E073626F007063346D6F8048053F899
:1056F800086B0593002325F4806A4FF000028DF8AB
:105708003B20BBF1FF3F00F0DD8156EA08022AF09A
:10571800800540F0D681BBF1000F40F0CC84002B0F
:1057280040F0C5831AF00103019300F0EC833023A5
:105738000DF1EF048DF8EF309CE7E51B1BD0119BB2
:10574800129A01332A44072BC9E900751292119362
:1057580005DC09F10809049B2B440493D1E6002ACF
:1057680000F09C830299069810AAFFF73BFE40B907
:105778000DF14C09EFE7129B002B40F01585002333
:105788001193029A536ED90740F1A28093895B0660
:1057980000F1258504983DB0BDE8F08F029BB3F970
:1057A8000C108D058AB23FF578AE1D46986D04F051
:1057B800C5F8B5F90C108AB26FE6002BDBD04FF0B4
:1057C80001088DF88C304FF0000323AC8DF83B3086
:1057D800CDF804804FF0000B15F00203079318BFB3
:1057E80008F1020815F08403089305D1039BA3EB85
:1057F8000806002E00F38A82DDE91112481C9DF884
:105808003B6076B1012101320DF13B060728CDE955
:105818001102C9E9006100F35882014609F108093B
:105828000130079BD3B102230232C9F8043007289C
:105838000FABCDE91102C9F8003040F36282002AAB
:1058480000F027830299069810AAFFF7CBFD0028DD
:1058580097D1DDE911120DF14C09481C089B802BEA
:1058680000F07181019BABEB0306002E00F3CF81A2
:10587800019B07281A44CDE91102C9F80040C9F86C
:10588800043040F35D81002A00F093820299069863
:1058980010AAFFF7A7FD00287FF473AF129A0DF145
:1058A8004C09680705D5039BA3EB0804002C00F3FB
:1058B8008A82DDE903134145ACBF5B184344049376
:1058C800002A40F0F38100230DF14C09119308E6FA
:1058D800029B9B899A053FF55AAF029CA06D04F084
:1058E8002FF8A38953E715F0100340F0188315F03B
:1058F800400200F01083059E984656F8043B059632
:105908009EB2F7E656F8043BE806059600F11083C8
:10591800690640F10A8343F3C0381EB243468FE656
:105928004FF00003059E8DF83B3056F8044B002CD1
:1059380000F0CF83BBF1FF3F00F041835A460021BE
:10594800204604F085F8002800F02284031B4FF05D
:10595800000B059601938DE64FF000034FF0010808
:10596800059E8DF83B3056F8043B23AC8DF88C30FF
:105978000596CDF804802DE703F0BAFB85E5039B77
:105988005B4203933B7845F00405CAE53B786C2BF2
:1059980003BF7B7845F02005013745F01005C0E5C9
:1059A8003B78682B03BF7B7845F40075013745F0D9
:1059B8004005B6E545F0100A1AF0200800F07E828E
:1059C800059E0123073626F007063246D6F80480DE
:1059D80052F8086B059290E63B788DF83B80A0E57D
:1059E80030228DF83C207822059B8DF83D2053F815
:1059F800046BBE4A05934FF00008022345F0020AE3
:105A080009927AE6AE0600F1A482EC0600F1598309
:105A1800680600F1B083A90540F15383059E049AF6
:105A280056F8043B1A7005965BE5069C204603F081
:105A38007DFF436818460B93FFF7A6FC03462046F4
:105A48000C931C4603F072FF83680A93002C3FF402
:105A5800E2AD0A9B002B3FF4DEAD0A9B1B78002BBE
:105A68003FF4D9AD3B7845F480655AE53B7845F07D
:105A7800010556E59DF83B30002B7FF4CCAD202383
:105A88008DF83B303B784CE53B7845F0800548E5A0
:105A9800394611F8013B2A2B00F0A683A3F1300206
:105AA800092A0F464FF0000B3FF63CAD17F8013BB3
:105AB8000BEB8B0B02EB4B0BA3F13002092AF5D948
:105AC80030E5AA46012B3FF4C8AD022B3CAC12D1FD
