:020000040800F2
:1000000000000120211D02087D3400087F34000813
:1000100081340008833400088534000800000000A3
:10002000000000000000000000000000A16D0008BA
:100030008734000800000000416E0008856E00084B
:10004000691D0208691D0208691D0208691D020870
:10005000691D0208691D0208691D0208691D020860
:10006000691D0208691D0208691D0208691D020850
:100070008934000899340008691D0208691D0208C6
:10008000691D0208691D0208691D0208691D020830
:10009000691D0208691D0208691D0208691D020820
:1000A000691D0208A9340008691D0208691D0208BB
:1000B000B9340008691D0208691D0208691D02089B
:1000C000691D0208691D0208691D0208C93400087B
:1000D000691D0208D9340008E9340008691D0208C6
:1000E000691D0208691D0208691D0208691D0208D0
:1000F000691D0208691D0208691D0208691D0208C0
:10010000691D0208691D0208691D0208691D0208AF
:10011000691D0208691D0208691D0208691D02089F
:10012000691D0208691D0208691D0208691D02088F
:1001300000000000000000000000000000000000BF
:1001400000000000000000000000000000000000AF
:10015000000000000000000000000000000000009F
:10016000000000000000000000000000000000008F
:10017000000000000000000000000000000000007F
:10018000000000000000000000000000000000006F
:10019000000000000000000000000000000000005F
:1001A000000000000000000000000000000000004F
:1001B000000000000000000000000000000000003F
:1001C000000000000000000000000000000000002F
:1001D000000000000000000000000000000000001F
:0401E0005FF8E0F1F3
:1001F00010B5054C237833B9044B13B10448AFF361
:1002000000800123237010BD980B00200000000027
:1002100014A4020808B5034B1BB103490348AFF30C
:10022000008008BD000000009C0B002014A4020800
:1002300053B94AB9002908BF00281CBF4FF0FF314D
:100240004FF0FF3000F076B9ADF1080C6DE904CE47
:1002500000F006F8DDF804E0DDE9022304B07047A1
:100260002DE9F047089E0D4604468846002B4DD1E7
:100270008A42944668D9B2FA82F252B101FA02F384
:10028000C2F1200120FA01F10CFA02FC41EA030854
:1002900094404FEA1C41B8FBF1F71FFA8CFE01FBBA
:1002A000178807FB0EF0230C43EA084398420AD94B
:1002B0001CEB030307F1FF3580F01E81984240F2EA
:1002C0001B81023F63441B1AB3FBF1F001FB1033A7
:1002D00000FB0EFEA4B244EA0344A6450AD91CEB77
:1002E000040400F1FF3380F00981A64540F2068145
:1002F000644402380021A4EB0E0440EA07401EB11A
:100300000023D440C6E90043BDE8F0878B4208D9FA
:10031000002E00F0EE800021C6E900050846BDE889
:10032000F087B3FA83F100294AD1AB4202D382426B
:1003300000F2FC80841A65EB030301209846002E2E
:10034000E2D0C6E90048DFE702B9FFDEB2FA82F286
:10035000002A40F09180A1EB0C0001214FEA1C47DC
:100360001FFA8CFEB0FBF7F307FB1300250C45EAE0
:1003700000450EFB03F0A84208D91CEB050503F16C
:10038000FF3802D2A84200F2CE8043462D1AB5FBB8
:10039000F7F007FB10550EFB00FEA4B244EA05443B
:1003A000A64508D91CEB040400F1FF3502D2A6458E
:1003B00000F2B6802846A4EB0E0440EA03409EE714
:1003C000C1F120078B4022FA07FC4CEA030C25FA06
:1003D00007FA4FEA1C49BAFBF9F820FA07F309FBC0
:1003E00018AA8D401FFA8CFE1D4300FA01F308FB8A
:1003F0000EF02C0C44EA0A44A04202FA01F20BD996
:100400001CEB040408F1FF3A80F08880A04240F21F
:100410008580A8F102086444241AB4FBF9F009FBB2
:10042000104400FB0EFEADB245EA0444A64508D9CF
:100430001CEB040400F1FF356CD2A6456AD90238E2
:10044000644440EA0840A0FB0295A4EB0E04AC42D1
:10045000C846AE4656D353D0002E69D0B3EB08023F
:1004600064EB0E0422FA01F304FA07F71F43CC40B1
:10047000C6E90074002147E70CFA02FCC2F1200132
:1004800025FA01F34FEA1C4720FA01F195400D438C
:10049000B3FBF7F107FB11331FFA8CFE280C40EA7F
:1004A000034001FB0EF3834204FA02F408D91CEB6B
:1004B000000001F1FF382FD283422DD90239604468
:1004C000C01AB0FBF7F307FB1300ADB245EA0045D5
:1004D00003FB0EF0A84208D91CEB050503F1FF3819
:1004E00016D2A84214D9023B6544281A43EA0141B6
:1004F00038E73146304607E72F46E4E61846F9E686
:100500004B45A9D2B9EB020865EB0C0E0138A3E705
:100510004346EAE7284694E74146D1E7D0467BE7E1
:100520006444023847E7023B65442FE7084606E784
:100530003146E9E6704700BF844641EA000313F004
:10054000030349D1403A23D30B6803604B684360EF
:100550008B688360CB68C3600B6903614B6943613F
:100560008B698361CB69C3610B6A03624B6A436227
:100570008B6A8362CB6AC3620B6B03634B6B43630F
:100580008B6B8363CB6BC36340304031403ADBD22B
:1005900030320BD30B6803604B6843608B68836019
:1005A000CB68C36010301031103AF3D20C3205D34F
:1005B00051F8043B40F8043B043AF9D2043208D025
:1005C000D2071CBF11F8013B00F8013B01D30B8897
:1005D00003806046704700BF082A13D38B07B1D051
:1005E00010F00303AED0C3F10403D21ADB071CBF23
:1005F00011F8013B00F8013BA4D331F8023B20F88D
:10060000023B9FE7043AD9D3013A11F8013B00F8C5
:10061000013BF9D20B7803704B7843708B78837071
:100620006046704780EA010C1CF0030F37D110F0D0
:10063000030C20F0030021F0030150F8042B08BF45
:1006400051F8043B0ED08CF0030C6FF07F434FEA5F
:10065000CC0C23FA0CFC51F8043B42EA0C0243EAAE
:100660000C0300BFA2F1013C9A4201BF2CEA020C2C
:100670001CF0803F50F8042B51F8043BF2D04FEAB5
:1006800002604FEA1222012828BFB0EB036F08BFB7
:100690001B0AF4D003F0FF03000EC01A704710F0DD
:1006A000030F0AD010F8012B11F8013B012A28BFD3
:1006B0009A42F4D0A2EB030070474DF8045D50F865
:1006C000042B01F0030521F0030151F8043B022D36
:1006D00026D04DD822F07F45B5EB132FA2F1013C77
:1006E0002CEA020C0DD11CF0803C08BF51F8043BF1
:1006F0000AD185EA0205B5EB036F0CD150F8042B43
:10070000E8E74FEA13235BE03CF07F4C54D10B78D1
:100710004FEA126554E04FEA126503F0FF034FE021
:100720004FEA0245A2F1013C4FEA15452CEA020CC2
:10073000B5EB134F18D11CF0803C08BF51F8043BB7
:1007400007D185EA0205B5EB034F09D150F8042B18
:10075000E6E75FEA0C4C2FD10B884FEA12452FE0F9
:100760004FEA03434FEA12454FEA134328E000BF24
:1007700002F0FF05B5EB136FA2F1013C2CEA020C6D
:100780000DD11CF0803C08BF51F8043B0AD185EA2A
:100790000205B5EB032F0AD150F8042BE8E74FEA26
:1007A00013630DE012F0FF0F06D051F8043B4FEA3F
:1007B000122523F07F4303E04FF0000020BC704778
:1007C00005F0FF0203F0FF00012828BF904204BF9C
:1007D0002D0A1B0AF4D0A2EB000020BC704700BF1A
:1007E00081F0004102E000BF83F0004330B54FEAE2
:1007F00041044FEA430594EA050F08BF90EA020F4F
:100800001FBF54EA000C55EA020C7FEA645C7FEAE1
:10081000655C00F0E2804FEA5454D4EB5555B8BF04
:100820006D420CDD2C4480EA020281EA030382EA75
:10083000000083EA010180EA020281EA0303362D07
:1008400088BF30BD11F0004F4FEA01314FF4801CDA
:100850004CEA113102D0404261EB410113F0004FEC
:100860004FEA03334CEA133302D0524263EB4303A3
:1008700094EA050F00F0A780A4F10104D5F1200E41
:100880000DDB02FA0EFC22FA05F2801841F100019C
:1008900003FA0EF2801843FA05F359410EE0A5F170
:1008A00020050EF1200E012A03FA0EFC28BF4CF0A1
:1008B000020C43FA05F3C01851EBE37101F0004557
:1008C00007D54FF0000EDCF1000C7EEB00006EEB64
:1008D0000101B1F5801F1BD3B1F5001F0CD34908EE
:1008E0005FEA30004FEA3C0C04F101044FEA445245
:1008F00012F5800F80F09A80BCF1004F08BF5FEACC
:10090000500C50F1000041EB045141EA050130BDAB
:100910005FEA4C0C404141EB0101013C28BFB1F5BD
:10092000801FE9D291F0000F04BF01460020B1FA08
:1009300081F308BF2033A3F10B03B3F120020CDADB
:100940000C3208DD02F1140CC2F10C0201FA0CF0B9
:1009500021FA02F10CE002F11402D8BFC2F1200C1E
:1009600001FA02F120FA0CFCDCBF41EA0C019040D4
:10097000E41AA2BF01EB0451294330BD6FEA04041D
:100980001F3C1CDA0C340EDC04F11404C4F1200208
:1009900020FA04F001FA02F340EA030021FA04F31A
:1009A00045EA030130BDC4F10C04C4F1200220FA71
:1009B00002F001FA04F340EA0300294630BD21FAAF
:1009C00004F0294630BD94F0000F83F4801306BF75
:1009D00081F480110134013D4EE77FEA645C18BF69
:1009E0007FEA655C29D094EA050F08BF90EA020F00
:1009F00005D054EA000C04BF1946104630BD91EAF8
:100A0000030F1EBF0021002030BD5FEA545C05D1FA
:100A10004000494128BF41F0004130BD14F5800439
:100A20003CBF01F5801130BD01F0004545F0FE41AD
:100A300041F470014FF0000030BD7FEA645C1ABFE2
:100A4000194610467FEA655C1CBF0B46024650EA19
:100A5000013406BF52EA033591EA030F41F4002145
:100A600030BD00BF90F0000F04BF0021704730B5CB
:100A70004FF4806404F132044FF000054FF00001A0
:100A800050E700BF90F0000F04BF0021704730B561
:100A90004FF4806404F1320410F0004548BF404236
:100AA0004FF000013EE700BF42004FEAE2014FEA8B
:100AB00031014FEA02701FBF12F07F4393F07F4F66
:100AC00081F06051704732F07F4208BF704793F069
:100AD0007F4F04BF41F40021704730B54FF460747C
:100AE00001F0004521F000411CE700BF50EA01027F
:100AF00008BF704730B54FF000050AE050EA010228
:100B000008BF704730B511F0004502D5404261EB97
:100B100041014FF4806404F132045FEA915C3FF4D8
:100B2000D8AE4FF003025FEADC0C18BF03325FEA75
:100B3000DC0C18BF033202EBDC02C2F1200300FA26
:100B400003FC20FA02F001FA03FE40EA0E0021FA4B
:100B500002F11444BDE600BF70B54FF0FF0C4CF439
:100B6000E06C1CEA11541DBF1CEA135594EA0C0FEB
:100B700095EA0C0F00F0DEF82C4481EA030621EA26
:100B80004C5123EA4C5350EA013518BF52EA033561
:100B900041F4801143F4801338D0A0FB02CE4FF013
:100BA0000005E1FB02E506F00042E0FB03E54FF043
:100BB0000006E1FB03569CF0000F18BF4EF0010E3B
:100BC000A4F1FF04B6F5007F64F5407404D25FEA37
:100BD0004E0E6D4146EB060642EAC62141EA5551EA
:100BE0004FEAC52040EA5E504FEACE2EB4F1FD0C2C
:100BF00088BFBCF5E06F1ED8BEF1004F08BF5FEAAA
:100C0000500E50F1000041EB045170BD06F000465B
:100C100046EA010140EA020081EA0301B4EB5C0408
:100C2000C2BFD4EB0C0541EA045170BD41F4801100
:100C30004FF0000E013C00F3AB8014F1360FDEBF25
:100C4000002001F0004170BDC4F10004203C35DA01
:100C50000C341BDC04F11404C4F1200500FA05F384
:100C600020FA04F001FA05F240EA020001F0004225
:100C700021F0004110EBD37021FA04F642EB06019B
:100C80005EEA430E08BF20EAD37070BDC4F10C04C5
:100C9000C4F1200500FA04F320FA05F001FA04F289
:100CA00040EA020001F0004110EBD37041F1000175
:100CB0005EEA430E08BF20EAD37070BDC4F1200580
:100CC00000FA05F24EEA020E20FA04F301FA05F2E8
:100CD00043EA020321FA04F001F0004121FA04F290
:100CE00020EA020000EBD3705EEA430E08BF20EA60
:100CF000D37070BD94F0000F0FD101F0004640009A
:100D000041EB010111F4801F08BF013CF7D041EA1B
:100D1000060195F0000F18BF704703F0004652001F
:100D200043EB030313F4801F08BF013DF7D043EAF0
:100D30000603704794EA0C0F0CEA135518BF95EAA6
:100D40000C0F0CD050EA410618BF52EA4306D1D12D
:100D500081EA030101F000414FF0000070BD50EA4C
:100D6000410606BF1046194652EA430619D094EAD6
:100D70000C0F02D150EA013613D195EA0C0F05D1C0
:100D800052EA03361CBF104619460AD181EA030114
:100D900001F0004141F0FE4141F470014FF00000CC
:100DA00070BD41F0FE4141F4780170BD70B54FF067
:100DB000FF0C4CF4E06C1CEA11541DBF1CEA1355E7
:100DC00094EA0C0F95EA0C0F00F0A7F8A4EB0504C9
:100DD00081EA030E52EA03354FEA013100F08880C0
:100DE0004FEA03334FF0805545EA131343EA126389
:100DF0004FEA022245EA111545EA10654FEA00263E
:100E00000EF000419D4208BF964244F1FD0404F5F6
:100E1000407402D25B084FEA3202B61A65EB030552
:100E20005B084FEA32024FF480104FF4002CB6EB0F
:100E3000020E75EB030E22BFB61A754640EA0C008F
:100E40005B084FEA3202B6EB020E75EB030E22BFCF
:100E5000B61A754640EA5C005B084FEA3202B6EB10
:100E6000020E75EB030E22BFB61A754640EA9C00CF
:100E70005B084FEA3202B6EB020E75EB030E22BF9F
:100E8000B61A754640EADC0055EA060E18D04FEA5D
:100E9000051545EA16754FEA06164FEAC30343EAFD
:100EA00052734FEAC2025FEA1C1CC0D111F4801FCA
:100EB0000BD141EA00014FF000004FF0004CB6E7C3
:100EC00011F4801F04BF01430020B4F1FD0C88BF62
:100ED000BCF5E06F3FF6AFAEB5EB030C04BFB6EB6D
:100EE000020C5FEA500C50F1000041EB045170BD60
:100EF0000EF0004E4EEA113114EB5C04C2BFD4EB8D
:100F00000C0541EA045170BD41F480114FF0000E10
:100F1000013C90E645EA060E8DE60CEA135594EA8C
:100F20000C0F08BF95EA0C0F3FF43BAF94EA0C0F8F
:100F30000AD150EA01347FF434AF95EA0C0F7FF404
:100F400025AF104619462CE795EA0C0F06D152EA58
:100F500003353FF4FDAE1046194622E750EA41063C
:100F600018BF52EA43067FF4C5AE50EA41047FF44D
:100F70000DAF52EA43057FF4EBAE12E74FF0FF3CB2
:100F800006E000BF4FF0010C02E000BF4FF0010C83
:100F90004DF804CD4FEA410C7FEA6C5C4FEA430CFC
:100FA00018BF7FEA6C5C1BD001B050EA410C0CBF4B
:100FB00052EA430C91EA030F02BF90EA020F0020AD
:100FC000704710F1000F91EA030F58BF994208BF14
:100FD00090422CBFD8176FEAE37040F001007047D1
:100FE0004FEA410C7FEA6C5C02D150EA013C07D128
:100FF0004FEA430C7FEA6C5CD6D152EA033CD3D073
:101000005DF8040B704700BF8446104662468C466C
:101010001946634600E000BF01B5FFF7B7FF00289F
:1010200048BF10F1000F01BD4DF808EDFFF7F4FFC8
:101030000CBF012000205DF808FB00BF4DF808ED53
:10104000FFF7EAFF34BF012000205DF808FB00BF76
:101050004DF808EDFFF7E0FF94BF012000205DF898
:1010600008FB00BF4DF808EDFFF7CEFF94BF01204D
:1010700000205DF808FB00BF4DF808EDFFF7C4FF46
:1010800034BF012000205DF808FB00BF4FEA410C8F
:101090007FEA6C5C02D150EA013C0AD14FEA430C72
:1010A0007FEA6C5C02D152EA033C02D14FF00000AF
:1010B00070474FF0010070474FEA410212F50012ED
:1010C00015D211D56FF47873B3EB625212D94FEA8F
:1010D000C12343F0004343EA505311F0004F23FA79
:1010E00002F018BF404270474FF00000704750EACE
:1010F000013005D111F0004008BF6FF0004070478B
:101100004FF00000704700BF00B583B08DF80700B6
:10111000FF2301220DF10701024804F04DF903B04D
:101120005DF804FBB814002008B501224FF480518B
:10113000044803F04BFB01224021034803F046FB27
:10114000002008BD000C01400010014010B40A4C02
:1011500020816181A3816082A182E28100232382B8
:101160002AB1B42A03D0044B9980D88002E0024B04
:101170009880D98010BC7047BC0B0020014B1860D0
:10118000704700BFB40B0020014B1860704700BFD0
:10119000B80B002010B584B0044630B15A2804D0F2
:1011A000B42802D0B0F5877F0ED102940C4B019386
:1011B0008C2300930B4B0C4A0C49032000F0E2FAFD
:1011C0000B4BDC8104B010BD0A4B01938F230093BD
:1011D000044B054A0549032000F0D4FAF2E700BFAA
:1011E00084A40208B8A4020848A4020880A4020843
:1011F000BC0B00209CA4020810B5044601224FF449
:101200008051034803F0E2FA2046FFF77DFF10BD4E
:10121000000C014010B5044600224FF480510348F1
:1012200003F0D4FA2046FFF76FFF10BD000C014019
:1012300010B50D4C01224021204603F0C7FA64206E
:1012400002F0E0FA00224021204603F0BFFA6420B9
:1012500002F0D8FA01224021204603F0B7FA6420B8
:1012600002F0D0FA10BD00BF0010014010B50446D6
:1012700001224FF48051054803F0A8FA200AFFF735
:1012800043FFE0B2FFF740FF10BD00BF000C01407C
:1012900008B5FFF7CDFF642002F0B4FA1120FFF784
:1012A000B9FF782002F0AEFACF20FFF7B3FF00209D
:1012B000FFF7A2FFC120FFF79FFF3020FFF79CFF41
:1012C000ED20FFF7A7FF6420FFF796FF0320FFF74D
:1012D00093FF1220FFF790FF8120FFF78DFFE8209A
:1012E000FFF798FF8520FFF787FF0020FFF784FFB7
:1012F0007920FFF781FFCB20FFF78CFF3920FFF724
:101300007BFF2C20FFF778FF0020FFF775FF3420CC
:10131000FFF772FF0220FFF76FFFF720FFF77AFF5A
:101320002020FFF769FFEA20FFF774FF0020FFF796
:1013300063FF0020FFF760FFC020FFF76BFF1D2059
:10134000FFF75AFFC120FFF765FF1220FFF754FF98
:10135000C520FFF75FFF3320FFF74EFF3F20FFF769
:101360004BFFC720FFF756FF9220FFF745FF3A20BB
:10137000FFF750FF5520FFF73FFF3620FFF74AFFEA
:101380000820FFF739FFB120FFF744FF0020FFF7E7
:1013900033FF1220FFF730FFB620FFF73BFF0A2094
:1013A000FFF72AFFA220FFF727FF4420FFF732FFB5
:1013B0000220FFF721FFF220FFF72CFF0020FFF7AC
:1013C0001BFF2620FFF726FF0120FFF715FFE02077
:1013D000FFF720FF0F20FFF70FFF2220FFF70CFF82
:1013E0001C20FFF709FF1B20FFF706FF0820FFF76F
:1013F00003FF0F20FFF700FF4820FFF7FDFEB82096
:10140000FFF7FAFE3420FFF7F7FE0520FFF7F4FEA2
:101410000C20FFF7F1FE0920FFF7EEFE0F20FFF78B
:10142000EBFE0720FFF7E8FE0020FFF7E5FEE120D6
:10143000FFF7F0FE0020FFF7DFFE2320FFF7DCFEC2
:101440002420FFF7D9FE0720FFF7D6FE1020FFF774
:10145000D3FE0720FFF7D0FE3820FFF7CDFE472050
:10146000FFF7CAFE4B20FFF7C7FE0A20FFF7C4FEB6
:101470001320FFF7C1FE0620FFF7BEFE3020FFF766
:10148000BBFE3820FFF7B8FE0F20FFF7B5FE29207E
:10149000FFF7C0FE08BDF8B507460E4615461C46C8
:1014A0002A20FFF7B7FE380AFFF7A6FEF8B2FFF7CB
:1014B000A3FE681EC0F30720FFF79EFEE8B20138C6
:1014C000C0B2FFF799FE2B20FFF7A4FE300AFFF70A
:1014D00093FEF0B2FFF790FE601EC0F30720FFF707
:1014E0008BFEE0B20138C0B2FFF786FE2C20FFF77A
:1014F00091FEF8BD70B505460C462A20FFF78AFE1E
:101500002E0A3046FFF778FEEDB22846FFF774FE4C
:101510003046FFF771FE2846FFF76EFE2B20FFF7DF
:1015200079FE250A2846FFF767FEE4B22046FFF75A
:1015300063FE2846FFF760FE2046FFF75DFE2C2085
:10154000FFF768FE70BD000070B505464FF4A0734C
:10155000F02200210846FFF79EFF01224FF4805140
:10156000094803F033F9002609E02846FFF77EFE1C
:101570000134A4B2B4F5A07FF7D30136B6B2EF2E92
:1015800001D80024F6E770BD000C014010B51446E8
:10159000FFF7B0FF2046FFF769FE10BD2DE9F041CF
:1015A00084B02B4E2B4D2C4C2C4B01933A230093A3
:1015B00033462A462146032000F0E4F8FFF7B4FD45
:1015C000274B01933D23009333462A4621460320AF
:1015D00000F0D8F8FFF75CFE4FF6FF70FFF7B4FF9E
:1015E000204B01934123009333462A462146032092
:1015F00000F0C8F84FF4A078CDF80C80F0270297DF
:10160000194B01934223009333462A462146032077
:1016100000F0B8F84FF6FF73002241463846FFF756
:1016200095FD124B01934523009333462A462146EC
:10163000032000F0A7F80E48FFF7A0FD0D48FFF7C4
:10164000A3FD0020FFF7A6FD04B0BDE8F08100BFB8
:1016500098A50208C8A4020880A4020808A50208E8
:1016600020A5020840A5020854A5020878A5020892
:10167000491500088D1500080020704708B5FF23A4
:101680008AB20146014804F0ABFF08BDEC1500200A
:1016900008B5044B186818B14FF0FF3106F0E3F8B5
:1016A00008BD00BF88B9002008B5044B186820B1F8
:1016B00000231A46194605F0E2FE08BD88B900204D
:1016C00010B502F099F80246034C0449204621F077
:1016D00053F9204610BD00BFD40B0020ACA5020872
:1016E0007047704770B5002412E00B4D04EB4416B0
:1016F00006F1300028441F220021023020F040FF74
:101700003544002385F8313085F851300134E4B296
:10171000042CEAD970BD00BFE40B0020014B83F814
:10172000F1007047E40B0020014B83F8F50070478F
:10173000E40B002008B5084B93F8F23023B9064BB0
:10174000012283F8F32008BDFFF7A2FF024B01221C
:1017500083F8F420F7E700BFE40B002008B5084B3E
:1017600093F8F23023B9064B002283F8F32008BD2A
:10177000FFF79AFF024B002283F8F420F7E700BF3F
:10178000E40B00202DE9F0478EB005460E4690464A
:101790009946084621F0D6F9074600240C94ADF886
:1017A0003440089409940A940B94052D07D9AC4B46
:1017B0001B687BB14FF40F72AA49AB489847AB4BFB
:1017C00093F8F1301BB1A94B1B78AB4212D20EB08B
:1017D000BDE8F087A34B4FF40F7204920393A24924
:1017E0000291A34901910092A24AA3492046FFF722
:1017F000C9FFFEE7304600F01BFAA842E7D39F4935
:10180000304621F09BFB0028E1D018AB0793FFF78F
:1018100091FF964B93F8F53063BB002401212846D5
:1018200000F060FA002836D10221284600F05AFA6A
:1018300000283AD11C21284600F054FA002854D13F
:10184000E021284600F04EFA002840F0A580079BD2
:10185000179AC4F580618A48204425F0B7FE0444F5
:10186000B4F5806F00F22281002880F221814FF4CC
:1018700080641DE1DFF808A2824A5146002000F092
:10188000A7FA0446804B53F825200AEB000100F02C
:101890009FFA0444C2E77D4B53F825207849214440
:1018A000204600F095FA0444BEE7324674492144CC
:1018B000204600F08DFA04440F2F07D9744A70496E
:1018C0002144204600F084FA0444B3E7C7F10F0234
:1018D00020210DEB010020F053FE08AA68492144A5
:1018E000204600F075FA0444E8E76A4A6449214456
:1018F000204600F06DFA04440421284600F0F2F975
:1019000090B90821284600F0EDF920BB10212846A7
:1019100000F0E8F9002835D15F4A594921442046B2
:1019200000F056FA04448BE7FFF7CAFE024654491A
:101930002144204600F04CFA04441821284600F0C7
:10194000D1F90028DDD0524A4D492144204600F00B
:101950003FFA0444D5E7FFF7C3FE02464849214455
:10196000204600F035FA04441021284600F0BAF968
:101970000028CBD0464A42492144204600F028FAAC
:101980000444C3E7FFF7ADFE02463D49214420462B
:1019900000F01EFA0444BFE7404A3949214420467A
:1019A00000F016FA04442021284600F09BF990B973
:1019B0008021284600F096F978BB4021284600F0A7
:1019C00091F9002844D1364A2D492144204600F09F
:1019D000FFF904443BE7424629492144204600F0F0
:1019E000F7F904444021284600F07CF938B12D4A2B
:1019F00023492144204600F0EBF90444D8E7802134
:101A0000284600F06FF90028D2D0214A1C49214411
:101A1000204600F0DDF90444CAE7169B224A05215E
:101A20000CA820F067FF0CAA15492144204600F0BD
:101A3000CFF904444021284600F054F90028BCD0D6
:101A4000134A0F492144204600F0C2F90444B4E788
:101A50004A460B492144204600F0BAF90444B2E753
:101A6000DC0C002010A7020800A60208E40B0020EE
:101A70001CA60208B0A50208F8A50208E50B002084
:101A8000E00C002040A6020858A7020870A7020830
:101A900044A6020848A602084CA6020850A602085E
:101AA0005CA6020854A6020858A602084FF48064F7
:101AB000631DB3F5806F01D940F2FB34134B93F8EB
:101AC000203033B1124800230355124921F036FA71
:101AD00080B10E4B93F8F5307BB90D4D0E4A2919A4
:101AE000204600F075F921182846FFF7C7FDFFF7DB
:101AF00035FE6CE6FFF732FE69E6084A04492144E8
:101B0000204600F065F90444E7E700BFE40B00203D
:101B1000E00C0020040C00203CA5020860A602088E
:101B20000C4B93F8F03003B9704700B585B0012035
:101B3000FFF7F4FD084B0293084B0193F423009345
:101B4000074B084A08490320FFF71CFE05B05DF863
:101B500004FB00BFE40B002068A6020870A6020880
:101B6000F4A60208B0A50208F8A5020830B587B0AF
:101B700004460D46052807D90E4B1B6853B14FF498
:101B80009F720D490D48984736340D4B43F8245049
:101B900007B030BD084B4FF49F720492039307497E
:101BA0000291084901910092074A08490020FFF775
:101BB000E9FDFEE7DC0C002048A7020800A60208A9
:101BC000E40B00201CA60208B0A50208F8A5020834
:101BD00010B586B00446052807D90E4B1B6843B1E3
:101BE0004FF4AC720C490D4898470D4B1C7006B071
:101BF00010BD094B4FF4AC72049203930749029154
:101C0000084901910092084A08490020FFF7BAFDEF
:101C1000FEE700BFDC0C002034A7020800A6020883
:101C2000E40B00201CA60208B0A50208F8A50208D3
:101C300070B586B0064640B1234B93F8F030002BC8
:101C40003FD0FFF777FD002419E0204B1B682BB134
:101C50004FF4EF721E491F489847EDE71C4B4FF4B5
:101C6000EF72049203931B4902911B490191009268
:101C70001A4A1B49FFF786FDFEE70134E4B2042C43
:101C800019D804EB4412104B134493F85130002B35
:101C9000F3D002F130030C4919441E2202313046C0
:101CA00020F07EFF0028E8D104EB4415064B1D44CC
:101CB00095F8314000E00524FFF750FD204606B0BE
:101CC00070BD0524FAE700BFE40B0020DC0C002007
:101CD0001CA7020898A602081CA60208B0A50208C4
:101CE000F8A5020830B587B004460D46052807D987
:101CF000114B1B686BB140F2DB221049104898472A
:101D00003634104B53F824302B4212D0012007B048
:101D100030BD0A4B40F2DB22049203930849029142
:101D2000094901910092094A09490020FFF72AFD5B
:101D3000FEE70020EBE700BFDC0C002000A7020854
:101D400000A60208E40B00201CA60208B0A50208A9
:101D5000F8A5020808B50B4B83F8F20058B193F8C8
:101D6000F4301BB9074A92F8F3202AB91BB1054B8E
:101D700093F8F3301BB108BDFFF78AFCFBE7FFF7D0
:101D800093FCF8E7E40B002038B5104B93F8F030E3
:101D900013B10024204638BDFFF76EFC044600282E
:101DA000F8D10120FFF7D6FF084D002385F8F33066
:101DB00085F8F4300120FFF7B7FC0520FFF708FF96
:101DC000FFF790FC012385F8F030E3E7E40B0020F7
:101DD00070B586B0054616460C4681B136B330461E
:101DE0000178002939D005F1010CB5F5806F34D2A6
:101DF0000130234603F8011B1C466546F0E7184BEB
:101E00001B6823B12C22174917489847E6E7154B62
:101E10002C220492039314490291144901910092D7
:101E2000134A14490020FFF7ADFCFEE70C4B1B687A
:101E300023B12D220B4910489847D0E7094B2D229A
:101E4000049203930C490291084901910092084AB7
:101E500008490020FFF796FCFEE7801B06B070BD26
:101E6000DC0C0020E0A70208D8A702081CA6020884
:101E700088A70208F8A50208DCA7020838B50B8875
:101E8000052B01D0032038BD0C464378817841EA08
:101E90000321013189B2C378027942EA0322531E39
:101EA0009BB240F2CE7C634520D8002323800123DF
:101EB000037023880133238012F0070F10D0C2F380
:101EC000C7030133DDB2457023880133238000232B
:101ED00002301FF0E3FE30B923882B442380D2E781
:101EE000C2F3C705EFE700F0F0F9CCE70320CAE73B
:101EF0000B88052B01D0032070474378817841EA95
:101F00000321013189B20379F3B9C278531EDBB2E0
:101F1000FD2B1BD900B583B000238DF80530FF2AB7
:101F20000BD000238DF8043001231A4601A81FF0BE
:101F3000B5FE30B903B05DF804FB01238DF8043021
:101F4000F2E700F0C2F9F5E703207047032070477D
:101F50000B88052B2DD910B50C464178837843EAC0
:101F60000123013399B2C278037943EA022290F83F
:101F700005E013F0070F0ED0C2F3C70C0CF1010CF3
:101F80005FFA8CFC531E9BB2B3F5F66F13D2F44587
:101F900004D0032010BDC2F3C70CF3E701230630C1
:101FA0001FF07CFE10B905232380F3E700F08DF9C4
:101FB000F0E7032070470320ECE738B50B88052BCA
:101FC00001D0032038BD0C464378817841EA0321D3
:101FD000013189B2C378027942EA0322531E9BB2CF
:101FE00040F2CE7C63451FD8002323800223037078
:101FF00023880133238012F0070F0FD0C2F3C703E9
:102000000133DDB2457023880133238002301FF095
:1020100085FE30B923882B442380D3E7C2F3C7055C
:10202000F0E700F052F9CDE70320CBE708B50B88C5
:10203000052B01D0032008BD4378817841EA0321B4
:10204000013101231A4689B203301FF025FE002812
:10205000F1D000F03AF9EEE70B88052B22D910B544
:102060000C464178837843EA0123013399B2C3785F
:10207000027942EA032290F805C0531E9BB2772BE7
:1020800012D85300DBB2634501D0032010BD0123F9
:1020900006301FF001FE10B905232380F6E700F09B
:1020A00014F9F3E7032070470320EFE738B50B88F6
:1020B000052B01D0032038BD0C464378817841EAD6
:1020C0000321013189B2027995B2531E9BB27C2B58
:1020D00001D90320EFE70023238084464FF0030E4D
:1020E0000CF802EBB4F800E00EF1010EA4F800E0E9
:1020F000520042702288013222802A4660461FF038
:10210000CBFD20B9238803EB45052580D3E700F0FC
:10211000DCF8D0E7F8B50B88092B45D904460D4605
:102120004378817841EA032101318EB2C37807797F
:1021300047EA03274379817941EA0321013189B2D2
:10214000C379027A42EA0322407A7B1E9BB27C2B3F
:102150002CD86AB3792A2DD8B0EB420F01D00320D6
:1021600023E0012304F10A001FF096FD034618B195
:10217000D8B100F0AAF818E028802046172200F80D
:10218000022B2A8801322A807A0062702A88013262
:102190002A803A4631461FF07FFD0028E8D12B887F
:1021A00003EB47072F80E3E70020F8BD0320FCE79F
:1021B0000320FAE70320F8E738B50B88052B01D098
:1021C000032038BD0C464378817841EA0321013170
:1021D00089B2C378057945EA03256B1E9BB27B2B38
:1021E00001D90320EDE7002323800346042203F8EE
:1021F000022B2288013222806A004270228801323A
:1022000022802A4618461FF023FD20B9238803EBBD
:1022100045052580D5E700F058F8D2E738B50D46DA
:10222000054B1C88224605490130FEF785F901342B
:102230002C80002038BD00BF00110020E0100020DD
:1022400010B5082A21D84FEAD10C01F0070E03FA85
:102250000EFE012393409BB2013B9BB201F00701AC
:1022600003FA01F110F80C300CF10102845C43EA2E
:1022700004231BB223EA01031BB243EA0E0300F856
:102280000C30C3F30723835410BD034B034A37219B
:1022900003481FF06BFD00BFECA7020848A8020826
:1022A000FCA702084FEAD10C012393409BB2013BEB
:1022B00010F80C206044407842EA002001F0070149
:1022C000084180B21840C0B27047012805D00728E5
:1022D00005D008B1042070477047022070470620DF
:1022E0007047000038B50446084601F1FF3C5FFA2C
:1022F0008CFCBCF1F60F2DD811461A46184B1870FD
:102300000CB1022527E0174B174D1D60174B184DD8
:102310001D60184B184D1D60184B194D1D60194B51
:1023200000251D60184B194D1D60194B194D1D607E
:10233000194B1A4D1D609DF8103000F0E7F8054666
:1023400048B900F08BFA40B1154B1C70154B0122B7
:102350001A7000E00225284638BD0325FBE700BFC0
:1023600025110020101100205D2500081411002007
:102370007D2500080811002009260008041100200E
:10238000952500080C110020181100209D2600083A
:102390001C1100204D27000820110020E127000813
:1023A000031100200000002008B5064B1B78012B0C
:1023B00001D0062008BD044B1B6898470020014B44
:1023C0001870F7E7000000201011002030B583B02E
:1023D000364B1C78002C63D10DF1070000F052FA47
:1023E000012802D0204603B030BD9DF80730012BF4
:1023F00014D0022BF6D12E4B186801782D4B197092
:102400002D4B01221A7000230F2B25DC2B4A12F8CA
:1024100033200AB3914217D00133F5E7284B1B68EC
:10242000284A23492848984705460028DAD1264BF0
:102430001B78264A1278934201D0002B32D1022019
:1024400000F014FA2C46CDE71C4A02EBC3035B688C
:102450001C499847184B18701B4B1B7823B3164B1D
:102460001B789BB1174A0021118012490978104846
:1024700005684FF0010CA2F800C041F080012970FE
:102480000068118801EB0C0515804354104B1B6844
:102490000C4A1288064909680C4800789847A1E759
:1024A00006249FE704469DE71C469BE700000020AA
:1024B0002811002024110020021100200400002017
:1024C000041100202E1100202C11002025110020C5
:1024D0000811002000B5FF2296460AE010F8013BE3
:1024E0005340084AD25C82EA0E02074911F803E021
:1024F00061464B1E1FFA83FC0029EFD142EA0E20F1
:102500005DF804FB58A8020858A9020870B50D46EA
:1025100014461E4604F056FC33460822214628463F
:1025200000F0DCF9012804D0032404F06DFC2046FF
:1025300070BDB4F5964F0AD864000748B0FBF4F0BC
:1025400080B200F0EBF9012803D00324EDE723204B
:10255000F6E70024E9E700BFA07F170008B504F004
:1025600031FC0021044B1970012000F09BF900F0B0
:10257000E5F904F049FC08BD3011002008B504F06D
:1025800021FC0021084600F08DF900F0E1F904F08B
:102590003BFC08BD70B505460C46164604F012FC1F
:1025A000144B1B889BB2FF2B09D8124B1B889BB284
:1025B000032B0AD8052404F027FC204670BD0E4BDF
:1025C0000E4A9C210E481FF0D1FB0A4B198889B294
:1025D0000C48FFF77FFF58B90A4A12F8013B2B70ED
:1025E000044B1B889BB2033B338022600024E2E74C
:1025F0000524E0E73812002058AA02089CAB020824
:1026000080AA0208381100202DE9F04106460C4648
:10261000154604F0D7FB1C4B1B78DBB2012B05D011
:10262000052404F0F1FB2046BDE8F081601E174B45
:102630001860174F4FF00108A7F8008004F8016CEC
:102640003A8892B21544ADB23D80398889B2FFF71D
:1026500041FF3B889BB203EB080292B23A80C2B2C0
:102660000C49CA543B889BB203EB080292B23A80F1
:10267000C0F30720C854084B83F80080414600206F
:1026800000F010F90024CCE73011002034110020B4
:102690003A120020381100203111002000B583B01B
:1026A000234B1B7863B90DF1070000F027F9214B8C
:1026B0001B78DBB2032B0BD8DFE803F00811230EE5
:1026C0001D4B1E4AE6211E481FF050FB00F036F954
:1026D000002003B05DF804FB00F030F9F8E7194A78
:1026E0000023138013889BB2591C89B211809DF876
:1026F0000710154AD1540F4B02221A7000F01EF930
:10270000E6E7104B1B889BB2FF2B0CD80D490B88BA
:102710009BB25A1C92B20A809DF807100A4AD15403
:1027200000F00CF9D4E7034B03221A70F8E700BF5E
:102730003111002030110020C4AA020888AB020821
:1027400080AA0208381200203811002010B51D4B55
:102750001B78DBB2012B09D11B4B1B7803F0FF0464
:102760005BB1012C0ED00024204610BD174B184A37
:102770004FF48F7117481FF0F9FA0021012000F083
:1027800091F8F1E7144B1B889BB27BB1134C236883
:10279000187800F0A5F82368013323600E4A1388E7
:1027A0009BB2013B9BB213800024DDE7032000F0C5
:1027B0005DF804460021012000F074F8024B00226D
:1027C0001A70D1E73011002031110020E0AA020870
:1027D00074AB020880AA02083A12002034110020CB
:1027E00010B51A4B1B78DBB2022B18D0032B22D06A
:1027F00083B1164B1B7803F0FF04EBB1134B1B782E
:10280000DBB2022B1FD0114B1B78DBB2032B0BD199
:10281000002411E0002000F029F804460CE001201B
:1028200000F024F8044607E0094B0A4A4FF4AB7164
:1028300009481FF09BFA002400F08AF8034B01229C
:102840001A70204610BD0024F6E700BF30110020AA
:10285000FCAA02085CAB020880AA0208024B002214
:102860001A700120704700BF3D1200200123034A67
:102870001370034A10701846704700BF3D120020C5
:102880003C1200200346054A107830B1044A127801
:102890001A70024B00221A70012070473D1200206E
:1028A0003C12002010B50C4660B1012209490A48CB
:1028B00004F0AFF954B1084B1A68D36843F04003F1
:1028C000D36010BD044803F069FFF3E7024803F04A
:1028D00019FFF6E73F120020A415002001207047E1
:1028E00008B5044908700122034803F0D8FE01200E
:1028F00008BD00BF3E120020A415002008B5054900
:102900000B78037000230B700122034804F081F957
:10291000012008BD3F120020A4150020064A1368BC
:10292000002159626FF001011961322101FB00F0B1
:10293000D862D060012070475C15002008B50348BC
:10294000036800225A6202F0AFFF08BD5C15002048
:1029500008B5024803F00CF808BD00BF5C15002064
:10296000C27883781B0443EA0263427843EA022375
:102970000078184370470870030A4B70030C8B7083
:10298000000EC8707047000008B50A46FF230146D4
:10299000014803F025FE08BDEC150020F0B58BB012
:1029A00006460D4600230593069307930893099363
:1029B000019302930393ADF81030A0F16403062B4A
:1029C00011D8DFE803F0041032375E6E5E002B781A
:1029D0008DF804300023CDF80530CDF80930CDF85E
:1029E0000D308DF811305A238DF8143014258DF8E0
:1029F00015502D4F3B788DF816308DF8176006ACCA
:102A000001AB0FCB07C423800DF126010DEB0500B0
:102A100000F01DFA3B7801333B702A4629460DEB46
:102A20000500FFF7B1FF0BB0F0BD294601A8FDF787
:102A300083FDD8E72B680193002302930393ADF83D
:102A40001030D0E70134E4B2052C2AD82001174B0E
:102A500003EB041739792A789142F3D18DF80420D9
:102A60007A7B8DF811200DF105011858FFF783FFCF
:102A7000D7F80520D7F80930CDF80920CDF80D306A
:102A8000E0E70024E0E70133DBB2052BABD8074ACF
:102A900002EB031211792A789142F4D18DF80420C7
:102AA000F1E70023F1E700BF2C140020D400002040
:102AB00010B584B00B46054C029401940092024676
:102AC000034904481FF058FF04B010BDCCAB020806
:102AD000ACAB0208AC13002008B530220249034811
:102AE0001EF0D2FE08BD00BF4C12002000F8030803
:102AF00008B500231A4601E00133DBB2052B15D8D7
:102B00004FEA031E0C4901EB031090F80DC01CF0B6
:102B1000040FF1D090F804C0084800F832C051F812
:102B20000E1000EBC20041600132E5E7D20003491C
:102B300003481EF069FE08BDD40000207C1200206E
:102B400000F803082DE9F04387B00023ADF81430F6
:102B5000964C05A904F12C0000F079F9022205A990
:102B600004F13E001FF05CFC98B994F82F00A0F12E
:102B70006403062B0DD8DFE813F007000F001B00DD
:102B8000C900EC0012011401894901220A70FFF703
:102B900005FF07B0BDE8F083FFF7AAFF0021844BD3
:102BA00019700A46814B93F82F00FFF7F7FEF0E704
:102BB00080481FF0C7FF804EA6FB0036B708C6F35B
:102BC000870607EB470407EB8404041BE4B20023E9
:102BD000019302930393ADF8103020B10025002C2F
:102BE0007ED0002436E081238DF80430734B1868C2
:102BF000CDF805009A889B79ADF809208DF80B3047
:102C00000E2201A9694B93F82F00FFF7C7FE01259B
:102C1000E5E76B1CDDB203F07F038DF8043004EBB5
:102C2000440304EB83036349CA18C8585168936886
:102C3000CDF80500CDF80910CDF80D30137B8DF8D7
:102C400011300E2201A9594B93F82F00FFF7A6FE71
:102C50000134E4B2B442DCD3013565F07F058DF870
:102C60000450FFB207EB470307EB8307514AD31920
:102C7000D05959689A68CDF80500CDF80910CDF8FB
:102C80000D201B7B8DF811300E2201A9474B93F8C4
:102C90002F00FFF783FE7CE76FF07F026B1CDDB235
:102CA00003F07F0313438DF8043004EB440304EB7B
:102CB00083034049CA18C85851689368CDF8050085
:102CC000CDF80910CDF80D30137B8DF811300E22A0
:102CD00001A9364B93F82F00FFF760FE0134E4B2F0
:102CE000B442BFF456AFFBB2013B9C42D4D00022A9
:102CF000D4E70133DBB2052B0BD8314A02EB0312C8
:102D0000527B12F0020FF4D00130F2E70023184694
:102D1000F1E701A9FFF72FFE04220DEB0201234B7F
:102D200093F82F00FFF73AFE33E70134E4B2052CA5
:102D30003FF62FAF224901EB04114B7B13F0020F3A
:102D4000F3D001220431194B93F82F00FFF726FE30
:102D5000EBE70024EBE70122311D144B93F82F0021
:102D6000FFF71CFE0134E4B2052C3FF612AF4FEA28
:102D70000418134D05EB041637790C4B93F83030DB
:102D80009F42EFD155F808900E48FFF7E9FD8145C5
:102D9000E1D045F808000C4B0122DA55DBE70024AE
:102DA000E2E701220949FFF7F9FDF2E6840000207D
:102DB00040120020AC1300204FECC44ED8AB0208E8
:102DC000D4000020B500002044120020B4000020F0
:102DD00010B53022FF2118481FF0D2FBFFF77CFE10
:102DE00000201EE0144B03EBC0035B68B3F1FF3F10
:102DF00020D0002306E004EBC001496842F80E1021
:102E00000133DBB2052B0BD84FEA031E0B4A02EB52
:102E10000311094C14F830C009798C45F0D1EAE768
:102E20000130052806D8044B13F83030FF2BD9D0D9
:102E30000023E7E710BD00BF4C120020D4000020A3
:102E400003788B4200D001707047007870470023F0
:102E50001A4604E010F803C062440133DBB2112BC0
:102E6000F8D9002305E0D80022FA00F0C854013355
:102E7000DBB2012BF7D970472DE9F04104460F462C
:102E80001546FFF7E2FF18B100263046BDE8F08195
:102E9000064601212046FFF7D3FF63692B44A26851
:102EA000934218D8E36821698B422AD359198A4280
:102EB00016D360682A4639461844FDF73DFBE3689F
:102EC0002B44A268B3FBF2F102FB1133E3606369A8
:102ED0002B446361012600212046FFF7B1FFD4E7B0
:102EE000A2EB03089A1A56196068424639461844FC
:102EF000FDF722FB324607EB08016068FDF71CFB7B
:102F0000DDE760682A4639461844FDF715FBD6E729
:102F10002DE9F04186B00446FFF797FF20B1002667
:102F2000304606B0BDE8F081064601212046FFF795
:102F300087FF0023ADF814300093019302930393AD
:102F400004936369132B52D900251BE08B4223D9CC
:102F50005B1A626802EB030C6F46D058DCF8041071
:102F6000DCF80820DCF80C300FC7DCF81000386003
:102F70006B461A785A2A22D06A1C153563699D421D
:102F80003AD8154623692B4403F11402A1688A42FA
:102F9000DCD861680B44ECE7A1EB0308591A01F196
:102FA00014076168424619446846FDF7C5FA3A4677
:102FB00061680DEB0800FDF7BFFA6B46D9E71A68A8
:102FC0005E689868D968E26226636063A1631A69E3
:102FD000E26323692B441433A268B3FBF2F102FBD2
:102FE00011332361143563695D1B6561012600217E
:102FF0002046FFF725FF93E721691144A068B1FB44
:10300000F0F500FB151121619B1A6361EFE70000E9
:1030100000B583B00E4B5A6942F001025A615B69F8
:1030200003F001030193019B002205210C2000F015
:103030001BFC0C2000F05EFC002205210D2000F09E
:1030400013FC0D2000F056FC03B05DF804FB00BF3C
:10305000001002402DE9F0418AB000230693079347
:103060000893099303F1804303F504339A6942F00E
:1030700040029A619A6902F040020192019A9A69AB
:1030800042F010029A619A6902F010020292029ACA
:103090009A6942F004029A619A6902F0040203926A
:1030A000039A9A6942F008029A619A6902F008024A
:1030B0000492049A9A6942F020029A619B6903F093
:1030C00020030593059B2C4E01225821304601F028
:1030D0007DFB2A4F01224FF48051384601F076FBE8
:1030E0004FF6FF78CDF818800324079406A92448EA
:1030F00001F094F94FF6A7730693079406A930469A
:1031000001F08CF918230693012507950895099479
:103110000DEB0301304601F081F949F613130693D4
:10312000079406A9174801F079F94EF6FF73069344
:10313000079406A9384601F071F94FF480530693BD
:1031400007950895099406A9384601F067F9CDF866
:103150001880079406A90C4801F060F940230693F3
:10316000079508950223099306A9304601F056F900
:103170000AB0BDE8F08100BF00100140000C014022
:1031800000180140000801400014014000B583B060
:1031900001904FF6FF73012201A9034803F020FAC2
:1031A000019803B05DF804FBEC15002010B504464F
:1031B0000268084B9A4205D02268074B1B689A4266
:1031C00003D010BD00F00CFBF6E7044B1B689847DA
:1031D000F7E700BF002C01405C1500202011002003
:1031E00072B6FEE700B591B02822002106A81FF0B4
:1031F000C7F90023019302930393049305930122DB
:1032000006924FF4803307930A9202220D920E9396
:103210004FF4E0130F9306A801F00AFB80B90F23C7
:10322000019302210291002303934FF480620492E0
:10323000059301A801F0CAFD20B911B05DF804FBA7
:10324000FFF7CEFFFFF7CCFF08B500F0B7FAFFF7A6
:10325000C9FFFFF7FFFEFFF7DBFE00F001FA00F009
:1032600017F800F0A9F900F015FA1EF093F91EF016
:10327000B3F91EF029FC04481FF042FA4FF47A70AB
:1032800000F0C0FAF7E700BFE0AB020870470000AB
:1032900008B50E480E4B03604FF482734360002361
:1032A0008360C360036143614FF40072826108224E
:1032B000C2610362436283620A23C36201F06EFF4C
:1032C00000B908BDFFF78CFFFBE700BFB814002072
:1032D0000030014070B586B000230293039304933D
:1032E00005930268304B9A4201D006B070BD044687
:1032F00003F560439A6942F480529A619A6902F434
:1033000080520092009A9A6942F004029A619B6985
:1033100003F004030193019BA02302930223039370
:1033200003230593214E02A9304601F077F840238C
:10333000029300250395049502A9304601F06EF82A
:103340001B481C4B03601023436085608023C360CF
:10335000056145618561C56100F0FAFAE8B9144B71
:10336000A3645C621448154B0360002343608360D0
:103370008022C260036143618361C36100F0E8FAA7
:1033800070B90D4BE3645C6200220521232000F03C
:103390006BFA232000F0AEFAA7E7FFF721FFDEE784
:1033A000FFF71EFFEDE700BF0030014000080140BD
:1033B0007414002030000240301400201C00024031
:1033C00082B00E4B9A6942F001029A619A6902F04A
:1033D00001020092009ADA6942F08052DA61DB69F8
:1033E00003F080530193019B054A536823F0E06387
:1033F00043F00073536002B0704700BF00100240FA
:103400000000014000B589B001460022192000F0FB
:103410002BFA192000F06EFA144B9A6942F40062FC
:103420009A619B6903F400630193019B02A903A8BD
:1034300001F006FE01F0F4FD0D4BA3FB00239B0CF5
:10344000013B0C480C4A026040F2E732C260436024
:1034500000230361836002F0DDFB18B1012009B095
:103460005DF804FB034802F01FFAF8E70010024081
:1034700083DE1B4310150020002C0140FEE7FEE711
:10348000FEE7FEE7FEE7704708B5024800F054FC8F
:1034900008BD00BF3014002008B5024800F04CFC05
:1034A00008BD00BF7414002008B5024802F0A8FA55
:1034B00008BD00BF1015002008B5024802F0A0FAB0
:1034C00008BD00BF5C15002008B5024802F032F9C3
:1034D00008BD00BFB814002008B5024803F03AFA4E
:1034E00008BD00BFA415002008B5024803F032FA59
:1034F00008BD00BFEC1500200120704708B51EF084
:1035000055FC162303604FF0FF3008BD08B54FF09F
:10351000FF31FFF7F3FFFEE770B50C4616460025B6
:1035200006E0AFF30080214601F8010B01350C469F
:10353000B542F6DB304670BD70B50C461646002528
:1035400004E014F8010BFFF721FE0135B542F8DB6A
:10355000304670BD08B503460B4A126842B10A4AAC
:10356000106803446A46934206D8074A136008BDB0
:10357000054A06491160F2E71EF018FC0C230360AF
:103580004FF0FF30F3E700BF58150020E8B90020E6
:103590004FF0FF3070474FF400534B6000207047EE
:1035A0000120704700207047024B4FF000629A6084
:1035B000704700BF00ED00E000B587B00023029324
:1035C0000393049305930093019315484FF08042B1
:1035D00002604722426083603122C26003618361DE
:1035E00002F018FB90B94FF48053029302A90C48E3
:1035F00002F0A8FB68B900230093019369460848CC
:1036000002F0CCFD40B907B05DF804FBFFF7E8FD20
:10361000E9E7FFF7E5FDEEE7FFF7E2FDF3E700BFBF
:103620005C1500200368B3F1804F00D0704700B5EF
:1036300083B003F50433DA6942F00102DA61DB6931
:1036400003F001030193019B002205211C2000F0DF
:103650000BF91C2000F04EF903B05DF804FB0000EC
:1036600008B50A480A4B03604FF4E1334360002376
:103670008360C36003610C2242618361C36102F015
:1036800031FF00B908BDFFF7ABFDFBE7A415002033
:103690000038014008B50A480A4B03604FF4E13393
:1036A000436000238360C36003610C224261836135
:1036B000C36102F017FF00B908BDFFF791FDFBE7FA
:1036C000EC1500200044004030B589B0002304937D
:1036D0000593069307930368344A934204D0344A0F
:1036E000934233D009B030BD324B9A6942F48042E4
:1036F0009A619A6902F480420092009A9A6942F0B3
:1037000004029A619B6903F004030193019B4FF447
:10371000007304930223059303230793264D04A902
:10372000284600F07BFE4FF4806304930024059448
:10373000069404A9284600F071FE224605212520A2
:1037400000F092F8252000F0D5F8CBE7194BDA69A4
:1037500042F40032DA61DA6902F400320292029A2B
:103760009A6942F004029A619B6903F0040303938F
:10377000039B0423049302230593032307930E4D15
:1037800004A9284600F04AFE082304930024059467
:10379000069404A9284600F041FE22460521262071
:1037A00000F062F8262000F0A5F89BE70038014001
:1037B00000440040001002400008014008B5074ADC
:1037C000136843F010031360032000F02FF800206B
:1037D000FFF718FEFFF7F4FD002008BD00200240AF
:1037E000034A1168034B1B780B441360704700BFFA
:1037F0003416002038010020014B1868704700BFC4
:103800003416002038B50446FFF7F6FF0546B4F13C
:10381000FF3F02D0044B1B781C44FFF7EDFF401B19
:10382000A042FAD338BD00BF3801002010B50446CD
:10383000C31E042B0FD80A4AD36823F4E0631B0489
:103840001B0C240204F4E064234343F0BF6343F4FD
:103850000033D36010BD91210248FFF717FDEAE75E
:1038600000ED00E000AC020870B505460C461646B7
:103870000F2A25D80F2C28D81B4BDB68C3F3022353
:10388000C3F10701042928BF04211A1D062A21D9E2
:10389000033B4FF0FF3202FA01F124EA01049C409D
:1038A00002FA03F326EA03063443002D14DB240155
:1038B000E4B205F1604505F5614585F8004370BD4A
:1038C000A9210A48FFF7E2FCD4E7AA210748FFF73D
:1038D000DDFCD1E70023DCE705F00F052401E4B2AD
:1038E000034B5C55EBE700BF00ED00E000AC0208C5
:1038F00014ED00E010B5041E0ADB002C07DB04F019
:103900001F02640901239340044A42F8243010BD89
:10391000BD210348FFF7BAFCEFE700BF00E100E07C
:1039200000AC020830B40124056CAC40C56B6C607F
:10393000046863604368102B05D0036899600368CE
:10394000DA6030BC704703689A600368D960F8E7B2
:10395000002800F0B78010B5044603685A4A934225
:1039600025D01432934222D0143293421FD0143205
:1039700093421CD01432934219D01432934216D081
:103980001432934213D002F5627293420FD0143274
:1039900093420CD01432934209D01432934206D091
:1039A0001432934203D099214848FFF76FFC6368B3
:1039B00023B1102B02D0B3F5804F55D1A368402B13
:1039C00001D0002B55D1E368802B01D0002B55D1BD
:1039D00023692BB1B3F5807F02D0B3F5007F52D1BC
:1039E00063692BB1B3F5806F02D0B3F5006F4FD18F
:1039F000A3690BB1202B50D1E36943B1B3F5805FCC
:103A000005D0B3F5005F02D0B3F5405F4AD121681D
:103A10002F4B99424BD82F4B0B442F4AA2FB032329
:103A20001B099B0023642D4BE363022384F82130A0
:103A30000A6822F47F5222F030026368A0680343D0
:103A4000E06803432069034360690343A0690343BB
:103A5000E069034313430B600020A063012384F853
:103A6000213084F8200010BD9A211848FFF70EFC81
:103A7000A4E79B211548FFF709FCA4E79C21134804
:103A8000FFF704FCA4E79D211048FFF7FFFBA7E721
:103A90009E210E48FFF7FAFBAAE79F210B48FFF78C
:103AA000F5FBA9E7A0210948FFF7F0FBAFE70C4BB6
:103AB0000B44094AA2FB03231B099B002364094B07
:103AC000E363B2E7012070470800024054AC0208EB
:103AD00007040240F8FFFDBFCDCCCCCC0000024073
:103AE000F8FBFDBF00040240F8B504460E46174639
:103AF0001D465A1E4FF6FE739A4210D894F8203095
:103B0000012B3BD0012384F8203094F82130DBB224
:103B1000012B0AD0002384F820300220F8BD4FF496
:103B2000B7711748FFF7B2FBE8E7022384F82130AA
:103B30000023A3632268136823F0010313602B465C
:103B40003A4631462046FFF7EDFEE36A5BB1226854
:103B5000136843F00E0313602268136843F00103F7
:103B600013600020DAE72268136823F0040313606F
:103B70002268136843F00A031360EDE70220CDE7E3
:103B800054AC020890F82130DBB2022B06D004239B
:103B90008363002380F82030012070470268136897
:103BA00023F00E0313600268136823F0010313600F
:103BB000036CC16B012202FA03F34B6080F82120F1
:103BC000002380F8203018467047000008B590F8B0
:103BD0002130DBB2022B03D004238363012008BD14
:103BE0000268136823F00E0313600268136823F061
:103BF0000103136003684C4A93424ED9783A9342CA
:103C000024D01432934230D0143293422FD0143245
:103C100093422FD0143293422FD0143293422FD09C
:103C2000143293422FD002F5627293422ED0143296
:103C300093422DD0143293422CD01432934202D0AE
:103C40004FF4803203E04FF4805200E00122374B02
:103C50005A60012380F82130002380F82030436B24
:103C6000002B5ED098470020B9E71022EFE74FF411
:103C70008072ECE74FF48052E9E74FF48032E6E7D8
:103C80004FF48012E3E74FF08072E0E70122DEE7B5
:103C90001022DCE74FF48072D9E7254A934224D002
:103CA0001432934225D01432934224D014329342DA
:103CB00024D01432934224D01432934224D01432AC
:103CC000934224D002F56272934223D0143293427D
:103CD00022D01432934221D01432934202D04FF4B6
:103CE000803203E04FF4805200E00122114B5A6011
:103CF000AFE71022FAE74FF48072F7E74FF48052F3
:103D0000F4E74FF48032F1E74FF48012EEE74FF022
:103D10008072EBE70122E9E71022E7E74FF48072B7
:103D2000E4E700205BE700BF80000240000402409F
:103D3000080002400000024038B5C36B1A680468EE
:103D40002568016C04238B40134200F09B8015F022
:103D5000040F00F09780236813F0200F03D123682D
:103D600023F00403236003689A4A934246D9783AC1
:103D7000934224D01432934228D01432934227D055
:103D80001432934227D01432934227D014329342F4
:103D900027D01432934227D002F56272934226D084
:103DA0001432934225D01432934224D014329342D9
:103DB00002D04FF4802203E04FF4804200E004225E
:103DC000854B5A60C36A03B1984738BD4022F7E774
:103DD0004FF48062F4E74FF48042F1E74FF4802221
:103DE000EEE74FF48002EBE74FF08062E8E7042251
:103DF000E6E74022E4E74FF48062E1E7774A934246
:103E000024D01432934225D01432934224D0143259
:103E1000934224D01432934224D01432934224D0BB
:103E20001432934224D002F56272934223D01432AA
:103E3000934222D01432934221D01432934202D0C2
:103E40004FF4802203E04FF4804200E00422644BF0
:103E50005A60B7E74022FAE74FF48062F7E74FF481
:103E60008042F4E74FF48022F1E74FF48002EEE75E
:103E70004FF08062EBE70422E9E74022E7E74FF4E6
:103E80008062E4E702238B40134200F0AB8015F020
:103E9000020F00F0A780236813F0200F06D12368DB
:103EA00023F00A032360012380F821300368494A84
:103EB00093424BD9783A934224D0143293422DD076
:103EC000143293422CD0143293422CD014329342A9
:103ED0002CD0143293422CD0143293422CD002F5C1
:103EE000627293422BD0143293422AD014329342FE
:103EF00029D01432934202D04FF4003203E04FF441
:103F0000005200E00222344B5A60002380F8203037
:103F1000836A002B3FF459AF984756E72022F2E717
:103F20004FF40072EFE74FF40052ECE74FF4003229
:103F3000E9E74FF40012E6E74FF00072E3E70222F0
:103F4000E1E72022DFE74FF40072DCE7234A9342E7
:103F500024D01432934225D01432934224D0143208
:103F6000934224D01432934224D01432934224D06A
:103F70001432934224D002F56272934223D0143259
:103F8000934222D01432934221D01432934202D071
:103F90004FF4003203E04FF4005200E00222104BD5
:103FA0005A60B2E72022FAE74FF40072F7E74FF4C5
:103FB0000052F4E74FF40032F1E74FF40012EEE75D
:103FC0004FF00072EBE70222E9E72022E7E74FF427
:103FD0000072E4E780000240000402400800024052
:103FE00000000240082303FA01F111423FF4EDAE54
:103FF00015F0080F3FF4E9AE236823F00E032360A9
:10400000026CC16B012303FA02F24A60836380F8F9
:104010002130002380F82030036B002B3FF4D5AE15
:104020009847D2E6044B0022DA61044A136943F050
:104030000103136101807047381600200020024000
:10404000194BDB6813F0100305D0184AD36943F00D
:104050000203D3611023144AD26812F0040F06D071
:104060001249CA6942F00102CA6143F004030E4AD0
:10407000D26912F0010F09D00C49CA6942F004025A
:10408000CA610949CA6922F00102CA6140F20112FB
:10409000934202D0044AD3607047034AD36923F0A5
:1040A0000103D361704700BF002002403816002092
:1040B0000A4B1B6913F0800F0BD0084B084A5A605B
:1040C00002F188325A601B6913F0800F03D100207F
:1040D0007047002070470120704700BF0020024059
:1040E00023016745034A136943F0800313610020ED
:1040F000704700BF0020024038B50446FFF77CFB44
:104100000546164BDB6813F0010F0AD0B4F1FF3FF0
:10411000F7D024B1FFF770FB401BA042F1D9032078
:104120001BE00E4BDB6813F0200F02D00B4B20225C
:10413000DA600A4BDB6813F0100F0BD1074BDB6919
:1041400013F0010F06D1054BDB6813F0040F01D10A
:10415000002002E0FFF774FF012038BD002002407C
:104160002DE9F8431E46354B1B7E012B64D00446D7
:104170000F469046314B01221A76431E022B42D83D
:10418000B7F1006F0BD32E4BB3F8E030B3F5007FDF
:104190003ED0B3F5C07F3FD02A4B9F4203D9B12117
:1041A0002948FFF773F84CF25030FFF7A5FF03469C
:1041B00000283BD1012C36D0022C31D04FF004091D
:1041C0001C464C4532D22101C1F12002A1F120034D
:1041D00028FA01F106FA02F2114326FA03F3194311
:1041E00089B207EB4400FFF71DFF4CF25030FFF798
:1041F00083FF164B1D6925F001051D610346A8B913
:104200000134E4B2DDE7B0210F48FFF73FF8B7E72C
:104210000F4B9F42C3D8C6E70E4B9F42BFD8C2E7A1
:104220004FF00209CCE74FF00109C9E7034A00212A
:1042300011761846BDE8F8830223FAE73816002005
:1042400000F7FF1FFFFF0308A4AC02080020024094
:10425000FFFF0708FFFF050808B501280CD1094B2F
:104260000022DA61084B1A6942F004021A611A69E5
:1042700042F040021A6108BD4FF415710348FFF780
:1042800005F8ECE73816002000200240F8AC0208E0
:10429000064B0022DA61064B1A6942F002021A61EB
:1042A00058611A6942F040021A61704738160020BE
:1042B00000200240524B1B7E012B00F09E8070B507
:1042C00004460E464E4B01221A7603680BB1022BB0
:1042D0004ED12368022B50D0A368B3F1006F0BD3EB
:1042E000484AB2F8E020B2F5007F5BD0B2F5C07F5B
:1042F0005CD0454A934203D9E7214448FEF7C6FF04
:10430000404BB3F8E030B3F5007F53D0B3F5C07F36
:104310005BD0A368E26803EBC223013B3A4A9342B5
:104320008CBF00230123002B5AD04CF25030FFF7F2
:10433000E3FE00285BD14FF0FF333360A568012115
:10434000E268A36803EBC223AB4251D92846FFF7CA
:104350009FFF4CF25030FFF7CFFE2D4A136923F038
:1043600002031361014600283FD105F50065E7E728
:10437000A6212648FEF78AFFABE74CF25030FFF744
:10438000BBFE08B1012133E00120FFF765FF4CF2CD
:104390005030FFF7B1FE01461D4A136923F00403B4
:1043A000136125E01B4A9342A6D8A9E71A4A934213
:1043B000A2D8A5E7A368E26803EBC223013B154A34
:1043C00093428CBF00230123ADE7A368E26803EBAF
:1043D000C223013B104A93428CBF00230123A2E772
:1043E000E8210A48FEF752FF9FE7356000E001210F
:1043F000034B00221A76084670BD0221084670471A
:104400003816002000F7FF1FFFFF0308F8AC020872
:1044100000200240FFFF0708FFFF05082DE9F043D9
:1044200083B007460E46884B98421BD003F5806345
:10443000984217D003F58063984213D003F5806348
:1044400098420FD003F5806398420BD003F5806348
:10445000984207D003F58063984203D0BD217B4882
:10446000FEF714FF33689AB212B11B0C1B041BB188
:10447000BE217648FEF70AFF7368012B1ED9112B67
:104480001CD0022B1AD0122B18D0714A934215D08F
:1044900002F58012934211D002F5801293420DD0A2
:1044A000A2F5F812934209D002F58012934205D08A
:1044B00002F58012934201D0032B03D14FF0000983
:1044C0004D46FDE0BF216148FEF7E0FEF6E7614A98
:1044D000934210D007D9604A93420CD002F5803243
:1044E000934208D01AE0A2F58012934203D002F55D
:1044F000702293420ED1B368022B00F28D80B36814
:10450000002B00F09580012B00F08B807C614FF038
:10451000080903E0A2F580129342ECD0B8F1FF0F36
:1045200000F289803846B8F1FF0F00F28680AA00B9
:1045300003680F21914023EA010309FA02F21343B1
:104540000360736813F0805F00F0B980434B9A6991
:1045500042F001029A619B6903F001030193019B00
:10456000AA08911C3E4B53F8210005F00303990063
:104570000F238B4020EA0300334B9F4272D003F598
:1045800080639F4200F0F68003F580639F4200F055
:10459000F38003F580639F4200F0F08003F58063B1
:1045A0009F4200F0ED8003F580639F4249D00623CF
:1045B00059E0F368013B022B02D8D6F80C90ADE726
:1045C000D5212248FEF762FEF7E7F368013B022B94
:1045D00003D8F36803F10409A0E7DC211B48FEF7C8
:1045E00055FEF6E7F368013B022B03D8F36803F1AD
:1045F000080993E7E3211548FEF748FEF6E7F3685C
:10460000013B022B03D8F36803F10C0986E7EA218A
:104610000E48FEF73BFEF6E7F7210C48FEF736FEA4
:104620006DE73C614FF0080978E74FF0000975E746
:104630004FF0040972E7381D75E7A5F108029200F2
:1046400076E705230FE000BF0008014050AD0208E7
:104650000000111000002210000031100010024074
:104660000000014000238B4003430232534941F8CC
:104670002230736813F4801F00F08480504A9368DE
:1046800043EA08039360736813F4001F00F080800E
:104690004B4AD36843EA0803D360736813F4003FBE
:1046A0007CD0474A536843EA08035360736813F4A5
:1046B000803F79D0424A136843EA0803136001350A
:1046C000336833FA05F275D00124AC4003EA0408DC
:1046D00034EA0303F3D13B4B9F421BD003F58063C5
:1046E0009F4217D003F580639F4213D003F5806388
:1046F0009F420FD003F580639F420BD003F5806388
:104700009F4207D003F580639F4203D0CD212E48FE
:10471000FEF7BCFD7368122B3FF6D9AE122B3FF6A5
:10472000FDAE01A252F823F0F7440008B34500089B
:10473000E54500082B4600081D4500081D450008FA
:104740001D4500081D4500081D4500081D450008C1
:104750001D4500081D4500081D4500081D450008B1
:104760001D4500081D4500081D450008CB450008F3
:10477000FF450008012376E7022374E7032372E76D
:10478000042370E70E4A936823EA080393607AE7EC
:104790000B4AD36823EA0803D3607EE7084A5368CC
:1047A00023EA0803536081E7054A136823EA0803F4
:1047B000136084E703B0BDE8F08300BF0000014050
:1047C000000401400008014050AD020870B50546E4
:1047D00014460E4621B1012C08D86CB12E6170BD73
:1047E0004FF4EA710648FEF751FDF4E740F2D511A7
:1047F0000348FEF74BFDF0E736042E61EFE700BFFC
:1048000050AD020882B0084B1B68084AA2FB032384
:104810005B0A00FB03F3019300BF019B5A1E019248
:10482000002BF9D102B0704734010020D34D621043
:10483000002800F0898270B582B00446036813B185
:1048400013F00F0F2AD0236813F0010F40D06368D4
:104850002BB1B3F5803F02D0B3F5A02F24D19C4BF0
:104860005B6803F00C03042B29D0994B5B6803F0C1
:104870000C03082B1ED06368B3F5803F55D0002B86
:1048800069D103F1804303F504331A6822F48032BE
:104890001A601A6822F480221A604BE040F2651117
:1048A0008C48FEF7F3FCCEE740F26B118948FEF727
:1048B000EDFCD4E7864B5B6813F4803FDBD0844B80
:1048C0001B6813F4003F03D06368002B00F03E82A6
:1048D000236813F0020F00F089802369012B63D84D
:1048E00063691F2B66D87A4B5B6813F00C0F6CD092
:1048F000774B5B6803F00C03082B61D02369002B16
:1049000000F09A80744B01221A60FEF775FF05468D
:104910006F4B1B6813F0020F40F08580FEF76CFFB1
:10492000401B0228F4D9032015E2694A136843F4B6
:1049300080331360636843B3FEF75EFF0546644B44
:104940001B6813F4003FC3D1FEF756FF401B6428D9
:10495000F5D90320FFE1B3F5A02F09D05C4B1A680D
:1049600022F480321A601A6822F480221A60E1E789
:1049700003F18043A3F53C331A6842F480221A60A5
:104980001A6842F480321A60D4E7FEF735FF054614
:104990004F4B1B6813F4003F9AD0FEF72DFF401BCE
:1049A0006428F5D90320D6E140F29F114948FEF76B
:1049B0006DFC95E74FF4D0714648FEF767FC92E72F
:1049C000434B5B6813F4803F98D1414B1B6813F055
:1049D000020F03D02369012B40F0BA813C4A1368CF
:1049E00023F0F803616943EAC1031360236813F0FD
:1049F000080F3CD0A369012B30D8A369002B6FD0DE
:104A0000354B0122C3F88024FEF7F6FE0546304BF5
:104A10005B6A13F0020F27D1FEF7EEFE401B02285F
:104A2000F5D9032097E12A4A136823F0F803616956
:104A300043EAC1031360D9E7274B00221A60FEF74F
:104A4000DBFE0546224B1B6813F0020FCED0FEF7AB
:104A5000D3FE401B0228F5D903207CE14FF4F0710E
:104A60001C48FEF713FCC8E70120FFF7CBFE2368C4
:104A700013F0040F00F0A480E368012B01D9052B8B
:104A800041D1134BDB6913F0805F42D1104BDA69DF
:104A900042F08052DA61DB6903F080530193019B9D
:104AA00001250E4B1B6813F4807F34D0E368012B83
:104AB00045D0002B5BD103F1804303F504331A6A20
:104AC00022F001021A621A6A22F004021A623BE022
:104AD00000100240A4AD02080000424200700040F5
:104AE000A14B0022C3F88024FEF786FE05469F4BAB
:104AF0005B6A13F0020FBAD0FEF77EFE401B02285D
:104B0000F5D9032027E140F20F219948FEF7BEFBBB
:104B1000B7E70025C5E7974A136843F4807313602D
:104B2000FEF76AFE0646934B1B6813F4807FBDD1E7
:104B3000FEF762FE801B6428F5D903200BE18B4A47
:104B4000136A43F001031362E36833B3FEF754FEC4
:104B50000646864B1B6A13F0020F2FD1FEF74CFE60
:104B6000801B41F288339842F3D90320F3E0052BF0
:104B700009D07E4B1A6A22F001021A621A6A22F0E8
:104B800004021A62E0E7794B1A6A42F004021A62E0
:104B90001A6A42F001021A62D6E7FEF72DFE0646B7
:104BA000724B1B6A13F0020F08D0FEF725FE801B24
:104BB00041F288339842F3D90320CCE0002D53D141
:104BC000E369022B56D8E369002B00F0C380674AE3
:104BD000526802F00C02082A00F0A680022B40F076
:104BE0008F80236A13B1B3F5803F49D1636A4BB319
:104BF000B3F5802F26D0B3F5002F23D0B3F5402F87
:104C000020D0B3F5801F1DD0B3F5A01F1AD0B3F587
:104C1000C01F17D0B3F5E01F14D0B3F5001F11D09B
:104C2000B3F5101F0ED0B3F5201F0BD0B3F5301F16
:104C300008D0B3F5401F05D0B3F5501F02D0B3F52F
:104C4000601F23D1484B00221A66FEF7D5FD0546AA
:104C5000464B1B6813F0007F1ED0FEF7CDFD401BB6
:104C60000228F5D9032076E0404AD36923F0805327
:104C7000D361A5E740F2AD213D48FEF707FBA2E76F
:104C800040F2B6213A48FEF701FBAFE740F2B72108
:104C90003748FEF7FBFAD5E7236AB3F5803F1AD011
:104CA00032494B6823F47413226A606A0243134347
:104CB0004B602D4B01221A66FEF79EFD04462B4BDE
:104CC0001B6813F0007F19D1FEF796FD001B022828
:104CD000F5D903203FE0A36813B1B3F5003F07D136
:104CE000224A536823F40033A1680B435360D7E78B
:104CF00040F2CD211E48FEF7C9FAF1E700202AE074
:104D0000194B00221A66FEF777FD0446174B1B6805
:104D100013F0007F06D0FEF76FFD001B0228F5D9C7
:104D2000032018E0002016E0012B16D00F4B5B6823
:104D300003F48031226A914211D103F47013626A44
:104D400093420ED1002006E001207047012002E0CE
:104D5000012000E0002002B070BD0120FBE701202F
:104D6000F9E70120F7E700BF0000424200100240CF
:104D7000A4AD0208007000400F4B5B6803F00C020A
:104D8000082A01D00D487047C3F383420C49885C60
:104D900013F4803F0BD0084B5B68C3F34043094AD0
:104DA000D35C064A02FB00F0B0FBF3F07047064B01
:104DB00003FB00F0704700BF0010024000127A00B1
:104DC000F4AD020804AE020800093D00002800F01E
:104DD000FC8070B50D460446036813F00F0F6DD0CC
:104DE000022D71D87D4B1B6803F00703AB420BD239
:104DF0007A4A136823F007032B431360136803F008
:104E00000703AB4240F0E380236813F0020F29D080
:104E100013F0040F04D0724A536843F4E063536004
:104E2000236813F0080F04D06D4A536843F46053AD
:104E30005360A3687BB1802B0DD0902B0BD0A02B9F
:104E400009D0B02B07D0C02B05D0D02B03D0E02B3E
:104E500001D0F02B3ED1624A536823F0F003A168E1
:104E60000B435360236813F0010F4DD06368022B8E
:104E700036D86368012B39D0022B3ED0584A1268CD
:104E800012F0020F00F0A58055494A6822F0030293
:104E900013434B60FEF7B0FC0646514B5B6803F0D2
:104EA0000C036268B3EB820F2ED0FEF7A5FC801BCB
:104EB00041F288339842F0D9032079E040F236314C
:104EC0004848FEF7E3F98BE740F237314548FEF7F3
:104ED000DDF987E740F25D314248FEF7D7F9BAE7DE
:104EE0004FF459713F48FEF7D1F9C2E73C4A1268C6
:104EF00012F4003FC8D101205AE0394A126812F07A
:104F0000007FC1D1012053E0344B1B6803F007033D
:104F1000AB420AD9314A136823F007032B431360CD
:104F2000136803F00703AB4255D1236813F0040F55
:104F300014D0E3685BB1B3F5806F08D0B3F5A06F10
:104F400005D0B3F5C06F02D0B3F5E06F31D1244A7C
:104F5000536823F4E063E1680B435360236813F064
:104F6000080F15D023695BB1B3F5806F08D0B3F596
:104F7000A06F05D0B3F5C06F02D0B3F5E06F1ED1BE
:104F8000174A536823F46053216943EAC10353600D
:104F9000FFF7F2FE124B5B68C3F30313124AD35CB4
:104FA000D840124B1860124B1868FEF72BFA0020FD
:104FB00070BD40F2A2310B48FEF768F9C7E740F236
:104FC000A9310848FEF762F9DAE7012070470120AD
:104FD000EEE70120ECE70120EAE700BF00200240F5
:104FE00000100240A4AD0208E8AB02083401002022
:104FF0003C010020014B1868704700BF34010020BD
:1050000008B5FFF7F7FF044B5B68C3F30223034ABD
:10501000D35CD84008BD00BF00100240F8AB0208C6
:1050200008B5FFF7E7FF044B5B68C3F3C223034AED
:10503000D35CD84008BD00BF00100240F8AB0208A6
:1050400038B50D460446D0B1FDB10F232360124B95
:105050005A6802F0030262605A6802F0F002A2602D
:105060005A6802F4E062E2605B68DB0803F4E06324
:1050700023610A4B1B6803F007032B6038BD40F225
:1050800021510748FEF702F9DEE740F222510448B9
:10509000FEF7FCF8D9E700BF0010024000200240F4
:1050A000A4AD02082DE9F04782B0054688461746B0
:1050B0001E46FEF7A1FB0A9B1B1A03EB0609FEF72F
:1050C0009BFB82462B4B1B68C3F3CB3309FB03F3DB
:1050D00001932B689C6838EA04030CBF4FF0010C65
:1050E0004FF0000CBC4540D0B6F1FF3FF1D0FEF7C9
:1050F00083FBA0EB0A0048450AD2B9F1000F07D0A4
:10510000019A02B14A46019B013B01939146E0E7B7
:105110002A68536823F0E00353606B68B3F5827F1D
:105120000BD0AB6AB3F5005F14D0012385F8513082
:10513000002385F85030032018E0AB68B3F5004F2A
:1051400002D0B3F5806FECD12A68136823F04003D6
:105150001360E6E72A68136823F4005313602A6893
:10516000136843F400531360DFE7002002B0BDE88A
:10517000F08700BF3401002010B582B004460B4612
:10518000009200228021FFF78DFF08B902B010BD08
:10519000636D43F0200363650320F7E7002800F008
:1051A000048110B504460368814A93420CD0A2F5ED
:1051B0007842934208D002F58062934204D04FF4C3
:1051C000AB717C48FEF762F8636813B1B3F5827F78
:1051D0003DD1A3682BB1B3F5806F02D0B3F5004F7A
:1051E0003BD1E368B3F5006F01D0002B3BD1A3693D
:1051F000B3F5007F03D013B1B3F5802F39D1E36944
:105200006BB1082B0BD0102B09D0182B07D0202BFB
:1052100005D0282B03D0302B01D0382B2FD1236A77
:105220000BB1802B31D1636A002B34D1636A002B20
:1052300059D123690BB1022B33D16369012B36D8C5
:105240006368B3F5827F38D00023E3615EE040F20B
:1052500057115848FEF71AF8BBE74FF4AC715548A0
:10526000FEF714F8BDE740F259115248FEF70EF868
:10527000BDE74FF4AD714F48FEF708F8BFE740F2C5
:105280005B114C48FEF702F8C9E74FF4AE7149488C
:10529000FDF7FCFFC7E740F25F114648FDF7F6FF58
:1052A000C4E74FF4B1714348FDF7F0FFC5E740F2A2
:1052B00063114048FDF7EAFFC2E7E36933B3082B07
:1052C00024D0102B22D0182B20D0202B1ED0282BFE
:1052D0001CD0302B1AD0382B18D040F2671135482B
:1052E000FDF7D4FF12E0E3696BB1082B0BD0102B54
:1052F00009D0182B07D0202B05D0282B03D0302B1A
:1053000001D0382B45D10023236163610023A362C0
:1053100094F85130002B42D0022384F85130226897
:10532000136823F040031360636803F48273A26878
:1053300002F404421343E26802F400621343226958
:1053400002F002021343626902F001021343A269F0
:1053500002F400721343E26902F038021343226A36
:1053600002F080021343A26A02F400522168134340
:105370000B60638B226803F0040353602268D369D7
:1053800023F40063D36100206065012384F8513069
:1053900010BD40F271110748FDF778FFB3E784F8BC
:1053A00050302046FDF796FFB6E70120704700BF5A
:1053B0000030014008AE02082DE9F04383B00446F6
:1053C000894690461D46836813B1B3F5004F4BD113
:1053D00094F85030012B00F0D480012384F8503031
:1053E000FEF70AFA074694F85160F6B2012E40F033
:1053F000C080B9F1000F00F0BD80B8F1000F00F0DF
:10540000B980032384F8513000236365C4F83090D9
:10541000A4F83480A4F83680A363A387E387636489
:105420002364A368B3F5004F24D023681A6812F0F0
:10543000400F03D11A6842F040021A60E368B3F5E6
:10544000006F22D0636813B1B8F1010F5BD1226BFA
:10545000236812781A73236B01332363E38E9BB2A4
:10546000013B9BB2E3864EE04FF448714648FDF79E
:105470000DFFADE72268136823F040031360226834
:10548000136843F480431360CFE7636813B1B8F146
:10549000010F15D1226B23681288DA60236B023367
:1054A0002363E38E9BB2013B9BB2E38608E0FEF7E9
:1054B000A3F9C01BA84202D3B5F1FF3F15D1A5B196
:1054C000E38E9BB2002B3CD023689A6812F0020F47
:1054D000EDD0226B1288DA60236B02332363E38EF4
:1054E0009BB2013B9BB2E386EAE7012384F851308B
:1054F00003263FE0FEF780F9C01BA84202D3B5F1B6
:10550000FF3F19D1C5B1E38E9BB2D3B123689A682E
:1055100012F0020FEED0226B12781A73236B013354
:105520002363B4F836C01FFA8CFC0CF1FF3C1FFA61
:105530008CFCA4F836C0E6E7012384F8513003263A
:1055400018E03A4629462046FFF716FE08B1202308
:105550006365A36833B901932368DA6801929B6895
:105560000193019B636D2BB9012384F85130002610
:1055700000E00226002384F85030304603B0BDE836
:10558000F0830226F9E700BF08AE0208F8B504462A
:105590000E461746836C002B50D0A36813B1B3F5A9
:1055A000004F51D194F85030012B69D0012384F879
:1055B000503094F85150EDB29D425BD1002E5AD03C
:1055C000002F58D0032384F85130002363652663ED
:1055D000A786E786A36363642364A387E387A3683E
:1055E000B3F5004F36D0A36C264ADA62A36C264A84
:1055F0009A62A36C254A1A63A36C00225A6322683C
:10560000E38E9BB20C32216BA06CFEF76DFA014663
:1056100058BB23681A6812F0400F03D11A6842F091
:1056200040021A602268536843F0200353602268E6
:10563000536843F0020353600D461CE040F2A26140
:105640001348FDF723FEA8E740F2A5611048FDF7D7
:105650001DFEA7E72268136823F040031360226849
:10566000136843F480431360BDE7636D43F0100398
:10567000636500E00225002384F850302846F8BD19
:105680000225FBE797560008C5560008A3560008F8
:1056900008AE0208704708B5406AFFF7FBFF08BD77
:1056A000704708B5406A0268536823F003035360EB
:1056B000436D43F010034365012380F85130FFF739
:1056C000EFFF08BD30B583B00546446AFEF794F895
:1056D0002B681B6813F0200F23D1024621684B680A
:1056E00023F020034B6021684B6823F002034B60DA
:1056F00064212046FFF740FD18B1636D43F020039D
:105700006365A36833B901932368DA6801929B68E3
:105710000193019B0023E386012384F85130636DDC
:1057200023B920461CF00CF903B030BD2046FFF72A
:10573000B7FFF9E730B585B0044602685168936851
:10574000C3F3801013F0400F05D113F0010F02D006
:1057500011F0400F5AD113F0020F02D011F0800F58
:1057600058D1C3F3401513F0200F01D1002854D0B5
:1057700011F0200F51D078B194F85130DBB2032BE7
:105780004DD0636D43F00403636500230193D36838
:10579000019393680193019B65B1636D43F001032D
:1057A00063650023039393680393136823F0400316
:1057B0001360039B636D002B2FD02268536823F086
:1057C000E0035360012384F8513011F0030F2ED011
:1057D0002268536823F003035360E36C4BB1164A0D
:1057E0005A63E06CFEF7F2F918B1636D43F04003C1
:1057F0006365A36C8BB1104A5A63A06CFEF7E6F99F
:1058000058B1636D43F04003636506E0236C2046A6
:10581000984702E0636C2046984705B030BD0023EE
:105820000293D368029393680293029BF5E72046A4
:10583000FFF736FFF1E700BF3D58000808B5406AA2
:105840000023C387C386FFF72BFF08BD10B4036A8C
:10585000046A24F001040462846924F0F00C4CEA28
:10586000021223F00A030B438261036210BC7047EB
:1058700010B4036A046A24F010040462846924F4F6
:10588000704C4CEA023223F0A00343EA0113826118
:10589000036210BC7047836823F070030B4343F02E
:1058A000070383607047000010B5044603682E4A62
:1058B00093421FD002F5006293421BD0B3F1804F98
:1058C00018D0A2F59832934214D002F58062934228
:1058D00010D002F5806293420CD002F580629342B0
:1058E00008D002F58062934204D04FF4E8711F485B
:1058F000FDF7CCFC94F83D30DBB2012B2FD1022315
:1059000084F83D302268D36843F00103D3602368F4
:10591000154A934218D002F50062934214D0B3F1B5
:10592000804F11D0A2F5983293420DD002F58062DB
:10593000934209D002F58062934205D01A6842F082
:1059400001021A6000200BE09A6802F00702062AA2
:1059500007D01A6842F001021A60002000E001201E
:1059600010BD0020FCE700BF002C014058AE02082B
:1059700010B5044603681E4A93421FD002F5006228
:1059800093421BD0B3F1804F18D0A2F598329342C6
:1059900014D002F58062934210D002F580629342E7
:1059A0000CD002F58062934208D002F580629342E7
:1059B00004D04FF4FC710F48FDF768FC2268D368EF
:1059C00023F00103D3602368196A41F211121142D6
:1059D00008D1196A40F24442114203D11A6822F0F8
:1059E00001021A60012384F83D30002010BD00BF81
:1059F000002C014058AE020870477047704770474E
:105A000010B5044603681A6912F0020F11D0DA6863
:105A100012F0020F0DD06FF002021A61012303771A
:105A200003689B6913F0030F70D0FFF7E6FF0023B4
:105A3000237723681A6912F0040F12D0DA6812F083
:105A4000040F0ED06FF004021A610223237723683B
:105A50009B6913F4407F5FD02046FFF7CEFF002301
:105A6000237723681A6912F0080F12D0DA6812F04F
:105A7000080F0ED06FF008021A6104232377236801
:105A8000DB6913F0030F4ED02046FFF7B6FF00236B
:105A9000237723681A6912F0100F12D0DA6812F017
:105AA000100F0ED06FF010021A61082323772368BD
:105AB000DB6913F4407F3DD02046FFF79EFF0023B3
:105AC000237723681A6912F0010F03D0DA6812F005
:105AD000010F36D123681A6912F0800F03D0DA68FB
