:020000040800F2
:10000000000001204D4400087D1C00087F1C0008F2
:10001000811C0008831C0008851C000800000000EB
:10002000000000000000000000000000871C000825
:10003000891C0008000000008B1C00088D1C0008B3
:10004000954400089544000895440008954400082C
:10005000954400089544000895440008954400081C
:10006000954400089544000895440008954400080C
:1000700095440008954400089544000895440008FC
:1000800095440008954400089544000895440008EC
:1000900095440008954400089544000895440008DC
:1000A00095440008954400089544000895440008CC
:1000B00095440008954400089544000895440008BC
:1000C00095440008954400089544000895440008AC
:1000D00095440008951C00089544000895440008C4
:1000E000954400089544000895440008954400088C
:1000F000954400089544000895440008954400087C
:10010000954400089544000895440008954400086B
:10011000954400089544000895440008954400085B
:10012000954400089544000895440008954400084B
:1001300000000000000000000000000000000000BF
:1001400000000000000000000000000000000000AF
:10015000000000000000000000000000000000009F
:10016000000000000000000000000000000000008F
:10017000000000000000000000000000000000007F
:10018000000000000000000000000000000000006F
:10019000000000000000000000000000000000005F
:1001A000000000000000000000000000000000004F
:1001B000000000000000000000000000000000003F
:1001C000000000000000000000000000000000002F
:1001D000000000000000000000000000000000001F
:0401E0005FF8E0F1F3
:1001E80010B5054C237833B9044B13B10448AFF369
:1001F80000800123237010BD280A002000000000A1
:1002080018A5000808B5034B1BB103490348AFF311
:10021800008008BD000000002C0A002018A5000876
:10022800844641EA000313F0030349D1403A23D33B
:100238000B6803604B6843608B688360CB68C3605E
:100248000B6903614B6943618B698361CB69C36146
:100258000B6A03624B6A43628B6A8362CB6AC3622E
:100268000B6B03634B6B43638B6B8363CB6BC36316
:1002780040304031403ADBD230320BD30B68036058
:100288004B6843608B688360CB68C3601030103163
:10029800103AF3D20C3205D351F8043B40F8043B32
:1002A800043AF9D2043208D0D2071CBF11F8013B36
:1002B80000F8013B01D30B8803806046704700BFFC
:1002C800082A13D38B07B1D010F00303AED0C3F1C3
:1002D8000403D21ADB071CBF11F8013B00F8013BED
:1002E800A4D331F8023B20F8023B9FE7043AD9D364
:1002F800013A11F8013B00F8013BF9D20B78037081
:100308004B7843708B7883706046704781F000416A
:1003180002E000BF83F0004330B54FEA41044FEAE2
:10032800430594EA050F08BF90EA020F1FBF54EA7D
:10033800000C55EA020C7FEA645C7FEA655C00F019
:10034800E2804FEA5454D4EB5555B8BF6D420CDDEA
:100358002C4480EA020281EA030382EA000083EA6D
:10036800010180EA020281EA0303362D88BF30BD0D
:1003780011F0004F4FEA01314FF4801C4CEA113163
:1003880002D0404261EB410113F0004F4FEA0333C2
:100398004CEA133302D0524263EB430394EA050F4D
:1003A80000F0A780A4F10104D5F1200E0DDB02FABC
:1003B8000EFC22FA05F2801841F1000103FA0EF250
:1003C800801843FA05F359410EE0A5F120050EF116
:1003D800200E012A03FA0EFC28BF4CF0020C43FA47
:1003E80005F3C01851EBE37101F0004507D54FF054
:1003F800000EDCF1000C7EEB00006EEB0101B1F5A4
:10040800801F1BD3B1F5001F0CD349085FEA3000E9
:100418004FEA3C0C04F101044FEA445212F5800FF4
:1004280080F09A80BCF1004F08BF5FEA500C50F191
:10043800000041EB045141EA050130BD5FEA4C0C74
:10044800404141EB0101013C28BFB1F5801FE9D2D1
:1004580091F0000F04BF01460020B1FA81F308BFF4
:100468002033A3F10B03B3F120020CDA0C3208DDC0
:1004780002F1140CC2F10C0201FA0CF021FA02F19B
:100488000CE002F11402D8BFC2F1200C01FA02F10B
:1004980020FA0CFCDCBF41EA0C019040E41AA2BF30
:1004A80001EB0451294330BD6FEA04041F3C1CDAF8
:1004B8000C340EDC04F11404C4F1200220FA04F018
:1004C80001FA02F340EA030021FA04F345EA0301C2
:1004D80030BDC4F10C04C4F1200220FA02F001FA84
:1004E80004F340EA0300294630BD21FA04F0294606
:1004F80030BD94F0000F83F4801306BF81F480119F
:100508000134013D4EE77FEA645C18BF7FEA655C11
:1005180029D094EA050F08BF90EA020F05D054EAE3
:10052800000C04BF1946104630BD91EA030F1EBFE8
:100538000021002030BD5FEA545C05D140004941EC
:1005480028BF41F0004130BD14F580043CBF01F5DF
:10055800801130BD01F0004545F0FE4141F47001C5
:100568004FF0000030BD7FEA645C1ABF19461046A0
:100578007FEA655C1CBF0B46024650EA013406BFA1
:1005880052EA033591EA030F41F4002130BD00BF60
:1005980090F0000F04BF0021704730B54FF480641D
:1005A80004F132044FF000054FF0000150E700BF9E
:1005B80090F0000F04BF0021704730B54FF48064FD
:1005C80004F1320410F0004548BF40424FF00001EA
:1005D8003EE700BF42004FEAE2014FEA31014FEA2D
:1005E80002701FBF12F07F4393F07F4F81F060517C
:1005F800704732F07F4208BF704793F07F4F04BFC7
:1006080041F40021704730B54FF4607401F00045A3
:1006180021F000411CE700BF50EA010208BF704703
:1006280030B54FF000050AE050EA010208BF7047F4
:1006380030B511F0004502D5404261EB41014FF45D
:10064800806404F132045FEA915C3FF4D8AE4FF065
:1006580003025FEADC0C18BF03325FEADC0C18BF48
:10066800033202EBDC02C2F1200300FA03FC20FA99
:1006780002F001FA03FE40EA0E0021FA02F11444E6
:10068800BDE600BF70B54FF0FF0C4CF4E06C1CEAFF
:1006980011541DBF1CEA135594EA0C0F95EA0C0F70
:1006A80000F0DEF82C4481EA030621EA4C5123EAE3
:1006B8004C5350EA013518BF52EA033541F4801112
:1006C80043F4801338D0A0FB02CE4FF00005E1FBC5
:1006D80002E506F00042E0FB03E54FF00006E1FB0F
:1006E80003569CF0000F18BF4EF0010EA4F1FF0452
:1006F800B6F5007F64F5407404D25FEA4E0E6D4192
:1007080046EB060642EAC62141EA55514FEAC520A2
:1007180040EA5E504FEACE2EB4F1FD0C88BFBCF51E
:10072800E06F1ED8BEF1004F08BF5FEA500E50F1CF
:10073800000041EB045170BD06F0004646EA010195
:1007480040EA020081EA0301B4EB5C04C2BFD4EBC7
:100758000C0541EA045170BD41F480114FF0000EC0
:10076800013C00F3AB8014F1360FDEBF002001F02E
:10077800004170BDC4F10004203C35DA0C341BDCA8
:1007880004F11404C4F1200500FA05F320FA04F07A
:1007980001FA05F240EA020001F0004221F00041AE
:1007A80010EBD37021FA04F642EB06015EEA430E21
:1007B80008BF20EAD37070BDC4F10C04C4F1200551
:1007C80000FA04F320FA05F001FA04F240EA020004
:1007D80001F0004110EBD37041F100015EEA430ED5
:1007E80008BF20EAD37070BDC4F1200500FA05F2F5
:1007F8004EEA020E20FA04F301FA05F243EA020374
:1008080021FA04F001F0004121FA04F220EA020082
:1008180000EBD3705EEA430E08BF20EAD37070BDC8
:1008280094F0000F0FD101F00046400041EB0101A8
:1008380011F4801F08BF013CF7D041EA060195F08A
:10084800000F18BF704703F00046520043EB030344
:1008580013F4801F08BF013DF7D043EA0603704731
:1008680094EA0C0F0CEA135518BF95EA0C0F0CD03C
:1008780050EA410618BF52EA4306D1D181EA030182
:1008880001F000414FF0000070BD50EA410606BF7C
:100898001046194652EA430619D094EA0C0F02D1C1
:1008A80050EA013613D195EA0C0F05D152EA033606
:1008B8001CBF104619460AD181EA030101F0004124
:1008C80041F0FE4141F470014FF0000070BD41F06D
:1008D800FE4141F4780170BD70B54FF0FF0C4CF447
:1008E800E06C1CEA11541DBF1CEA135594EA0C0F66
:1008F80095EA0C0F00F0A7F8A4EB050481EA030EB3
:1009080052EA03354FEA013100F088804FEA033399
:100918004FF0805545EA131343EA12634FEA022267
:1009280045EA111545EA10654FEA00260EF0004128
:100938009D4208BF964244F1FD0404F5407402D27A
:100948005B084FEA3202B61A65EB03055B084FEA0B
:1009580032024FF480104FF4002CB6EB020E75EB08
:10096800030E22BFB61A754640EA0C005B084FEA30
:100978003202B6EB020E75EB030E22BFB61A7546AD
:1009880040EA5C005B084FEA3202B6EB020E75EBF8
:10099800030E22BFB61A754640EA9C005B084FEA70
:1009A8003202B6EB020E75EB030E22BFB61A75467D
:1009B80040EADC0055EA060E18D04FEA051545EA6C
:1009C80016754FEA06164FEAC30343EA52734FEA15
:1009D800C2025FEA1C1CC0D111F4801F0BD141EA8E
:1009E80000014FF000004FF0004CB6E711F4801FF3
:1009F80004BF01430020B4F1FD0C88BFBCF5E06FD3
:100A08003FF6AFAEB5EB030C04BFB6EB020C5FEAE2
:100A1800500C50F1000041EB045170BD0EF0004E37
:100A28004EEA113114EB5C04C2BFD4EB0C0541EA69
:100A3800045170BD41F480114FF0000E013C90E666
:100A480045EA060E8DE60CEA135594EA0C0F08BF2A
:100A580095EA0C0F3FF43BAF94EA0C0F0AD150EA29
:100A680001347FF434AF95EA0C0F7FF425AF1046BC
:100A780019462CE795EA0C0F06D152EA03353FF4E4
:100A8800FDAE1046194622E750EA410618BF52EA61
:100A980043067FF4C5AE50EA41047FF40DAF52EA35
:100AA80043057FF4EBAE12E74FF0FF3C06E000BFD2
:100AB8004FF0010C02E000BF4FF0010C4DF804CDDF
:100AC8004FEA410C7FEA6C5C4FEA430C18BF7FEA9F
:100AD8006C5C1BD001B050EA410C0CBF52EA430CCD
:100AE80091EA030F02BF90EA020F0020704710F14D
:100AF800000F91EA030F58BF994208BF90422CBFDC
:100B0800D8176FEAE37040F0010070474FEA410CD4
:100B18007FEA6C5C02D150EA013C07D14FEA430CF2
:100B28007FEA6C5CD6D152EA033CD3D05DF8040B63
:100B3800704700BF8446104662468C461946634695
:100B480000E000BF01B5FFF7B7FF002848BF10F16C
:100B5800000F01BD4DF808EDFFF7F4FF0CBF0120B1
:100B680000205DF808FB00BF4DF808EDFFF7EAFF2D
:100B780034BF012000205DF808FB00BF4DF808EDE8
:100B8800FFF7E0FF94BF012000205DF808FB00BFDD
:100B98004DF808EDFFF7CEFF94BF012000205DF867
:100BA80008FB00BF4DF808EDFFF7C4FF34BF012074
:100BB80000205DF808FB00BF4FEA410C7FEA6C5C3F
:100BC80002D150EA013C0AD14FEA430C7FEA6C5C3F
:100BD80002D152EA033C02D14FF0000070474FF0B7
:100BE800010070474FEA410212F5001215D211D5E3
:100BF8006FF47873B3EB625212D94FEAC12343F012
:100C0800004343EA505311F0004F23FA02F018BF93
:100C1800404270474FF00000704750EA013005D15C
:100C280011F0004008BF6FF0004070474FF000001F
:100C3800704700BF53B94AB9002908BF00281CBF34
:100C48004FF0FF314FF0FF3000F076B9ADF1080CEE
:100C58006DE904CE00F006F8DDF804E0DDE90223D2
:100C680004B070472DE9F047089E0D4604468846B3
:100C7800002B4DD18A42944668D9B2FA82F252B119
:100C880001FA02F3C2F1200120FA01F10CFA02FC88
:100C980041EA030894404FEA1C41B8FBF1F71FFAF8
:100CA8008CFE01FB178807FB0EF0230C43EA084370
:100CB80098420AD91CEB030307F1FF3580F01E8127
:100CC800984240F21B81023F63441B1AB3FBF1F0C8
:100CD80001FB103300FB0EFEA4B244EA0344A64510
:100CE8000AD91CEB040400F1FF3380F00981A64502
:100CF80040F20681644402380021A4EB0E0440EA65
:100D080007401EB10023D440C6E90043BDE8F08780
:100D18008B4208D9002E00F0EE800021C6E90005BC
:100D28000846BDE8F087B3FA83F100294AD1AB42FF
:100D380002D3824200F2FC80841A65EB030301208F
:100D48009846002EE2D0C6E90048DFE702B9FFDE88
:100D5800B2FA82F2002A40F09180A1EB0C00012146
:100D68004FEA1C471FFA8CFEB0FBF7F307FB130092
:100D7800250C45EA00450EFB03F0A84208D91CEBF8
:100D8800050503F1FF3802D2A84200F2CE8043469F
:100D98002D1AB5FBF7F007FB10550EFB00FEA4B2A9
:100DA80044EA0544A64508D91CEB040400F1FF35C4
:100DB80002D2A64500F2B6802846A4EB0E0440EA0B
:100DC80003409EE7C1F120078B4022FA07FC4CEA5A
:100DD800030C25FA07FA4FEA1C49BAFBF9F820FA7E
:100DE80007F309FB18AA8D401FFA8CFE1D4300FA71
:100DF80001F308FB0EF02C0C44EA0A44A04202FA64
:100E080001F20BD91CEB040408F1FF3A80F088804A
:100E1800A04240F28580A8F102086444241AB4FB79
:100E2800F9F009FB104400FB0EFEADB245EA04449C
:100E3800A64508D91CEB040400F1FF356CD2A64581
:100E48006AD90238644440EA0840A0FB0295A4EB42
:100E58000E04AC42C846AE4656D353D0002E69D0D5
:100E6800B3EB080264EB0E0422FA01F304FA07F765
:100E78001F43CC40C6E90074002147E70CFA02FC86
:100E8800C2F1200125FA01F34FEA1C4720FA01F1CB
:100E980095400D43B3FBF7F107FB11331FFA8CFEA6
:100EA800280C40EA034001FB0EF3834204FA02F4E3
:100EB80008D91CEB000001F1FF382FD283422DD94D
:100EC80002396044C01AB0FBF7F307FB1300ADB258
:100ED80045EA004503FB0EF0A84208D91CEB0505BE
:100EE80003F1FF3816D2A84214D9023B6544281AE8
:100EF80043EA014138E73146304607E72F46E4E642
:100F08001846F9E64B45A9D2B9EB020865EB0C0E79
:100F18000138A3E74346EAE7284694E74146D1E784
:100F2800D0467BE76444023847E7023B65442FE735
:100F3800084606E73146E9E6704700BF70B5002568
:100F4800AE46104BAC4603E04FF0000E0CF1010C1E
:100F5800BCF1090F15D8B1FBF3F40EF1010604F149
:100F68003002D2B200F80E2003FB1411064CA4FB89
:100F78000343DB08302A08BF002DE5D00135B6460B
:100F8800E4E770BD00CA9A3BCDCCCCCC10B5844602
:100F98000378302B03D000242046234654E04378BE
:100FA800782B35D0582B36D00024204623464BE0EA
:100FB8002401A3F1300E5FFA8EFEBEF1090F21D88D
:100FC800303B1C4401300A2815D81CF8003093B176
:100FD800A3F14102D2B2052AEAD9A3F1610E5FFA60
:100FE8008EFEBEF1050FE3D9A3F1300E5FFA8EFE37
:100FF800BEF1090FDCD91CF80030002B3BD10C6086
:10100800012010BD052A01D8373BDAE7573BD8E75E
:1010180000240220D7E700240220D4E76B2A1ED040
:101028004B2A1CD06D2A20D04D2A1ED0A2F1300E9A
:101038005FFA8EFEBEF1090FE3D804EB840402EBDD
:101048004402A2F1300401330A2BDAD80028D8D19F
:101058001CF80320002AE1D10C600120F3E7002BE3
:10106800E0D0A4020C600120EDE7002BDED02405BF
:101078000C600120E7E70020C3E7000008B501463F
:10108800002201E0013292B28B5C002BFAD164237A
:10109800014802F057FC08BD940E002000B583B04B
:1010A8008DF807000A4B93F84130DBB2A02B09D02A
:1010B800642301220DF10701054802F043FC03B047
:1010C8005DF804FB024B202283F84120F0E700BFC3
:1010D800940E002030B587B004460025059501F030
:1010E800B5F8C4F1006303F50023DB0A0195039406
:1010F80001220292049305A901A801F0DDFB044630
:1011080001F0BEF814B9284607B030BD0120FBE74E
:10111800F8B504460E46174601F098F80025BD427A
:1011280012D20D4B9C420FD856F825200023214699
:10113800022001F0FBF858B9216856F82530994289
:1011480008D104340135EAE701F09AF80020F8BD27
:101158000320FCE70220FAE7FCFF070800B589B086
:1011680001F074F801A801F087FB01F089F8039BEE
:101178000348984302D109B05DF804FB0220FAE75E
:10118800F0FF0F0010B58EB00446684601F074FBFE
:10119800DCB90123089301230793A5238DF82C308C
:1011A8009DF811308DF82D30029C44F47F2444F4CE
:1011B8007F6401F04BF801F06DF801F0FDF903468A
:1011C80028B153B900200EB010BD0023E2E70994FE
:1011D80007A801F0EFFA0346F3E70420F3E700005D
:1011E80010B584B0002301930293CDF80B3000931F
:1011F8001C48FFF743FF684600F050FA0446642095
:1012080000F04EFE4CB1052C1FD0042C21D0022C2E
:1012180023D01548FFF732FF15E01448FFF72EFFDB
:101228001348FFF72BFF009901A8FFF787FE114825
:10123800FFF724FF01A8FFF721FF0F48FFF71EFF64
:101248000E48FFF71BFF04B010BD0D48FFF716FF4F
:10125800F9E70C48FFF712FFF5E70B48FFF70EFF19
:10126800F1E700BF30A5000864A600086CA50008D7
:10127800480A0020C0A50008CCA50008D8A5000889
:10128800F0A5000830A600084CA6000800B583B0F9
:1012980000238DF807301148FFF7F0FE4FF0FF33B9
:1012A80001220DF107010E4802F0ABFB9DF8073053
:1012B800432B02D003B05DF804FB0A4802460A49F2
:1012C80000F0CAFA8DF8070018B10848FFF7D6FEF3
:1012D800F0E70748FFF7D2FEECE700BF84A6000856
:1012E800940E002000000108A0A60008B8A6000877
:1012F800E4A6000800B583B000238DF80730444CFD
:101308002046FFF7BBFE4348FFF7B8FE424D28468C
:10131800FFF7B4FE4148FFF7B1FE2846FFF7AEFEDF
:101328003F48FFF7ABFE2046FFF7A8FE3D48FFF712
:10133800A5FEFFF713FF3C4B186005E03B48FFF79D
:101348009DFE14E0FFF74CFF3948FFF797FE394838
:10135800FFF794FE3848FFF791FE3848FFF78EFEF6
:10136800314B1B68002BE9D03548FFF787FE35481D
:10137800FFF784FE344803685B684FF0FF330122AF
:101388000DF1070102F03DFB9DF80730313B032BBF
:1013980039D801A252F823F04D130008B113000800
:1013A800B7130008C5130008FFF770FFCCE72748FC
:1013B800FFF764FE264802F0A7FDC5E71A4B1B6835
:1013C80083B10120FFF7DEFE40B92248FFF756FE41
:1013D8002148FFF753FE00F071FFB5E71F48FFF7FC
:1013E8004DFEB1E70020FFF7CDFE40B91C48FFF7DE
:1013F80045FE1948FFF742FE00F060FFA4E71948D0
:10140800FFF73CFEA0E71848FFF738FE9CE700BF4F
:1014180004A7000850A700089CA70008E8A7000830
:1014280034A8000880A80008440A0020C8A90008B9
:1014380088A80008C8A8000808A9000848A9000842
:1014480088A9000808AA0008940E002048AA0008E5
:10145800000001086CAA00088CAA0008ACAA0008C1
:10146800DCAA0008FCAA000828AB000800B59C46C6
:10147800B3F5806F0DD3B3F5806F28BF4FF4806C40
:1014880002234B704FF4806E8A70D243CA700422D4
:101498000CE0802B28BF4FF0800C01234B704FF0DD
:1014A800800EF1E710F8013B8B5401320CF1040374
:1014B8009342F7D8E64501D25DF804FB0EF1040229
:1014C8009A42F9D91A22CA540133F7E770B584B0A1
:1014D80005460E4611460123437000248470FF23FD
:1014E800C370335D2BB13F2C03D8201D2B5401341E
:1014F800F7E7231D0026EE5401A8FFF71FFD05346A
:10150800334602E001332A55013403F110026A44DC
:1015180012F80C2C002AF5D102E000232B550134D7
:10152800832CFAD904B070BD41F4807106E080F4D0
:10153800815080F0010011F4803F09D1400049003A
:1015480011F4807F00D0013010F4803FF3D0EEE733
:1015580080B2704738B504464518002004E014F8F6
:10156800011B80B2FFF7E0FFAC42F8D3002180B244
:10157800FFF7DAFF0021FFF7D7FF38BD2DE9F0416B
:1015880082B006460C46154600230B60134601221E
:101598000DF10701404802F034FA8046002872D164
:1015A8009DF80710182919D84BB2002B48D00139DB
:1015B80017290FD8DFE801F048310E0C0E0E0E0E79
:1015C8000E0E0E0E0E0E0E0E0E0E0E0E0E0E0E340D
:1015D80000270AE04FF00B08002706E0412935D024
:1015E800612937D14FF0020800279DF80730337082
:1015F8007F2F49D92B463A1DB11C274802F001FA22
:101608008046002845D1B278F378DB43DBB29A42B2
:101618002AD04FF00C08002736E04FF48067E4E743
:101628002B4601220DF107011B4802F0EAF9A8B97F
:101638009DF80730182B15D04FF00A080027D4E77B
:101648004FF00B080027D0E78027CEE74FF00208BD
:101658000027CAE74FF00B080027C6E74FF00A0833
:101668000027C2E70227C0E7F3191A795D7905EB6D
:1016780002253946301DFFF76DFFA84204D04FF010
:101688000D08002700E000272760404602B0BDE8AB
:10169800F0810027F8E700BF940E00202DE9F04FF5
:1016A8008BB001900026DFF898B1B1463546B246B6
:1016B800BAF1000F40F0BF80002E40F0BC80B04669
:1016C800574695E0099D3DB1022D0AD10620FFF746
:1016D800E5FC3D4602268BE00620FFF7DFFC0127EC
:1016E80086E0584B9B7843450CD1B8F1000F64D184
:1016F800544B1B79CBB90620FFF7D0FC3D46012798
:10170800BA4675E01520FFF7C9FC3D4670E0013385
:101718004D4881540132197809B13F2AF7D94A490D
:101728000020885401333A4609E03A46474BF2E72D
:10173800013302F12800684400F8181C01321978B6
:10174800202901D00F2AF3D902F128030DEB030257
:10175800002302F8183C08A904A8FFF717FC089A08
:101768003B4B9A4213D83648FFF7B4FC089B019AC2
:1017780013600620FFF792FC4320FFF78FFC08F167
:1017880001085FFA88F83D464FF0010930E0182358
:101798008DF80F302F4C4FF4801301220DF10F01FB
:1017A800204602F0CFF84FF4801301220DF10F010B
:1017B800204602F0C7F80526D5E7AA082349584667
:1017C800FFF7A6FC28B9099B9B440620FFF766FC97
:1017D800D5E71820FFF762FC1820FFF75FFC042606
:1017E800CDE71820FFF75AFC1820FFF757FC2646CC
:1017F800002F7FF45DAF002E7FF45AAF40F6B83269
:1018080009A91048FFF7BAFE044600283FF45AAF6A
:101818000228E6D0B9F1000F00D00135052D06D910
:101828001820FFF73BFC1820FFF738FCE0E74320BF
:10183800FFF734FCDCE730460BB0BDE8F08F00BFA3
:1018480000000108880A0020480A00208C0A0020AD
:1018580001000400940E00202DE9F04F85B0834666
:1018680091469348FFF732FE4FF00008CDF8048008
:101878004646474603E00136042E00D90127019B5E
:10188800002B40F08D80002F3AD1894C894D4FF4C0
:1018980080138322611C284602F054F88021201D01
:1018A800FFF758FE0446C0F30720FFF7F7FBE0B246
:1018B800FFF7F4FB4FF48013012203A9284602F036
:1018C800A0F80028D7D19DF80C30062B15D0182B7E
:1018D800D2D14FF48013012203A9284602F091F8CF
:1018E8000028C9D19DF80C30182BC5D1022000F072
:1018F800D7FA2B685B680227BEE701230193BBE791
:10190800B846012301934CE0802514E0AB44D1464E
:101918004FF0010A00E00136042E01D94FF001080A
:10192800BAF1000F3DD1B8F1000F3AD1B9F5806F87
:10193800EAD34FF480655E4C5E4F4FF48013EA1C87
:10194800611C384601F0FEFF2946201DFFF702FE04
:101958000446C0F30720FFF7A1FBE0B2FFF79EFBA8
:101968004FF48013012203A9384602F04AF80028F0
:10197800D1D19DF80C30062BCDD1A945C6D9AB44A1
:10198800A9EB0509019BB3F5807F04D001330193CE
:101998004FF0010AC0E74FF005084FF0010ABBE716
:1019A800B846B9F1000F0ED0B8F1000F0BD14B4675
:1019B8009DF804203E495846FFF758FD00268DF84B
:1019C8000C60B246ACE700248DF80C40254646462C
:1019D80003E00134042C00D901264DBB46BB04208A
:1019E800FFF75CFB4FF48013012203A9314802F092
:1019F80008F80028EDD19DF80C30062B16D0182BCE
:101A0800E8D14FF48013012203A92A4801F0F9FF15
:101A18000028DFD19DF80C30182BDBD1022000F014
:101A28003FFA244B1B685B680226D3E70125D1E700
:101A3800B04686BB1E4B01225A7000229A70FF22C4
:101A4800DA70042304E01A4A0021D1540133DBB2CE
:101A5800832BF8D9164C174D4FF480138322611C41
:101A6800284601F06FFF8021201DFFF773FD044613
:101A7800C0F30720FFF712FBE0B2FFF70FFB4FF4AC
:101A88008013012203A9284601F0BBFF18B99DF86D
:101A98000C30182B03D0404605B0BDE8F08F02206B
:101AA80000F0FEF92B685B684FF00208F3E700BF0F
:101AB800880A0020940E002030B58BB000230693CE
:101AC80007930893099303F1804303F504339A6954
:101AD80042F040029A619A6902F040020192019A2A
:101AE8009A6942F010029A619A6902F01002029211
:101AF800029A9A6942F004029A619A6902F0040211
:101B08000392039A9A6942F008029A619A6902F06C
:101B180008020492049A9A6942F020029A619B6929
:101B280003F020030593059B4FF6FF7506950324E4
:101B3800079406A90F4800F073FF0695079406A9B5
:101B48000D4800F06DFF49F6FF130693079406A9A8
:101B58000A4800F065FF0695079406A9084800F0B2
:101B68005FFF0695079406A9064800F059FF0BB0D9
:101B780030BD00BF001801400010014000080140BE
:101B8800000C01400014014000B583B001904FF6ED
:101B9800FF73012201A9034801F0D4FE019803B0A4
:101BA8005DF804FB940E002072B6FEE700B591B014
:101BB8002822002106A802F0C9FC00230193029301
:101BC800039304930593012206924FF480330793FD
:101BD8000A9202220D920E934FF4E0130F9306A877
:101BE80001F00CF980B90F2301930221029100231F
:101BF80003934FF480620492059301A801F0CCFB93
:101C080020B911B05DF804FBFFF7CEFFFFF7CCFF5A
:101C180008B500F021F9FFF7C9FFFFF74DFF00F005
:101C280097F8FFF767FB642000F03AF9FBE7704785
:101C380082B00E4B9A6942F001029A619A6902F0E9
:101C480001020092009ADA6942F08052DA61DB6997
:101C580003F080530193019B054A536823F0E06326
:101C680043F00073536002B0704700BF0010024099
:101C780000000140FEE7FEE7FEE7FEE7FEE77047EB
:101C88007047704708B500F0F9F808BD08B5024874
:101C980001F0A8FF08BD00BF940E00200120704786
:101CA80008B502F0F5FB162303604FF0FF3008BDBE
:101CB80008B54FF0FF31FFF7F3FFFEE770B50C46AC
:101CC8001646002506E0AFF30080214601F8010B17
:101CD80001350C46B542F6DB304670BD70B50C4692
:101CE8001646002504E014F8010BFFF74DFF0135F7
:101CF800B542F8DB304670BD08B503460B4A12689A
:101D080042B10A4A106803446A46934206D8074A11
:101D1800136008BD054A06491160F2E702F0B8FBF6
:101D28000C2303604FF0FF30F3E700BF900E002054
:101D3800B81000204FF0FF3070474FF400534B604D
:101D4800002070470120704700207047704700004E
:101D580008B50A480A4B03604FF4E1334360002397
:101D68008360C36003610C2242618361C36101F037
:101D78006BFD00B908BDFFF717FFFBE7940E0020C5
:101D88000038014030B587B00023029303930493D1
:101D9800059302681B4B9A4201D007B030BD03F58A
:101DA80058439A6942F480429A619A6902F48042DF
:101DB8000092009A9A6942F004029A619B6903F0C2
:101DC80004030193019B4FF40073029302230393CE
:101DD800032305930C4D02A9284600F021FE4FF479
:101DE8008063029300240394049402A9284600F017
:101DF80017FE22462146252000F084F8252000F011
:101E0800C7F8CAE7003801400008014010B5044689
:101E18000E4B18784FF47A73B3FBF0F30C4A106842
:101E2800B0FBF3F000F0DEF868B90F2C01D90120FF
:101E38000AE0002221464FF0FF3000F063F8054B1E
:101E48001C60002000E0012010BD00BF040000203D
:101E5800000000200800002008B5074A136843F076
:101E680010031360032000F02FF80020FFF7CEFFC7
:101E7800FFF7DEFE002008BD00200240034A11687B
:101E8800034B1B780B441360704700BFDC0E002027
:101E980004000020014B1868704700BFDC0E0020CA
:101EA80038B50446FFF7F6FF0546B4F1FF3F02D008
:101EB800044B1B781C44FFF7EDFF401BA042FAD3EC
:101EC80038BD00BF0400002010B50446C31E042B13
:101ED8000FD80A4AD36823F4E0631B041B0C2402BE
:101EE80004F4E064234343F0BF6343F40033D36056
:101EF80010BD91210248FFF79AFEEAE700ED00E0E5
:101F080080AB000870B505460C4616460F2A25D842
:101F18000F2C28D81B4BDB68C3F30223C3F107013E
:101F2800042928BF04211A1D062A21D9033B4FF092
:101F3800FF3202FA01F124EA01049C4002FA03F399
:101F480026EA03063443002D14DB2401E4B205F12C
:101F5800604505F5614585F8004370BDA9210A482B
:101F6800FFF765FED4E7AA210748FFF760FED1E72F
:101F78000023DCE705F00F052401E4B2034B5C55B0
:101F8800EBE700BF00ED00E080AB000814ED00E0D7
:101F980010B5041E0ADB002C07DB04F01F026409DD
:101FA80001239340044A42F8243010BDBD21034860
:101FB800FFF73DFEEFE700BF00E100E080AB00085F
:101FC800BFF34F8F0549CA6802F4E062044B13431C
:101FD800CB60BFF34F8F00BFFDE700BF00ED00E00F
:101FE8000400FA050138B0F1807F0BD24FF0E023EE
:101FF8005861054AF02182F82310002098610722D1
:102008001A6170470120704700ED00E090F8213018
:10201800DBB2022B06D004238363002380F8203030
:10202800012070470268136823F00E0313600268EA
:10203800136823F001031360036CC16B012202FAD9
:1020480003F34B6080F82120002380F820301846E5
:102058007047000008B590F82130DBB2022B03D09E
:1020680004238363012008BD0268136823F00E036C
:1020780013600268136823F00103136003684C4A75
:1020880093424ED9783A934224D01432934230D0B6
:10209800143293422FD0143293422FD014329342E9
:1020A8002FD0143293422FD0143293422FD002F5FE
:1020B800627293422ED0143293422DD0143293423E
:1020C8002CD01432934202D04FF4803203E04FF404
:1020D800805200E00122374B5A60012380F82130FA
:1020E800002380F82030436B002B5ED098470020F7
:1020F800B9E71022EFE74FF48072ECE74FF4805213
:10210800E9E74FF48032E6E74FF48012E3E74FF057
:102118008072E0E70122DEE71022DCE74FF48072EC
:10212800D9E7254A934224D01432934225D0143259
:10213800934224D01432934224D01432934224D0B0
:102148001432934224D01432934224D002F562729E
:10215800934223D01432934222D01432934221D096
:102168001432934202D04FF4803203E04FF480528D
:1021780000E00122114B5A60AFE71022FAE74FF452
:102188008072F7E74FF48052F4E74FF48032F1E7BA
:102198004FF48012EEE74FF08072EBE70122E9E797
:1021A8001022E7E74FF48072E4E700205BE700BF06
:1021B8008000024000040240080002400000024083
:1021C800044B0022DA61044A136943F001031361E6
:1021D80001807047E00E002000200240194BDB68A8
:1021E80013F0100305D0184AD36943F00203D361F2
:1021F8001023144AD26812F0040F06D01249CA6993
:1022080042F00102CA6143F004030E4AD26912F097
:10221800010F09D00C49CA6942F00402CA61094990
:10222800CA6922F00102CA6140F20112934202D047
:10223800044AD3607047034AD36923F00103D3618A
:10224800704700BF00200240E00E00200A4B1B69C7
:1022580013F0800F0BD0084B084A5A6002F18832FD
:102268005A601B6913F0800F03D1002070470020CB
:1022780070470120704700BF0020024023016745D6
:10228800034A136943F0800313610020704700BFBD
:1022980000200240074B1B6913F4007F07D1054B50
:1022A800054A9A6002F188329A600020704701203E
:1022B800704700BF002002402301674508B5FFF7BB
:1022C8007FFE08BD38B50446FFF7E4FD0546164B0A
:1022D800DB6813F0010F0AD0B4F1FF3FF7D024B147
:1022E800FFF7D8FD401BA042F1D903201BE00E4B9D
:1022F800DB6813F0200F02D00B4B2022DA600A4B68
:10230800DB6813F0100F0BD1074BDB6913F0010FDB
:1023180006D1054BDB6813F0040F01D1002002E061
:10232800FFF75CFF012038BD002002402DE9F8438B
:102338001E46354B1B7E012B64D004460F46904643
:10234800314B01221A76431E022B42D8B7F1006F97
:102358000BD32E4BB3F8E030B3F5007F3ED0B3F586
:10236800C07F3FD02A4B9F4203D9B1212948FFF7AC
:102378005EFC4CF25030FFF7A5FF034600283BD126
:10238800012C36D0022C31D04FF004091C464C45A4
:1023980032D22101C1F12002A1F1200328FA01F172
:1023A80006FA02F2114326FA03F3194389B207EB3E
:1023B8004400FFF705FF4CF25030FFF783FF164B40
:1023C8001D6925F001051D610346A8B90134E4B271
:1023D800DDE7B0210F48FFF72AFCB7E70F4B9F4214
:1023E800C3D8C6E70E4B9F42BFD8C2E74FF00209D9
:1023F800CCE74FF00109C9E7034A002111761846D6
:10240800BDE8F8830223FAE7E00E002000F7FF1F7B
:10241800FFFF0308D8AB000800200240FFFF0708B1
:10242800FFFF0508014B186A704700BF00200240F3
:10243800044BDB6913F0020F01D000207047A52080
:10244800704700BF00200240024BD869C0F38200E9
:10245800704700BF0020024008B501280CD1094B85
:102468000022DA61084B1A6942F004021A611A69FB
:1024780042F040021A6108BD4FF415710348FFF796
:10248800D6FBECE7E00E0020002002402CAC000850
:1024980038B50446A52800D028B94CF25030FFF7CB
:1024A80011FF30B138BD40F279311548FFF7BFFB55
:1024B800F3E7144B0022DA61134D2B6943F0200334
:1024C8002B612B6943F040032B614CF25030FFF72E
:1024D800F9FE2B6923F020032B610028E2D12B6938
:1024E80043F010032B61A4B2084B1C804CF250300F
:1024F800FFF7E8FE2B6923F010032B61D2E700BF3A
:102508002CAC0008E00E00200020024000F8FF1F5D
:1025180038B504464CF25030FFF7D4FE00B138BD50
:102528000A4B0022DA610A4D2B6943F010032B6134
:1025380044F08800074B58804CF25030FFF7C2FE39
:102548002B6923F010032B61E9E700BFE00E0020A0
:102558000020024000F8FF1F70B504460D46124BDC
:10256800984202D00233984205D14CF25030FFF71E
:10257800A9FE30B170BD40F2DF310C48FFF757FBC0
:10258800F3E70B4B0022DA610A4E336943F010037C
:102598003361A9B221804CF25030FFF793FE3369C2
:1025A80023F010033361E5E704F8FF1F2CAC0008A3
:1025B800E00E00200020024038B5FFF739FFC5B211
:1025C8004CF25030FFF77EFE00B138BD0C4B0022B4
:1025D800DA610C4C236943F020032361236943F03B
:1025E800400323614CF25030FFF76CFE236923F05F
:1025F800200323610028E8D12846FFF749FFE4E7D4
:10260800E00E002000200240F8B5044688B1FFF72C
:1026180009FF20EA0400C5B2C0F30727C0F3074644
:10262800040E4CF25030FFF74DFE034638B1184601
:10263800F8BD40F291212548FFF7F9FAE7E7244B66
:102648000022DA61FFF7B8FF03460028EFD12149DD
:102658000A6942F010020A61FF2D0ED10BB9FF2F53
:1026680015D10BB9FF2E1CD10BB9FF2C23D1194959
:102678000A6922F010020A61D9E7174B1A89154036
:102688001D814CF25030FFF71DFE0346E6E7124B62
:102698005A8917405F814CF25030FFF713FE03460A
:1026A800DFE70D4B9A8916409E814CF25030FFF7B8
:1026B80009FE0346D8E7084BD8892040D8814CF258
:1026C8005030FFF7FFFD0346D1E700BF2CAC0008F0
:1026D800E00E00200020024000F8FF1FF8B5044675
:1026E80080B1FFF79FFE2043C5B2C0F30727C0F3B0
:1026F8000746040E4CF25030FFF7E4FD034638B1AC
:102708001846F8BD4FF443712648FFF790FAE8E7FA
:10271800254B0022DA61FFF74FFF03460028EFD16F
:1027280022490A6942F010020A61FF2D0ED10BB945
:10273800FF2F16D10BB9FF2E1ED10BB9FF2C26D1B6
:102748001A490A6922F010020A61D9E7184A13895E
:102758009BB21D4315814CF25030FFF7B3FD034681
:10276800E5E7134A53899BB21F4357814CF2503017
:10277800FFF7A8FD0346DDE70D4A93899BB21E4388
:1027880096814CF25030FFF79DFD0346D5E7084B84
:10279800D88980B22043D8814CF25030FFF792FD9F
:1027A8000346CDE72CAC0008E00E002000200240D4
:1027B80000F8FF1F2E4B1B7E012B56D010B5044688
:1027C8002B4B01221A7603680F2B11D8236813F0BC
:1027D800010F1DD06368012B10D86368012B13D03B
:1027E800A068FFF77BFFA0B1214B00221A761FE0FB
:1027F8004FF4E2711F48FFF71AFAE7E740F2C911F0
:102808001C48FFF714FAE8E7A068FFF7FDFEEAE7BF
:102818000120236813F0020F0BD1236813F0040F73
:1028280010D1236813F0080F15D1114B00221A7626
:1028380010BD207CFFF72CFE0028EED00C4B0022A8
:102848001A76F5E7607CFFF763FE0028E9D0084BAD
:1028580000221A76ECE7217E6069FFF77DFE0028EA
:10286800E3D0034B00221A76E2E70220704700BF4C
:10287800E00E00202CAC000810B5044607230360C6
:10288800FFF7D0FDA060FFF7D3FD2074FFF7DCFD54
:10289800607410BD064B0022DA61064B1A6942F0DB
:1028A80002021A6158611A6942F040021A617047BF
:1028B800E00E002000200240524B1B7E012B00F04E
:1028C8009E8070B504460E464E4B01221A76036868
:1028D8000BB1022B4ED12368022B50D0A368B3F161
:1028E800006F0BD3484AB2F8E020B2F5007F5BD006
:1028F800B2F5C07F5CD0454A934203D9E7214448EA
:10290800FFF795F9404BB3F8E030B3F5007F53D0AB
:10291800B3F5C07F5BD0A368E26803EBC223013B39
:102928003A4A93428CBF00230123002B5AD04CF221
:102938005030FFF7C7FC00285BD14FF0FF333360FE
:10294800A5680121E268A36803EBC223AB4251D911
:102958002846FFF79FFF4CF25030FFF7B3FC2D4A93
:10296800136923F002031361014600283FD105F5DE
:102978000065E7E7A6212648FFF759F9ABE74CF2CF
:102988005030FFF79FFC08B1012133E00120FFF729
:1029980063FD4CF25030FFF795FC01461D4A136960
:1029A80023F00403136125E01B4A9342A6D8A9E744
:1029B8001A4A9342A2D8A5E7A368E26803EBC223A8
:1029C800013B154A93428CBF00230123ADE7A3685E
:1029D800E26803EBC223013B104A93428CBF0023F9
:1029E8000123A2E7E8210A48FFF721F99FE73560AC
:1029F80000E00121034B00221A76084670BD02212F
:102A080008467047E00E002000F7FF1FFFFF03088D
:102A18002CAC000800200240FFFF0708FFFF050854
:102A28002DE9F04383B007460E46884B98421BD0E9
:102A380003F58063984217D003F58063984213D05A
:102A480003F5806398420FD003F5806398420BD05A
:102A580003F58063984207D003F58063984203D05A
:102A6800BD217B48FFF7E3F833689AB212B11B0C1B
:102A78001B041BB1BE217648FFF7D9F87368012BF8
:102A88001ED9112B1CD0022B1AD0122B18D0714A28
:102A9800934215D002F58012934211D002F58012AC
:102AA80093420DD0A2F5F812934209D002F5801294
:102AB800934205D002F58012934201D0032B03D133
:102AC8004FF000094D46FDE0BF216148FFF7AFF820
:102AD800F6E7614A934210D007D9604A93420CD076
:102AE80002F58032934208D01AE0A2F58012934290
:102AF80003D002F5702293420ED1B368022B00F284
:102B08008D80B368002B00F09580012B00F08B803E
:102B18007C614FF0080903E0A2F580129342ECD0E3
:102B2800B8F1FF0F00F289803846B8F1FF0F00F2C4
:102B38008680AA0003680F21914023EA010309FA5D
:102B480002F213430360736813F0805F00F0B980EA
:102B5800434B9A6942F001029A619B6903F00103B1
:102B68000193019BAA08911C3E4B53F8210005F0E4
:102B7800030399000F238B4020EA0300334B9F4245
:102B880072D003F580639F4200F0F68003F58063FE
:102B98009F4200F0F38003F580639F4200F0F080CD
:102BA80003F580639F4200F0ED8003F580639F4248
:102BB80049D0062359E0F368013B022B02D8D6F826
:102BC8000C90ADE7D5212248FFF731F8F7E7F36815
:102BD800013B022B03D8F36803F10409A0E7DC21C9
:102BE8001B48FFF724F8F6E7F368013B022B03D8EC
:102BF800F36803F1080993E7E3211548FFF717F88D
:102C0800F6E7F368013B022B03D8F36803F10C09DC
:102C180086E7EA210E48FFF70AF8F6E7F7210C489D
:102C2800FFF705F86DE73C614FF0080978E74FF0CA
:102C3800000975E74FF0040972E7381D75E7A5F13B
:102C48000802920076E705230FE000BF0008014064
:102C580084AC0008000011100000221000003110A0
:102C6800001002400000014000238B400343023261
:102C7800534941F82230736813F4801F00F08480B0
:102C8800504A936843EA08039360736813F4001F7B
:102C980000F080804B4AD36843EA0803D360736826
:102CA80013F4003F7CD0474A536843EA0803536053
:102CB800736813F4803F79D0424A136843EA0803E3
:102CC80013600135336833FA05F275D00124AC403E
:102CD80003EA040834EA0303F3D13B4B9F421BD0B9
:102CE80003F580639F4217D003F580639F4213D09A
:102CF80003F580639F420FD003F580639F420BD09A
:102D080003F580639F4207D003F580639F4203D099
:102D1800CD212E48FEF78BFF7368122B3FF6D9AEF4
:102D2800122B3FF6FDAE01A252F823F0032B000848
:102D3800BF2B0008F12B0008372C0008292B0008AE
:102D4800292B0008292B0008292B0008292B00080B
:102D5800292B0008292B0008292B0008292B0008FB
:102D6800292B0008292B0008292B0008292B0008EB
:102D7800D72B00080B2C0008012376E7022374E701
:102D8800032372E7042370E70E4A936823EA0803D3
:102D980093607AE70B4AD36823EA0803D3607EE797
:102DA800084A536823EA0803536081E7054A136811
:102DB80023EA0803136084E703B0BDE8F08300BF8B
:102DC80000000140000401400008014084AC0008F4
:102DD80082B0084B1B68084AA2FB03235B0A00FB6E
:102DE80003F3019300BF019B5A1E0192002BF9D1F6
:102DF80002B0704700000020D34D6210002800F098
:102E0800898270B582B00446036813B113F00F0FBE
:102E18002AD0236813F0010F40D063682BB1B3F5B3
:102E2800803F02D0B3F5A02F24D19C4B5B6803F000
:102E38000C03042B29D0994B5B6803F00C03082B77
:102E48001ED06368B3F5803F55D0002B69D103F1DC
:102E5800804303F504331A6822F480321A601A6832
:102E680022F480221A604BE040F265118C48FEF78C
:102E7800DEFECEE740F26B118948FEF7D8FED4E7B4
:102E8800864B5B6813F4803FDBD0844B1B6813F4DC
:102E9800003F03D06368002B00F03E82236813F0E4
:102EA800020F00F089802369012B63D863691F2B07
:102EB80066D87A4B5B6813F00C0F6CD0774B5B6865
:102EC80003F00C03082B61D02369002B00F09A80D3
:102ED800744B01221A60FEF7DDFF05466F4B1B6835
:102EE80013F0020F40F08580FEF7D4FF401B022844
:102EF800F4D9032015E2694A136843F48033136058
:102F0800636843B3FEF7C6FF0546644B1B6813F4BA
:102F1800003FC3D1FEF7BEFF401B6428F5D903204C
:102F2800FFE1B3F5A02F09D05C4B1A6822F4803278
:102F38001A601A6822F480221A60E1E703F18043DC
:102F4800A3F53C331A6842F480221A601A6842F4E6
:102F580080321A60D4E7FEF79DFF05464F4B1B6889
:102F680013F4003F9AD0FEF795FF401B6428F5D96B
:102F78000320D6E140F29F114948FEF758FE95E735
:102F88004FF4D0714648FEF752FE92E7434B5B6818
:102F980013F4803F98D1414B1B6813F0020F03D004
:102FA8002369012B40F0BA813C4A136823F0F803E7
:102FB800616943EAC1031360236813F0080F3CD02A
:102FC800A369012B30D8A369002B6FD0354B0122A0
:102FD800C3F88024FEF75EFF0546304B5B6A13F0AA
:102FE800020F27D1FEF756FF401B0228F5D9032010
:102FF80097E12A4A136823F0F803616943EAC10399
:103008001360D9E7274B00221A60FEF743FF0546F5
:10301800224B1B6813F0020FCED0FEF73BFF401B7C
:103028000228F5D903207CE14FF4F0711C48FEF723
:10303800FEFDC8E70120FFF7CBFE236813F0040F5D
:1030480000F0A480E368012B01D9052B41D1134B73
:10305800DB6913F0805F42D1104BDA6942F080528D
:10306800DA61DB6903F080530193019B01250E4B64
:103078001B6813F4807F34D0E368012B45D0002B04
:103088005BD103F1804303F504331A6A22F001028D
:103098001A621A6A22F004021A623BE00010024027
:1030A800D8AC00080000424200700040A14B00224A
:1030B800C3F88024FEF7EEFE05469F4B5B6A13F0CB
:1030C800020FBAD0FEF7E6FE401B0228F5D903200E
:1030D80027E140F20F219948FEF7A9FDB7E700253F
:1030E800C5E7974A136843F480731360FEF7D2FE6E
:1030F8000646934B1B6813F4807FBDD1FEF7CAFECA
:10310800801B6428F5D903200BE18B4A136A43F02E
:1031180001031362E36833B3FEF7BCFE0646864B31
:103128001B6A13F0020F2FD1FEF7B4FE801B41F289
:1031380088339842F3D90320F3E0052B09D07E4B5E
:103148001A6A22F001021A621A6A22F004021A624A
:10315800E0E7794B1A6A42F004021A621A6A42F0EE
:1031680001021A62D6E7FEF795FE0646724B1B6A05
:1031780013F0020F08D0FEF78DFE801B41F2883352
:103188009842F3D90320CCE0002D53D1E369022BF8
:1031980056D8E369002B00F0C380674A526802F0F2
:1031A8000C02082A00F0A680022B40F08F80236AC8
:1031B80013B1B3F5803F49D1636A4BB3B3F5802FA0
:1031C80026D0B3F5002F23D0B3F5402F20D0B3F588
:1031D800801F1DD0B3F5A01F1AD0B3F5C01F17D09C
:1031E800B3F5E01F14D0B3F5001F11D0B3F5101FCD
:1031F8000ED0B3F5201F0BD0B3F5301F08D0B3F5B0
:10320800401F05D0B3F5501F02D0B3F5601F23D17E
:10321800484B00221A66FEF73DFE0546464B1B68E2
:1032280013F0007F1ED0FEF735FE401B0228F5D9AB
:10323800032076E0404AD36923F08053D361A5E7A1
:1032480040F2AD213D48FEF7F2FCA2E740F2B6217C
:103258003A48FEF7ECFCAFE740F2B7213748FEF7F3
:10326800E6FCD5E7236AB3F5803F1AD032494B68AC
:1032780023F47413226A606A024313434B602D4B94
:1032880001221A66FEF706FE04462B4B1B6813F054
:10329800007F19D1FEF7FEFD001B0228F5D9032097
:1032A8003FE0A36813B1B3F5003F07D1224A536842
:1032B80023F40033A1680B435360D7E740F2CD21D4
:1032C8001E48FEF7B4FCF1E700202AE0194B002263
:1032D8001A66FEF7DFFD0446174B1B6813F0007FE4
:1032E80006D0FEF7D7FD001B0228F5D9032018E009
:1032F800002016E0012B16D00F4B5B6803F48031D9
:10330800226A914211D103F47013626A93420ED17A
:10331800002006E001207047012002E0012000E0C3
:10332800002002B070BD0120FBE70120F9E7012071
:10333800F7E700BF0000424200100240D8AC000886
:10334800007000400F4B5B6803F00C02082A01D0A4
:103358000D487047C3F383420C49885C13F4803FDF
:103368000BD0084B5B68C3F34043094AD35C064A59
:1033780002FB00F0B0FBF3F07047064B03FB00F0D4
:10338800704700BF0010024000127A002CAD000800
:103398003CAD000800093D00002800F0FC8070B535
:1033A8000D460446036813F00F0F6DD0022D71D837
:1033B8007D4B1B6803F00703AB420BD27A4A1368B4
:1033C80023F007032B431360136803F00703AB4292
:1033D80040F0E380236813F0020F29D013F0040FA4
:1033E80004D0724A536843F4E0635360236813F0CF
:1033F800080F04D06D4A536843F460535360A368C0
:103408007BB1802B0DD0902B0BD0A02B09D0B02BEB
:1034180007D0C02B05D0D02B03D0E02B01D0F02B48
:103428003ED1624A536823F0F003A1680B4353600E
:10343800236813F0010F4DD06368022B36D86368F8
:10344800012B39D0022B3ED0584A126812F0020FD5
:1034580000F0A58055494A6822F0030213434B60E7
:10346800FEF718FD0646514B5B6803F00C036268D3
:10347800B3EB820F2ED0FEF70DFD801B41F288338F
:103488009842F0D9032079E040F236314848FEF7F7
:10349800CEFB8BE740F237314548FEF7C8FB87E79C
:1034A80040F25D314248FEF7C2FBBAE74FF459716A
:1034B8003F48FEF7BCFBC2E73C4A126812F4003FE3
:1034C800C8D101205AE0394A126812F0007FC1D1F0
:1034D800012053E0344B1B6803F00703AB420AD9C1
:1034E800314A136823F007032B431360136803F072
:1034F8000703AB4255D1236813F0040F14D0E368D7
:103508005BB1B3F5806F08D0B3F5A06F05D0B3F504
:10351800C06F02D0B3F5E06F31D1244A536823F469
:10352800E063E1680B435360236813F0080F15D07C
:1035380023695BB1B3F5806F08D0B3F5A06F05D0F0
:10354800B3F5C06F02D0B3F5E06F1ED1174A5368C8
:1035580023F46053216943EAC1035360FFF7F2FE85
:10356800124B5B68C3F30313124AD35CD840124B67
:103578001860124B1868FEF749FC002070BD40F235
:10358800A2310B48FEF753FBC7E740F2A9310848C0
:10359800FEF74DFBDAE7012070470120EEE7012036
:1035A800ECE70120EAE700BF0020024000100240DB
:1035B800D8AC000868AB0008000000200800002014
:1035C800014B1868704700BF0000002008B5FFF7DE
:1035D800F7FF044B5B68C3F30223034AD35CD8406C
:1035E80008BD00BF0010024078AB000808B5FFF71F
:1035F800E7FF044B5B68C3F3C223034AD35CD8409C
:1036080008BD00BF0010024078AB0008026802F154
:103618000C0353E8003F23F490730C3242E8003166
:103628000029F3D1026802F1140353E8003F23F0A4
:103638000103143242E800310029F3D1036B012B56
:1036480005D0202380F842300023036370470268C6
:1036580002F10C0353E8003F23F010030C3242E858
:1036680000310029F3D1ECE790F84130DBB2212B8F
:1036780001D0022070478368B3F5805F17D0036AD2
:103688005A1C02621A7803685A60C38C9BB2013BC9
:103698009BB2C3844BB90268D36823F08003D3601C
:1036A8000268D36843F04003D36000207047036981
:1036B800002BE4D1036A1B880268C3F30803536034
:1036C800036A02330362E0E710B504464268384BE8
:1036D8009A4257D8E36813B1B3F5005F58D123690C
:1036E8002BB1B3F5806F02D0B3F5C06F56D16369C3
:1036F8004FF6F372134200D123B940F669612D48A1
:10370800FEF795FA2268136923F44053E1680B43E6
:103718001361A3682269134362691A432168CB685D
:1037280023F4B05323F00C031343CB60226853698E
:1037380023F44073A1690B43536122681E4B9A42DC
:1037480032D0FFF743FF024602EB820202EB82020D
:1037580063689B00B2FBF3F21848A0FB02314909E9
:10376800642303FB11231B013233A0FB03235B09F2
:1037780003F0F00202EB011203F00F032168134477
:103788008B6010BD40F666610A48FEF750FAA1E763
:1037980040F667610748FEF74AFAA0E740F6686115
:1037A8000448FEF744FAA2E7FFF720FF0246CBE7FA
:1037B80020AA440040AD0008003801401F85EB51A5
:1037C8002DE9F84305460F4616469946DDF8208050
:1037D8002C68246837EA04030CBF4FF0010C4FF043
:1037E800000CB4452DD1B8F1FF3FF1D0B8F1000F6E
:1037F80005D0FEF74FFBA0EB09004045E8D92A6841
:1038080002F10C0353E8003F23F4D0730C3242E872
:1038180000310029F3D12A6802F1140353E8003F6C
:1038280023F00103143242E800310029F3D12023A8
:1038380085F8413085F84230002385F84030032070
:1038480000E00020BDE8F883002875D010B50446D4
:1038580083690BB30368394A93420CD0A2F57442CA
:10386800934208D002F58062934204D04FF4B771B6
:103878003348FEF7DCF9A3693BB3B3F5807F24D066
:10388800B3F5007F21D0B3F5407F1ED040F26F1111
:103898002B48FEF7CCF918E00368284A934214D065
:1038A800A2F57442934210D002F5806293420CD084
:1038B80002F58062934208D002F58062934204D0F8
:1038C80040F273111E48FEF7B2F9A36813B1B3F5BD
:1038D800805F25D194F8413043B3242384F84130E4
:1038E8002268D36823F40053D3602046FFF7ECFE28
:1038F8002268136923F4904313612268536923F003
:103908002A0353612268D36843F40053D36000202C
:103918006064202384F8413084F84230606310BD2D
:1039280040F275110648FEF782F9D3E784F8403073
:103938002046FEF727FAD0E70120704700380140FB
:1039480040AD00082DE9F04182B01E4690F84130A4
:10395800DBB2202B4BD104460D46904600294AD0B5
:103968000AB9012044E000234364212380F8413050
:10397800FEF790FA0746A4F82480A4F82680A368E6
:10398800B3F5805F02D04FF000080FE02369FBB168
:103998004FF000080AE038F8023B2268C3F3080336
:1039A8005360E28C92B2013A92B2E284E38C9BB209
:1039B8008BB100963B46002280212046FFF700FF8E
:1039C800D8B9002DE7D015F8012B23685A60E8E72D
:1039D800A8460025EAE700963B46002240212046FB
:1039E800FFF7EEFE58B9202384F8413000E00220AA
:1039F80002B0BDE8F0810120FAE70320F8E70320D0
:103A0800F6E72DE9F04182B01E4690F84230DBB26D
:103A1800202B53D104460D469046002952D00AB9AE
:103A280001204CE000234364222280F842200363F3
:103A3800FEF730FA0746A4F82C80A4F82E80A36875
:103A4800B3F5805F02D04FF0000817E0236913B187
:103A58004FF0000812E0A84600250FE023685B68D5
:103A6800C3F3080328F8023B03E023685B682B7064
:103A78000135E28D92B2013A92B2E285E38D9BB2B2
:103A8800BBB100963B46002220212046FFF798FE56
:103A9800D0B9002DE2D0A368B3F5805FE5D013B9A3
:103AA8002369002BE1D023685B6803F07F032B7048
:103AB800DEE7202384F84230002000E0022002B034
:103AC800BDE8F0810120FAE70320F8E7704708B560
:103AD8000168CA6822F04002CA60202280F84120AA
:103AE800FFF7F4FF002008BD7047704708B5406A2B
:103AF8000023C385C384FFF7F8FF08BD90F8423060
:103B0800DBB2222B69D18368B3F5805F4FD0826A1C
:103B1800B3F5805F04D0002B56D10369002B53D135
:103B280003685B681370836A01338362C38D9BB239
:103B3800013B9BB2C385002B51D100B583B002680D
:103B4800D36823F02003D3600268D36823F480731A
:103B5800D3600268536923F001035361202380F87E
:103B6800423000234363036B012B33D100230363EB
:103B7800026802F10C0353E8003F23F010030C32F3
:103B880042E800310029F3D103681A6812F0100FD7
:103B980006D0002201921A6801925B680193019B8A
:103BA800818D00F0CBF9002003B05DF804FB0269B9
:103BB800002AACD1826A03685B68C3F308031380E8
:103BC800836A02338362B1E703685B6803F07F03AB
:103BD8001370A8E7FFF788FFE5E702207047002089
:103BE8007047000030B583B0044602681368D06897
:103BF800516913F00F0505D113F0200F02D010F012
:103C0800200F19D12DB111F0010119D110F4907FB5
:103C180016D1216B01297DD013F0800F03D010F04D
:103C2800800F40F0188113F0400F03D010F0400FC0
:103C380040F0158103B030BD2046FFF75FFFF9E77C
:103C480013F0010F06D010F4807F03D0626C42F0AD
:103C58000102626413F0040F04D019B1626C42F0DF
:103C68000202626413F0020F04D019B1626C42F0D0
:103C78000402626413F0080F07D010F0200F00D17F
:103C880019B1626C42F008026264626C002AD1D0F9
:103C980013F0200F02D010F0200F29D123685B69A0
:103CA80003F04003626C12F0080F00D163B32046A2
:103CB800FFF7ACFC23685B6913F0400F20D0226843
:103CC80002F1140353E8003F23F04003143242E8A2
:103CD80000310029F3D1E36B73B1634A5A63E06B97
:103CE800FEF7B8F90028A5D0E06B436B9847A1E729
:103CF8002046FFF703FFD1E72046FFF7F6FE99E7D6
:103D08002046FFF7F2FE95E72046FFF7EEFE002378
:103D180063648FE713F0100F3FF47EAF10F0100FBD
:103D28003FF47AAF0023019313680193536801931A
:103D3800019B536913F0400F51D0E26B13685B6825
:103D48009BB2002B3FF476AFA18D99427FF672AFFC
:103D5800E3859369202B37D0226802F10C0353E8DE
:103D6800003F23F480730C3242E800310029F3D17C
:103D7800226802F1140353E8003F23F001031432D0
:103D880042E800310029F3D1226802F1140353E814
:103D9800003F23F04003143242E800310029F3D1F8
:103DA800202384F8423000232363226802F10C03A5
:103DB80053E8003F23F010030C3242E80031002999
:103DC800F3D1E06BFEF722F902236363A18DE38D43
:103DD8009BB2C91A89B2204600F0B0F82AE7A18D33
:103DE800E38D9BB2C91A89B2E38D9BB2002B3FF4D5
:103DF80021AF00293FF41EAF226802F10C0353E8FB
:103E0800003F23F490730C3242E800300028F3D1CD
:103E1800226802F1140353E8003F23F0010314322F
:103E280042E800300028F3D1202384F842300023F0
:103E38002363226802F10C0353E8003F23F01003C8
:103E48000C3242E800300028F3D102236363204695
:103E580000F074F8EEE62046FFF706FCEAE6204696
:103E6800FFF735FEE6E600BFF53A00088162828575
:103E7800C28500234364222380F84230036923B1BA
:103E88000268D36843F48073D3600268536943F0CF
:103E9800010353610268D36843F02003D360002014
:103EA800704790F84230DBB2202B29D110B582B090
:103EB800044639B312B9012002B010BD01230363CF
:103EC80000234363FFF7D2FF0028F5D1236B012BB2
:103ED80001D00120F0E70023019323681A680192BA
:103EE8005B680193019B226802F10C0353E8003FD1
:103EF80043F010030C3242E800310029F3D1DBE72C
:103F0800022070470120D7E700B583B04FF0E023C7
:103F180000221A619A615A61064A53680193019B0B
:103F280005490B60126882F30888984703B05DF86A
:103F380004FB00BF00000108640F002038B50268C8
:103F4800084B1B689A4200D038BD0446064D0A4605
:103F58002946064800F02AFA642229462046FFF737
:103F6800A0FFF1E7940E0020000F00200C000020B5
:103F7800C27883781B0443EA0263427843EA022347
:103F88000078184370470870030A4B70030C8B7055
:103F9800000EC87070470000F0B58BB004460D469F
:103FA80000230593069307930893099301930293BB
:103FB8000393ADF81030A0F16403062B11D8DFE8A5
:103FC80003F00410363B627262002B788DF80430DF
:103FD8000023CDF80530CDF80930CDF80D308DF837
:103FE80011305A238DF8143014268DF815602F4D92
:103FF8002B788DF816308DF817400DF1180C01ABA1
:104008000FCBACE80700ACF800300DF126010DEB42
:10401800060000F0B6F92B7801332B70FF233246E7
:104028000DEB06012248FFF78DFC0BB0F0BD2946C9
:1040380001A8FCF7F5F8D4E72B6801930023029355
:104048000393ADF81030CCE70136F6B2012E2AD82A
:104058003001184B03EB061739792A789142F3D1CE
:104068008DF804207A7B8DF811200DF10501185880
:10407800FFF789FFD7F80520D7F80930CDF80920D0
:10408800CDF80D30E0E70026E0E70133DBB2012B85
:10409800A7D8084A02EB031211792A789142F4D181
:1040A8008DF80420F1E70023F1E700BF6910002034
:1040B800940E00205C0000202DE9F041AAB00023F6
:1040C800ADF8A4309E4C29A904F12C0000F059F950
:1040D800022229A904F13E0000F004FA98B994F8E4
:1040E8002F00A0F16403062B0DD8DFE813F00700BA
:1040F8000F001300DE000001210123019149012274
:104108000A70FFF749FF2AB0BDE8F0818D4B002205
:104118001A70F8E78C4B02938C4B01938C4B0093ED
:104128008C4B8D4A8D4909A800F062FA09A800F065
:1041380081FA8B4EA6FB0036B708C6F3870607EB55
:10414800470407EB8404041BE4B200230593069399
:104158000793ADF8203030B10025002C00F08F8097
:104168004FF000083CE081238DF814307D4B18682F
:10417800CDF815009A889B79ADF819208DF81B3079
:104188000E2205A96E4B93F82F00FFF705FF0125B6
:10419800E3E76B1CDDB203F07F038DF8143008EB06
:1041A800480308EB8303A8336B4453F8840C53F893
:1041B800801C53F87C2CCDF81500CDF81910CDF8DB
:1041C8001D2013F8783C8DF821300E2205A95C4B90
:1041D80093F82F00FFF7E0FE08F101085FFA88F86E
:1041E800B045D6D3013565F07F058DF81450FFB280
:1041F80007EB470307EB830707F1A8036B4453F862
:10420800840C53F8801C53F87C2CCDF81500CDF89D
:104218001910CDF81D2013F8783C8DF8213022466E
:1042280005A9474B93F82F00FFF7B6FE6BE76FF031
:104238007F026B1CDDB203F07F0313438DF814304B
:1042480004EB440304EB8303A8336B4453F8840C56
:1042580053F8801C53F87C2CCDF81500CDF81910B4
:10426800CDF81D2013F8783C8DF821300E2205A9D1
:10427800334B93F82F00FFF78FFE0134E4B2B442BA
:10428800BFF441AFFBB2013B9C42D0D00022D0E743
:104298000133DBB2012B0BD8334A02EB0312527BFA
:1042A80012F0020FF4D00130F2E700231846F1E7CC
:1042B80009A9FFF768FE042209A9214B93F82F00EA
:1042C800FFF76AFE1FE70134E4B2012C3FF61BAF8B
:1042D800254901EB04114B7B13F0020FF3D00122A7
:1042E8000431174B93F82F00FFF756FEEBE7002435
:1042F800EBE70122311D124B93F82F00FFF74CFE1C
:104308000134E4B2012C3FF6FEAE2701164D05EB51
:10431800041632790A4B93F830309A42F0D155F8A6
:1043280007801248FFF724FE8045E2D0E851E0E715
:104338000024E7E701220E49FFF72EFEE3E600BF5F
:104348000C00002068100020ECAD0008F8AD000853
:1043580004AE000894AD0008B0AD0008D0AD000868
:104368004FECC44E14AE00085C0000203D00002055
:104378003C00002003788B4200D001707047007821
:10438800704700231A4604E010F803C06244013362
:10439800DBB2112BF8D9002305E0D80022FA00F08F
:1043A800C8540133DBB2012BF7D970472DE9F0412E
:1043B80004460F461546FFF7E2FF18B100263046BF
:1043C800BDE8F081064601212046FFF7D3FF636967
:1043D8002B44A268934218D8E36821698B422AD3F8
:1043E80059198A4216D360682A4639461844FBF799
:1043F80017FFE3682B44A268B3FBF2F102FB113309
:10440800E36063692B446361012600212046FFF7BE
:10441800B1FFD4E7A2EB03089A1A5619606842461E
:1044280039461844FBF7FCFE324607EB0801606882
:10443800FBF7F6FEDDE760682A4639461844FBF7C5
:10444800EFFED6E7FDF782FC0B480C490C4A002327
:1044580002E0D458C4500433C4188C42F9D3094A32
:10446800094C002301E013600432A242FBD300F0A0
:1044780015F8FDF7CDFB704700000020280A002042
:104488002CB20008280A0020B4100020FEE7000023
:10449800014B1868704700BF7C00002070B50D4EB6
:1044A8000D4D761BB61006D0002455F8043B013498
:1044B8009847A642F9D1094E094D06F029F8761B0E
:1044C800B61006D0002455F8043B01349847A6429C
:1044D800F9D170BD20B2000820B2000828B2000847
:1044E80020B20008032A10B516D940EA010C1CF0C6
:1044F800030F04460B4622D119462046D1F800E0A6
:10450800D0F800C00433F44504F1040417D1043A88
:10451800032A20461946EFD8541EA2B100F1FF3CE9
:10452800013901E0C3180CD01CF801EF11F8012F74
:10453800A4EB0C039645F5D0AEEB020010BD541E5B
:10454800ECE7184610BD104610BD00BF830730B514
:1045580048D0541E002A3FD00346CAB201E0013CAD
:104568003AD303F8012B9D07F9D1032C2DD9CDB2ED
:1045780045EA05250F2C45EA054536D9A4F1100270
:1045880022F00F0C03F1200EE6444FEA121C03F14F
:10459800100242E9045542E9025510327245F8D139
:1045A8000CF1010214F00C0F03EB021204F00F0CD3
:1045B80013D0ACF1040323F003030433134442F88B
:1045C800045B9342FBD10CF003042CB1CAB21C4427
:1045D80003F8012B9C42FBD130BD64461346002CE6
:1045E800F4D1F9E703461446BFE71A46A446E0E7C4
:1045F8000EB430B504466FF000459CB00B4A1FABB3
:104608000B49059253F8042B086802A9CDE9013437
:1046180007950495069400F03BF80022029B1A7057
:104628001CB0BDE8304003B0704700BF0802FFFF70
:104638007C00002020F0030110F00300C0F100000E
:1046480051F8043B00F1040C4FEACC0C6FF0000267
:104658001CBF22FA0CF213434FF0010C4CEA0C2C4D
:104668004CEA0C4CA3EB0C0222EA030212EACC122D
:1046780004BF51F8043B0430F4D0C2F1000102EA4F
:104688000102B2FA82F2C2F11F0200EBD2007047B7
:104698002DE9F04FD5B00C460C9191460E930A9037
:1046A80003F01AFA036818461793FFF7C3FFA389A4
:1046B8001690190603D52369002B00F08F87002474
:1046C8002BAB224698464D46CDE9294428931294AF
:1046D80000230024CDE914342B78CDE91922CDE943
:1046E8001B2218920892002B00F0CE81AA4604E003
:1046F8001AF8013F002B00F00981252BF8D1BAEBFD
:10470800050640F007819AF80030002B00F0BC81C4
:1047180000234FF0FF324FF02B0920241F469AF850
:10472800016007920AF1010A8DF8833009930AF1B2
:10473800010AA6F120035A2B00F22081DFE813F0CA
:10474800CA021E011E01C5021E011E011E01A3028E
:104758001E011E016A00F3021E014702D9021E0152
:10476800D4025B005B005B005B005B005B005B00EE
:104778005B005B001E011E011E011E011E011E01C1
:104788001E01B0011E010B027A00B001B001B00198
:104798001E011E011E011E019E021E011E01B60001
:1047A8001E011E011E0119021E014C021E011E01DE
:1047B8003F071E011E011E011E011E011E011E01D2
:1047C8001E01B0011E010B027C00B001B001B00156
:1047D80091027C0075001E0184021E017002B8005F
:1047E8005E0275001E01190272001C071E011E01DF
:1047F8001F071E0172000022A6F130031AF8016B90
:1048080002EB820203EB4202A6F13003092BF5D931
:1048180009928EE70E9B53F8042B002A09920E93F7
:10482800C0F2D2819AF8006081E79AF8006047F0F8
:1048380020077CE747F01007BA060E9B40F17D8100
:10484800073323F007031A465B6852F8084B99466A
:104858000E92002BC0F27F85079B013301F039804F
:1048680054EA090327F0800B00F005850A2C79F13A
:10487800000380F0938701235F4630348DF84F4161
:104888000B930DF24F15079A0B9900238A42B8BF74
:104898000A4606929DF883200D930F931393109365
:1048A800002A7CD0069B0133069378E047F0100776
:1048B80017F0200900F032810E9B073323F007031D
:1048C800D3F8049053F8084B0E93002327F4806B19
:1048D80000228DF88320079A511C00F02A8254EA9E
:1048E80009012BF0800740F02382002A41F02B8039
:1048F800002B40F0C5841BF001030B9300F0548596
:1049080030230DF24F158DF84F31BCE7BAEB050691
:1049180000F0BA802A9BC8E9005633442A93299BA1
:104928000133072B299305DC08F10808089B334459
:104938000893E8E60C990A9828AA04F01BFB80B9AA
:104948000DF1AC08F2E70C990A9828AA04F012FBBA
:10495800002800F08A800D9B1BB10D990A9802F07F
:104968001FFE0C9B9B8913F0400F089B18BF4FF04C
:10497800FF330893089855B0BDE8F08F002E00F07B
:104988008380012300228DF8EC6006933BAD8DF8FF
:1049980083200B930D9207920F921392109217F0A7
:1049A800020302D006990231069117F0840B07D151
:1049B80009990698A1EB0009B9F1000F00F33683B5
:1049C8002A9C82B10122C8F80420299A01340132B4
:1049D8000DF18301072A2A942992C8F8001000F3E0
:1049E800698308F108087BB10223C8F80430299BC1
:1049F8000234013321AA072B2A942993C8F80020EE
:104A080000F36C8308F10808BBF1800F00F02E82D8
:104A1800079B0B9AA3EB020BBBF1000F00F371820B
:104A2800FB0500F1C5810B9BC8F800501C44C8F871
:104A38000430299B2A940133072B299300F3EA8237
:104A480008F108087B0705D5099B069A9D1A002DD1
:104A580000F35083DDE9083206998A42ACBF9B18FF
:104A68005B180893002C7FF46EAF002329930D9BED
:104A78001BB10D990A9802F093FD55460DF1AC084B
:104A88002B78002B7FF432AE2A9B002B3FF469AFC2
:104A98000C9C0A98214628AA04F06CFAA38962E7BC
:104AA8000E9B073323F00702F2E80234CDE91434F1
:104AB800DDE9143424F00044994618460E92214644
:104AC8004FF0FF32B64BFCF777F8002840F0968499
:104AD800484621464FF0FF32B14BFCF74FF800280B
:104AE80040F08C84DDE9140100220023FCF73CF837
:104AF800002840F0A6879DF8832000210320A94DB7
:104B0800A94B27F080070D910690472EC8BF1D4678
:104B180007910B900F9113911091C1E617F01003B4
:104B280040F0628417F0400200F07B870E9A9946A5
:104B380052F8044B0E92A4B2C7E653F8044B0E93F6
:104B4800FB0600F141847D0640F13B8444F3C03903
:104B58004B4624B27DE6012000220E9B069053F8B6
:104B6800041B3BAD8DF883208DF8EC100E930B9051
:104B780010E74FF000090E9C079B54F8045B8DF872
:104B88008390002D00F0EE865A1C00F060851A46CE
:104B98004946284603F0C8FA0D90002801F09E8087
:104BA8000D9B9DF883205B1B0B9323EAE373CDF8E1
:104BB8001C900E940693CDF83490CDF83C90CDF827
:104BC8004C90CDF840906BE6099B5B4209939AF8AC
:104BD800006047F00407AAE547F0100B1BF0200916
:104BE80000F0AA830E9B073323F007031A4652F8F6
:104BF800084BD3F804900E92012369E630227826F8
:104C08000E9B8DF8842053F8044B684A0E934FF09E
:104C18000009022347F0020B8DF88560189257E6C9
:104C2800BD0600F1D683FC0600F19386780600F1F4
:104C38005D87B90540F18D860E9B089953F8042BC2
:104C4800554611700E931BE79AF800606C2E03BF4F
:104C58009AF8016047F020070AF1010A47F01007A7
:104C680065E59AF80060682E03BF9AF8016047F47A
:104C780000770AF1010A47F0400758E59AF8006002
:104C880047F0080753E50A9E304602F025FF4368BF
:104C980018461B93FFF7CEFC034630461C931E466E
:104CA80002F01AFF83681993002E3FF4BBAD199BDD
:104CB800002B3FF4B7AD199B1B78002B3FF4B2AD26
:104CC8009AF8006047F4806731E59AF8006047F089
:104CD80001072CE59DF88330002B7FF4A3AD9AF8EB
:104CE80000608DF8834022E59AF8006047F080075D
:104CF8001DE5524612F8016B2A2E01F0EB81A6F150
:104D08003003092B924698BF002201F203801AF85B
:104D1800016B02EB820203EB4202A6F13003092B7E
:104D2800F5D9079205E59AF800608DF88390FEE4BE
:104D3800BB46012B3FF49AAD022B54AD12D1189A01
:104D480004F00F03D35C240944EA09744FEA1919E3
:104D580005F8013D54EA0903F2D154AB5B1B5F46E9
:104D68000B9390E504F00703E40844EA49744FEA1A
:104D7800D909303354EA09012A4605F8013DF1D131
:104D88001BF0010FE9D0302BE7D03023023A05F8A9
:104D9800013C54AB9B1A5F4615460B9373E500BF65
:104DA800FFFFEF7F20AE000824AE000830AE0008F9
:104DB800652E40F3E980DDE9140100220023FBF7AA
:104DC800C9FE002800F0D2810123C8F80430299BCD
:104DD800BF4A01330134072B2A942993C8F80020CD
:104DE80000F37A8508F10808229B129A934280F210
:104DF800D782169B179A1C44C8E90023299B2A943A
:104E08000133072B299300F3DD8308F10808129B6F
:104E18005D1E002D7FF716AE102D41F34181DFF89E
:104E2800B492224649461026B946299B0F46DDF81A
:104E380028B00C9C05E008F10808103D102D40F33F
:104E4800588501331032072BC8E90076CDE929329D
:104E5800F1DD2146584628AA04F08CF800287FF492
:104E68007AADDDE929320DF1AC08E6E7099B069A2F
:104E7800A3EB020BBBF1000F7FF7CAADBBF1100F1C
:104E880041F30580DFF84C9241462046A8464C463F
:104E98001023299A0C9DDDF8289006E0ABF1100B41
:104EA800BBF1100F01F1080119DD01321030072A9A
:104EB800C1E90043CDE92920F0DD2946484628AA62
:104EC80004F058F800287FF446ADDDE92920ABF15D
:104ED800100BBBF1100F4FF010032BA9E5DC454672
:104EE800A1468846044601325C44072ACDE92924B4
:104EF800C8F80090C8F804B000F3188508F108084D
:104F080086E5BBF1100F40F39785DFF8C89141465D
:104F18002046A8464C461023299A0C9DDDF8289077
:104F280006E0ABF1100BBBF1100F01F1080119DD20
:104F380001321030072AC1E90043CDE92920F0DD0C
:104F48002946484628AA04F015F800287FF403AD3E
:104F5800DDE92920ABF1100BBBF1100F4FF0100366
:104F68002BA9E5DC4546A1468846044601325C4447
:104F7800072ACDE92924C8F80090C8F804B000F33E
:104F8800CE8108F108084BE5129B012B40F37E8186
:104F98000123299E01341E44072EC8F800502A9484
:104FA800C8F80430299600F3E18108F10808169B37
:104FB8000136179A1C44072EC8E90023CDE9296455
:104FC80000F3E18108F108080022DDE9140100235B
:104FD800FBF7C0FD002840F07681129B0136013BAB
:104FE80001351C44072EC8F800502996C8F804302B
:104FF8002A9400F35B8108F108081A9B01361C44C7
:10500800C8F80430072E24ABCDE92964C8F800306D
:105018007FF716AD0C990A9828AA03F0ABFF002871
:105028007FF499AC2A9C0DF1AC080BE5B9F1100F8F
:1050380040F35086DDE929214046CDE91D36B846C2
:1050480010244F460C9EA9460A9D04E0103F102FDD
:1050580000F1080016DD01321F4B1031072AC0E9A4
:105068000034CDE92921F1DD3146284628AA03F08C
:1050780081FF00287FF46FACDDE92921103F102F54
:105088002BA8E8DC4D46DDE91D36B9464746804683
:1050980009EB010401321049072ACDE92924C8F88F
:1050A8000490C8F8001000F3C3839DF8832008F12A
:1050B800080886E40C990A9828AA1D9303F05AFF59
:1050C80000287FF448AC2A9C1D9B0DF1AC088AE4AB
:1050D800CCAD000870AE000860AE00080C990A98C4
:1050E80028AA03F047FF00287FF435AC2A9C0DF16D
:1050F800AC0889E4102D40F3C4861026299B0A9F2A
:10510800DDF8309004E0103D102D08F1080817DD97
:105118000133B84A1034072BC8E90026CDE92934F1
:10512800F1DD4946384628AA03F024FF00287FF419
:1051380012ACDDE92934103D102D0DF1AC08E7DC87
:105148000133AC4A2C44072BCDE92934C8F8045064
:10515800C8F800207FF77EAC0C990A9828AA03F0BB
:1051680009FF00287FF4F7AB2A9C73E422990029F1
:1051780040F36F83DDF84090129B9945A8BF99468C
:10518800B9F1000F0BDD299B4C440133072BC8E90B
:1051980000592A94299300F31D8508F10808109EE8
:1051A800B9F1000FA8BFA6EB0906002E00F325826F
:1051B800DDF840B07805AB4400F15F82229B129A7B
:1051C800934202DBF90740F17684169A1799144442
:1051D800C8E90012299A2A940132072A299200F371
:1051E800138508F10808129AAE18A6EB0B06D51A13
:1051F800AE42A8BF2E46002E0DDD299B3444013354
:10520800072BC8F800B0C8F804602A94299300F363
:10521800718508F10808002EA8BFAD1B002D7FF787
:1052280011AC102D40F33C87DFF8CC91224649465B
:105238001026B946299B0F46DDF828B00C9C05E0DE
:1052480008F10808103D102D40F353830133103244
:10525800072BC8E90076CDE92932F1DD2146584609
:1052680028AA03F087FE00287FF475ABDDE9293210
:105278000DF1AC08E6E7079B002B7FF4FCAA5F461C
:10528800002354AD07930B93FFF7FDBAFA073FF5D8
:105298007FAE0123299E01341E44072EC8F8005012
:1052A8002A94C8F8043029967FF7A5AE0C990A9875
:1052B80028AA03F05FFE00287FF44DABDDE92964DE
:1052C8000DF1AC0899E6129B5D1E002D7FF795AE97
:1052D800102D40F3DF86224607974FF0100BDFF8BA
:1052E80018910A9C0C9F05E008F10808103D102D44
:1052F80040F37F8301361032072EC8E9009BCDE9C1
:105308002962F1DD3946204628AA03F033FE002839
:105318007FF421ABDDE929620DF1AC08E6E70C99D1
:105328000A9828AA03F026FE00287FF414AB2A9CCA
:105338000DF1AC08FFF774BB1BF010030E9A3AD1BD
:105348001BF0400133D052F8044B99460E920123CA
:10535800A4B2FFF7BDBA2D2364428DF88330BB4653
:105368004FF0010369EB4909FFF7B5BA0C990A98A0
:1053780028AA03F0FFFD00287FF4EDAADDE92964DF
:105388000DF1AC0813E60C990A9828AA03F0F2FD6F
:1053980000287FF4E0AADDE929640DF1AC0813E6E2
:1053A800FD077FF54FAB24E554ADFFF76CBA1BF44E
:1053B800007940F08A8352F8044B01230E92FFF7DC
:1053C80087BAB80500F19B834FEAE4794B46FFF7AB
:1053D80040BA0E9B089853F8041BC2175546C1E9FA
:1053E80000020E93FFF74CBB0E9B53F8044B0E9331
:1053F800FFF76BBA60AE000870AE0008DDE9140173
:1054080002460B46FBF7D8FB002840F0E985612EE1
:1054180000F07D85412E00F08B84079B013300F05E
:105428008F8326F02003472B069300F08F85DDE954
:10543800141247F480730F931346002BC0F2B08503
:105448000B9300238B461D930D93069B462B00F070
:10545800E983452B00F0468507990B9B01910221B2
:10546800009126A9049123A9039122A95A460A98D2
:10547800029100F071FF069B0546472B40F03A86E3
:1054880017F0010FB9460F9F40F0FE84269B5B1B67
:105498001293069B472B00F06E83069B462B00F069
:1054A800F083229B1093109B069A013B412A22937A
:1054B80000F0BB850021F2B2002B8DF89020B6BF1A
:1054C8002D222B22109B8DF89120B8BFC3F1010328
:1054D800092B40F39B850DF19F0C6246B64F1C4685
:1054E800104687FB0312D917C1EBA20101EB810219
:1054F800A3EB42023032632C00F8012C0B4600F17A
:10550800FF32ECDC3033811EDBB28C4502F8013C03
:1055180040F2F9850DF1920101E012F8013B944542
:1055280001F8013BF9D10DF1A1030DF192021B1A0B
:10553800134424AA9B1A1A93129B1A9A012B1A44F1
:105548000B9240F381850B9B169A13440B9300230F
:105558000B9A29F4806722EAE27247F480770F9366
:105568000692139310931D9B002B40F02C839DF8FB
:1055780083200793FFF794B9BB46FFF72FBB8F4BE8
:10558800189317F0200900F0F5800E9B073323F0DD
:105598000703D3F8049053F8084B0E93F80709D57E
:1055A80054EA090306D030238DF8856047F00207D6
:1055B8008DF88430022327F4806BFFF789B9804B7C
:1055C8001893DEE70C990A9828AA03F0D3FC002860
:1055D8007FF4C1A92A9C0DF1AC0818E440210A986F
:1055E80002F0F6FA0C9B18601861002800F0978505
:1055F80040230C9A5361FFF762B8102E40F376856A
:10560800DFF8C091424648462146A846B9464FF0C1
:10561800100B0746299B0A9C0C9D04E00832103E9B
:10562800102E40F3138201331031072BC2E9007B9F
:10563800CDE92931F2DD2946204628AA03F09AFC53
:1056480000287FF488A9DDE929312BAAE7E7284655
:10565800CDF81C900E94FEF7EDFF20EAE0739DF85C
:1056680083200B90CDF83490CDF83C90CDF84C9039
:10567800CDF840900693FFF713B9129B4246DDF828
:105688004C80EB185E460793CDF82CA01097214666
:10569800199FDDF87090DDF828A0DDF830B00F9B79
:1056A8001395B8F1000F2ED083BB013F08F1FF38E6
:1056B8001B9B4944C2E90039299B2A910133072BD6
:1056C800299360DC0832079B38789B1B8342A8BF6C
:1056D8000346002B1C460BDD299819440130072886
:1056E800C2E900632A91299000F3148138780832BE
:1056F800002CB4BF0546051B002D0BDC06440F9B90
:10570800B8F1000FD0D1002B00F026820F9B013B8F
:105718000F93CDE7102D40F39D841024299804E0C1
:10572800103D102D02F1080216DD0130254B103115
:105738000728C2E90034CDE92901F1DD5946504670
:1057480028AA03F017FC00287FF405A9DDE9290140
:10575800103D102D2BAAE8DC01301A4B29440728EC
:10576800CDE929015560136000F341823878083289
:105778000644C4E717F0100300F0A0800E9B53F80E
:10578800044B0E930AE75946504628AA03F0F2FB49
:1057980000287FF4E0A82A992BAA94E700230BF4A9
:1057A80080620696CDF82CA0CDF8348092461E462D
:1057B800DDF8648054AF14E06766666630AE0008B2
:1057C80044AE000870AE00080023204649460A226D
:1057D800FBF730FA0A2C79F100031BD304468946FB
:1057E8002F4620460A2200234946FBF723FA303287
:1057F8007D1E013607F8012CBAF1000FE4D098F8A5
:1058080000309E42E0D1FF2EDED00A2C79F1000351
:1058180080F0308154AB5B1BDDF82CA0CDF86480A0
:1058280012965F46069EDDF834800B93FFF72BB87F
:105838000C990A9828AA1D9303F09CFB00287FF472
:105848008AA89DF883202A9C1D9B0DF1AC08FFF7C0
:10585800B8B80123C8F80430299BBC4A0133013485
:10586800072B2A942993C8F8002000F3178108F120
:105878000808002940F08680129A07F001031343B4
:105888003FF4E0A8169B17991A19C8E90013299B39
:105898002A920133072B299300F3378108F108086E
:1058A800129901338C18072BCDE92934C8F8005018
:1058B800C8F804107FF7C4A8FFF7ACBB17F0400284
:1058C80000F0A5800E9A994652F8044B0E92A4B2A5
:1058D80064E6BB46FEF7CABF0C990A9828AA03F0EB
:1058E80049FB00287FF437A82A9C0DF1AC08FFF784
:1058F8007BBA14463A464F46914601332C44072B4F
:10590800C8F80090C8F80450CDE929347FF798A862
:10591800FFF780BB5946504628AA03F02BFB002806
:105928007FF419A838782A992BAAE1E60C990A98E5
:1059380028AA03F01FFB00287FF40DA82A9C0DF16C
:10594800AC08FFF765B8012BBB467FF4F5A9FEF755
:1059580092BF0E9B089953F8042B554611600E937D
:10596800FFF78EB8062B294628BF06232A46079537
:105978000D950693764D0E940B930F9113911091FC
:10598800FEF78EBF169B17981A19C8E90003299BC2
:105998002A920133072B299300F3B78008F10808EE
:1059A8000029BFF67DAF4E42103180F2A9834146EF
:1059B8001024A846DFF89C91DDF828B00C9D04E07F
:1059C8000831103E102E40F3A78201331032072B06
:1059D800C1E90094CDE92932F2DD2946584628AAC2
:1059E80003F0C8FA00287EF4B6AFDDE929322BA906
:1059F800E7E71446079F01362C44072ECDE92964B2
:105A0800C8F80090C8F804507FF7F5AA4EE417F4D8
:105A180000790E9B66D053F8044B91460E93E4B27E
:105A2800BCE517F400790E9B57D053F8044B914608
:105A38000E93E4B2FEF749BF299ADFF81891FFF7F1
:105A480095BA2D228DF88320FFF757B84546904622
:105A58003A460C464F46914601333444072BCDE96C
:105A68002934C8F80090C8F804605CDC08F108081C
:105A7800FFF79EBB1C9B1B99ED1A1A46284603F09C
:105A880045FA98F801300BB108F10108204649465B
:105A98000A2200230026FBF7CDF89FE60C990A9806
:105AA80028AA03F067FA00287EF455AF22992A9CA9
:105AB8000DF1AC08DDE6129AAE18A6EB0B06D51A66
:105AC800AE42A8BF2E46FFF7A6BB52F8044B894644
